{
  "abi": [
    {
      "inputs": [
        {
          "internalType": "address",
          "name": "_helmToken",
          "type": "address"
        }
      ],
      "stateMutability": "nonpayable",
      "type": "constructor"
    },
    {
      "inputs": [],
      "name": "EmergencyWithdrawDisabled",
      "type": "error"
    },
    {
      "inputs": [],
      "name": "InsufficientBalance",
      "type": "error"
    },
    {
      "inputs": [],
      "name": "NoStakeFound",
      "type": "error"
    },
    {
      "inputs": [
        {
          "internalType": "address",
          "name": "owner",
          "type": "address"
        }
      ],
      "name": "OwnableInvalidOwner",
      "type": "error"
    },
    {
      "inputs": [
        {
          "internalType": "address",
          "name": "account",
          "type": "address"
        }
      ],
      "name": "OwnableUnauthorizedAccount",
      "type": "error"
    },
    {
      "inputs": [],
      "name": "ReentrancyGuardReentrantCall",
      "type": "error"
    },
    {
      "inputs": [
        {
          "internalType": "address",
          "name": "token",
          "type": "address"
        }
      ],
      "name": "SafeERC20FailedOperation",
      "type": "error"
    },
    {
      "anonymous": false,
      "inputs": [
        {
          "indexed": true,
          "internalType": "address",
          "name": "previousOwner",
          "type": "address"
        },
        {
          "indexed": true,
          "internalType": "address",
          "name": "newOwner",
          "type": "address"
        }
      ],
      "name": "OwnershipTransferred",
      "type": "event"
    },
    {
      "anonymous": false,
      "inputs": [
        {
          "indexed": true,
          "internalType": "address",
          "name": "user",
          "type": "address"
        },
        {
          "indexed": false,
          "internalType": "uint256",
          "name": "amount",
          "type": "uint256"
        },
        {
          "indexed": false,
          "internalType": "uint256",
          "name": "tier",
          "type": "uint256"
        }
      ],
      "name": "Staked",
      "type": "event"
    },
    {
      "anonymous": false,
      "inputs": [
        {
          "indexed": true,
          "internalType": "address",
          "name": "user",
          "type": "address"
        },
        {
          "indexed": false,
          "internalType": "uint256",
          "name": "newTier",
          "type": "uint256"
        }
      ],
      "name": "TierDowngraded",
      "type": "event"
    },
    {
      "anonymous": false,
      "inputs": [
        {
          "indexed": true,
          "internalType": "address",
          "name": "user",
          "type": "address"
        },
        {
          "indexed": false,
          "internalType": "uint256",
          "name": "newTier",
          "type": "uint256"
        }
      ],
      "name": "TierUpgraded",
      "type": "event"
    },
    {
      "anonymous": false,
      "inputs": [
        {
          "indexed": true,
          "internalType": "address",
          "name": "user",
          "type": "address"
        },
        {
          "indexed": false,
          "internalType": "uint256",
          "name": "amount",
          "type": "uint256"
        }
      ],
      "name": "Unstaked",
      "type": "event"
    },
    {
      "inputs": [],
      "name": "FLEET_TIER",
      "outputs": [
        {
          "internalType": "uint256",
          "name": "",
          "type": "uint256"
        }
      ],
      "stateMutability": "view",
      "type": "function"
    },
    {
      "inputs": [],
      "name": "HELM_TIER",
      "outputs": [
        {
          "internalType": "uint256",
          "name": "",
          "type": "uint256"
        }
      ],
      "stateMutability": "view",
      "type": "function"
    },
    {
      "inputs": [],
      "name": "NAVIGATOR_TIER",
      "outputs": [
        {
          "internalType": "uint256",
          "name": "",
          "type": "uint256"
        }
      ],
      "stateMutability": "view",
      "type": "function"
    },
    {
      "inputs": [
        {
          "internalType": "address",
          "name": "_user",
          "type": "address"
        }
      ],
      "name": "amountToNextTier",
      "outputs": [
        {
          "internalType": "uint256",
          "name": "",
          "type": "uint256"
        }
      ],
      "stateMutability": "view",
      "type": "function"
    },
    {
      "inputs": [],
      "name": "getContractBalance",
      "outputs": [
        {
          "internalType": "uint256",
          "name": "",
          "type": "uint256"
        }
      ],
      "stateMutability": "view",
      "type": "function"
    },
    {
      "inputs": [
        {
          "internalType": "address",
          "name": "_user",
          "type": "address"
        }
      ],
      "name": "getStake",
      "outputs": [
        {
          "internalType": "uint256",
          "name": "",
          "type": "uint256"
        }
      ],
      "stateMutability": "view",
      "type": "function"
    },
    {
      "inputs": [
        {
          "internalType": "address",
          "name": "_user",
          "type": "address"
        }
      ],
      "name": "getTier",
      "outputs": [
        {
          "internalType": "uint256",
          "name": "",
          "type": "uint256"
        }
      ],
      "stateMutability": "view",
      "type": "function"
    },
    {
      "inputs": [
        {
          "internalType": "uint256",
          "name": "_tier",
          "type": "uint256"
        }
      ],
      "name": "getTierName",
      "outputs": [
        {
          "internalType": "string",
          "name": "",
          "type": "string"
        }
      ],
      "stateMutability": "pure",
      "type": "function"
    },
    {
      "inputs": [
        {
          "internalType": "address",
          "name": "_user",
          "type": "address"
        },
        {
          "internalType": "uint256",
          "name": "_minTier",
          "type": "uint256"
        }
      ],
      "name": "hasTier",
      "outputs": [
        {
          "internalType": "bool",
          "name": "",
          "type": "bool"
        }
      ],
      "stateMutability": "view",
      "type": "function"
    },
    {
      "inputs": [],
      "name": "helmToken",
      "outputs": [
        {
          "internalType": "contract IERC20",
          "name": "",
          "type": "address"
        }
      ],
      "stateMutability": "view",
      "type": "function"
    },
    {
      "inputs": [],
      "name": "owner",
      "outputs": [
        {
          "internalType": "address",
          "name": "",
          "type": "address"
        }
      ],
      "stateMutability": "view",
      "type": "function"
    },
    {
      "inputs": [
        {
          "internalType": "address",
          "name": "_token",
          "type": "address"
        },
        {
          "internalType": "uint256",
          "name": "_amount",
          "type": "uint256"
        }
      ],
      "name": "recoverToken",
      "outputs": [],
      "stateMutability": "nonpayable",
      "type": "function"
    },
    {
      "inputs": [],
      "name": "renounceOwnership",
      "outputs": [],
      "stateMutability": "nonpayable",
      "type": "function"
    },
    {
      "inputs": [
        {
          "internalType": "uint256",
          "name": "_amount",
          "type": "uint256"
        }
      ],
      "name": "stake",
      "outputs": [],
      "stateMutability": "nonpayable",
      "type": "function"
    },
    {
      "inputs": [
        {
          "internalType": "address",
          "name": "",
          "type": "address"
        }
      ],
      "name": "stakes",
      "outputs": [
        {
          "internalType": "uint256",
          "name": "amount",
          "type": "uint256"
        },
        {
          "internalType": "uint256",
          "name": "since",
          "type": "uint256"
        },
        {
          "internalType": "uint256",
          "name": "lastClaim",
          "type": "uint256"
        }
      ],
      "stateMutability": "view",
      "type": "function"
    },
    {
      "inputs": [],
      "name": "totalStaked",
      "outputs": [
        {
          "internalType": "uint256",
          "name": "",
          "type": "uint256"
        }
      ],
      "stateMutability": "view",
      "type": "function"
    },
    {
      "inputs": [
        {
          "internalType": "address",
          "name": "newOwner",
          "type": "address"
        }
      ],
      "name": "transferOwnership",
      "outputs": [],
      "stateMutability": "nonpayable",
      "type": "function"
    },
    {
      "inputs": [
        {
          "internalType": "uint256",
          "name": "_amount",
          "type": "uint256"
        }
      ],
      "name": "unstake",
      "outputs": [],
      "stateMutability": "nonpayable",
      "type": "function"
    },
    {
      "inputs": [],
      "name": "unstakeAll",
      "outputs": [],
      "stateMutability": "nonpayable",
      "type": "function"
    }
  ],
  "devdoc": {
    "errors": {
      "OwnableInvalidOwner(address)": [
        {
          "details": "The owner is not a valid owner account. (eg. `address(0)`)"
        }
      ],
      "OwnableUnauthorizedAccount(address)": [
        {
          "details": "The caller account is not authorized to perform an operation."
        }
      ],
      "ReentrancyGuardReentrantCall()": [
        {
          "details": "Unauthorized reentrant call."
        }
      ],
      "SafeERC20FailedOperation(address)": [
        {
          "details": "An operation with an ERC-20 token failed."
        }
      ]
    },
    "kind": "dev",
    "methods": {
      "getTier(address)": {
        "returns": {
          "_0": "0 = Free, 1 = HELM, 2 = Navigator, 3 = Fleet"
        }
      },
      "owner()": {
        "details": "Returns the address of the current owner."
      },
      "recoverToken(address,uint256)": {
        "params": {
          "_amount": "Amount to recover",
          "_token": "Token to recover"
        }
      },
      "renounceOwnership()": {
        "details": "Leaves the contract without owner. It will not be possible to call `onlyOwner` functions. Can only be called by the current owner. NOTE: Renouncing ownership will leave the contract without an owner, thereby disabling any functionality that is only available to the owner."
      },
      "stake(uint256)": {
        "params": {
          "_amount": "Amount to stake (in wei, 18 decimals)"
        }
      },
      "transferOwnership(address)": {
        "details": "Transfers ownership of the contract to a new account (`newOwner`). Can only be called by the current owner."
      },
      "unstake(uint256)": {
        "params": {
          "_amount": "Amount to unstake (in wei, 18 decimals)"
        }
      }
    },
    "version": 1
  },
  "evm": {
    "assembly": "    /* \"HELMStaking.sol\":460:6665  contract HELMStaking is Ownable, ReentrancyGuard {... */\n  mstore(0x40, 0xa0)\n    /* \"HELMStaking.sol\":1686:1853  constructor(address _helmToken) Ownable(msg.sender) {... */\n  callvalue\n  dup1\n  iszero\n  tag_1\n  jumpi\n  0x00\n  dup1\n  revert\ntag_1:\n  pop\n  mload(0x40)\n  sub(codesize, bytecodeSize)\n  dup1\n  bytecodeSize\n  dup4\n  codecopy\n  dup2\n  dup2\n  add\n  0x40\n  mstore\n  dup2\n  add\n  swap1\n  tag_2\n  swap2\n  swap1\n  tag_3\n  jump\t// in\ntag_2:\n    /* \"HELMStaking.sol\":1726:1736  msg.sender */\n  caller\n    /* \"@openzeppelin/contracts/access/Ownable.sol\":1297:1298   */\n  0x00\n    /* \"@openzeppelin/contracts/access/Ownable.sol\":1273:1299   */\n  0xffffffffffffffffffffffffffffffffffffffff\n  and\n    /* \"@openzeppelin/contracts/access/Ownable.sol\":1273:1285   */\n  dup2\n    /* \"@openzeppelin/contracts/access/Ownable.sol\":1273:1299   */\n  0xffffffffffffffffffffffffffffffffffffffff\n  and\n  sub\n    /* \"@openzeppelin/contracts/access/Ownable.sol\":1269:1364   */\n  tag_8\n  jumpi\n    /* \"@openzeppelin/contracts/access/Ownable.sol\":1350:1351   */\n  0x00\n    /* \"@openzeppelin/contracts/access/Ownable.sol\":1322:1353   */\n  mload(0x40)\n  0x1e4fbdf700000000000000000000000000000000000000000000000000000000\n  dup2\n  mstore\n  0x04\n  add\n  tag_9\n  swap2\n  swap1\n  tag_10\n  jump\t// in\ntag_9:\n  mload(0x40)\n  dup1\n  swap2\n  sub\n  swap1\n  revert\n    /* \"@openzeppelin/contracts/access/Ownable.sol\":1269:1364   */\ntag_8:\n    /* \"@openzeppelin/contracts/access/Ownable.sol\":1373:1405   */\n  tag_11\n    /* \"@openzeppelin/contracts/access/Ownable.sol\":1392:1404   */\n  dup2\n    /* \"@openzeppelin/contracts/access/Ownable.sol\":1373:1391   */\n  shl(0x20, tag_12)\n    /* \"@openzeppelin/contracts/access/Ownable.sol\":1373:1405   */\n  0x20\n  shr\n  jump\t// in\ntag_11:\n    /* \"@openzeppelin/contracts/access/Ownable.sol\":1225:1412   */\n  pop\n    /* \"@openzeppelin/contracts/utils/ReentrancyGuard.sol\":1857:1858   */\n  0x01\n    /* \"@openzeppelin/contracts/utils/ReentrancyGuard.sol\":2061:2068   */\n  dup1\n    /* \"@openzeppelin/contracts/utils/ReentrancyGuard.sol\":2061:2082   */\n  dup2\n  swap1\n  sstore\n  pop\n    /* \"HELMStaking.sol\":1778:1779  0 */\n  0x00\n    /* \"HELMStaking.sol\":1756:1780  _helmToken != address(0) */\n  0xffffffffffffffffffffffffffffffffffffffff\n  and\n    /* \"HELMStaking.sol\":1756:1766  _helmToken */\n  dup2\n    /* \"HELMStaking.sol\":1756:1780  _helmToken != address(0) */\n  0xffffffffffffffffffffffffffffffffffffffff\n  and\n  sub\n    /* \"HELMStaking.sol\":1748:1806  require(_helmToken != address(0), \"Invalid token address\") */\n  tag_15\n  jumpi\n  mload(0x40)\n  0x08c379a000000000000000000000000000000000000000000000000000000000\n  dup2\n  mstore\n  0x04\n  add\n  tag_16\n  swap1\n  tag_17\n  jump\t// in\ntag_16:\n  mload(0x40)\n  dup1\n  swap2\n  sub\n  swap1\n  revert\ntag_15:\n    /* \"HELMStaking.sol\":1835:1845  _helmToken */\n  dup1\n    /* \"HELMStaking.sol\":1816:1846  helmToken = IERC20(_helmToken) */\n  0xffffffffffffffffffffffffffffffffffffffff\n  and\n  0x80\n  dup2\n  0xffffffffffffffffffffffffffffffffffffffff\n  and\n  dup2\n  mstore\n  pop\n  pop\n    /* \"HELMStaking.sol\":1686:1853  constructor(address _helmToken) Ownable(msg.sender) {... */\n  pop\n    /* \"HELMStaking.sol\":460:6665  contract HELMStaking is Ownable, ReentrancyGuard {... */\n  jump(tag_18)\n    /* \"@openzeppelin/contracts/access/Ownable.sol\":2912:3099   */\ntag_12:\n    /* \"@openzeppelin/contracts/access/Ownable.sol\":2985:3001   */\n  0x00\n    /* \"@openzeppelin/contracts/access/Ownable.sol\":3004:3010   */\n  dup1\n  0x00\n  swap1\n  sload\n  swap1\n  0x0100\n  exp\n  swap1\n  div\n  0xffffffffffffffffffffffffffffffffffffffff\n  and\n    /* \"@openzeppelin/contracts/access/Ownable.sol\":2985:3010   */\n  swap1\n  pop\n    /* \"@openzeppelin/contracts/access/Ownable.sol\":3029:3037   */\n  dup2\n    /* \"@openzeppelin/contracts/access/Ownable.sol\":3020:3026   */\n  0x00\n  dup1\n    /* \"@openzeppelin/contracts/access/Ownable.sol\":3020:3037   */\n  0x0100\n  exp\n  dup2\n  sload\n  dup2\n  0xffffffffffffffffffffffffffffffffffffffff\n  mul\n  not\n  and\n  swap1\n  dup4\n  0xffffffffffffffffffffffffffffffffffffffff\n  and\n  mul\n  or\n  swap1\n  sstore\n  pop\n    /* \"@openzeppelin/contracts/access/Ownable.sol\":3083:3091   */\n  dup2\n    /* \"@openzeppelin/contracts/access/Ownable.sol\":3052:3092   */\n  0xffffffffffffffffffffffffffffffffffffffff\n  and\n    /* \"@openzeppelin/contracts/access/Ownable.sol\":3073:3081   */\n  dup2\n    /* \"@openzeppelin/contracts/access/Ownable.sol\":3052:3092   */\n  0xffffffffffffffffffffffffffffffffffffffff\n  and\n  0x8be0079c531659141344cd1fd0a4f28419497f9722a3daafe3b4186f6b6457e0\n  mload(0x40)\n  mload(0x40)\n  dup1\n  swap2\n  sub\n  swap1\n  log3\n    /* \"@openzeppelin/contracts/access/Ownable.sol\":2975:3099   */\n  pop\n    /* \"@openzeppelin/contracts/access/Ownable.sol\":2912:3099   */\n  pop\n  jump\t// out\n    /* \"#utility.yul\":88:205   */\ntag_21:\n    /* \"#utility.yul\":197:198   */\n  0x00\n    /* \"#utility.yul\":194:195   */\n  dup1\n    /* \"#utility.yul\":187:199   */\n  revert\n    /* \"#utility.yul\":334:460   */\ntag_23:\n    /* \"#utility.yul\":371:378   */\n  0x00\n    /* \"#utility.yul\":411:453   */\n  0xffffffffffffffffffffffffffffffffffffffff\n    /* \"#utility.yul\":404:409   */\n  dup3\n    /* \"#utility.yul\":400:454   */\n  and\n    /* \"#utility.yul\":389:454   */\n  swap1\n  pop\n    /* \"#utility.yul\":334:460   */\n  swap2\n  swap1\n  pop\n  jump\t// out\n    /* \"#utility.yul\":466:562   */\ntag_24:\n    /* \"#utility.yul\":503:510   */\n  0x00\n    /* \"#utility.yul\":532:556   */\n  tag_37\n    /* \"#utility.yul\":550:555   */\n  dup3\n    /* \"#utility.yul\":532:556   */\n  tag_23\n  jump\t// in\ntag_37:\n    /* \"#utility.yul\":521:556   */\n  swap1\n  pop\n    /* \"#utility.yul\":466:562   */\n  swap2\n  swap1\n  pop\n  jump\t// out\n    /* \"#utility.yul\":568:690   */\ntag_25:\n    /* \"#utility.yul\":641:665   */\n  tag_39\n    /* \"#utility.yul\":659:664   */\n  dup2\n    /* \"#utility.yul\":641:665   */\n  tag_24\n  jump\t// in\ntag_39:\n    /* \"#utility.yul\":634:639   */\n  dup2\n    /* \"#utility.yul\":631:666   */\n  eq\n    /* \"#utility.yul\":621:684   */\n  tag_40\n  jumpi\n    /* \"#utility.yul\":680:681   */\n  0x00\n    /* \"#utility.yul\":677:678   */\n  dup1\n    /* \"#utility.yul\":670:682   */\n  revert\n    /* \"#utility.yul\":621:684   */\ntag_40:\n    /* \"#utility.yul\":568:690   */\n  pop\n  jump\t// out\n    /* \"#utility.yul\":696:839   */\ntag_26:\n    /* \"#utility.yul\":753:758   */\n  0x00\n    /* \"#utility.yul\":784:790   */\n  dup2\n    /* \"#utility.yul\":778:791   */\n  mload\n    /* \"#utility.yul\":769:791   */\n  swap1\n  pop\n    /* \"#utility.yul\":800:833   */\n  tag_42\n    /* \"#utility.yul\":827:832   */\n  dup2\n    /* \"#utility.yul\":800:833   */\n  tag_25\n  jump\t// in\ntag_42:\n    /* \"#utility.yul\":696:839   */\n  swap3\n  swap2\n  pop\n  pop\n  jump\t// out\n    /* \"#utility.yul\":845:1196   */\ntag_3:\n    /* \"#utility.yul\":915:921   */\n  0x00\n    /* \"#utility.yul\":964:966   */\n  0x20\n    /* \"#utility.yul\":952:961   */\n  dup3\n    /* \"#utility.yul\":943:950   */\n  dup5\n    /* \"#utility.yul\":939:962   */\n  sub\n    /* \"#utility.yul\":935:967   */\n  slt\n    /* \"#utility.yul\":932:1051   */\n  iszero\n  tag_44\n  jumpi\n    /* \"#utility.yul\":970:1049   */\n  tag_45\n  tag_21\n  jump\t// in\ntag_45:\n    /* \"#utility.yul\":932:1051   */\ntag_44:\n    /* \"#utility.yul\":1090:1091   */\n  0x00\n    /* \"#utility.yul\":1115:1179   */\n  tag_46\n    /* \"#utility.yul\":1171:1178   */\n  dup5\n    /* \"#utility.yul\":1162:1168   */\n  dup3\n    /* \"#utility.yul\":1151:1160   */\n  dup6\n    /* \"#utility.yul\":1147:1169   */\n  add\n    /* \"#utility.yul\":1115:1179   */\n  tag_26\n  jump\t// in\ntag_46:\n    /* \"#utility.yul\":1105:1179   */\n  swap2\n  pop\n    /* \"#utility.yul\":1061:1189   */\n  pop\n    /* \"#utility.yul\":845:1196   */\n  swap3\n  swap2\n  pop\n  pop\n  jump\t// out\n    /* \"#utility.yul\":1202:1320   */\ntag_27:\n    /* \"#utility.yul\":1289:1313   */\n  tag_48\n    /* \"#utility.yul\":1307:1312   */\n  dup2\n    /* \"#utility.yul\":1289:1313   */\n  tag_24\n  jump\t// in\ntag_48:\n    /* \"#utility.yul\":1284:1287   */\n  dup3\n    /* \"#utility.yul\":1277:1314   */\n  mstore\n    /* \"#utility.yul\":1202:1320   */\n  pop\n  pop\n  jump\t// out\n    /* \"#utility.yul\":1326:1548   */\ntag_10:\n    /* \"#utility.yul\":1419:1423   */\n  0x00\n    /* \"#utility.yul\":1457:1459   */\n  0x20\n    /* \"#utility.yul\":1446:1455   */\n  dup3\n    /* \"#utility.yul\":1442:1460   */\n  add\n    /* \"#utility.yul\":1434:1460   */\n  swap1\n  pop\n    /* \"#utility.yul\":1470:1541   */\n  tag_50\n    /* \"#utility.yul\":1538:1539   */\n  0x00\n    /* \"#utility.yul\":1527:1536   */\n  dup4\n    /* \"#utility.yul\":1523:1540   */\n  add\n    /* \"#utility.yul\":1514:1520   */\n  dup5\n    /* \"#utility.yul\":1470:1541   */\n  tag_27\n  jump\t// in\ntag_50:\n    /* \"#utility.yul\":1326:1548   */\n  swap3\n  swap2\n  pop\n  pop\n  jump\t// out\n    /* \"#utility.yul\":1554:1723   */\ntag_28:\n    /* \"#utility.yul\":1638:1649   */\n  0x00\n    /* \"#utility.yul\":1672:1678   */\n  dup3\n    /* \"#utility.yul\":1667:1670   */\n  dup3\n    /* \"#utility.yul\":1660:1679   */\n  mstore\n    /* \"#utility.yul\":1712:1716   */\n  0x20\n    /* \"#utility.yul\":1707:1710   */\n  dup3\n    /* \"#utility.yul\":1703:1717   */\n  add\n    /* \"#utility.yul\":1688:1717   */\n  swap1\n  pop\n    /* \"#utility.yul\":1554:1723   */\n  swap3\n  swap2\n  pop\n  pop\n  jump\t// out\n    /* \"#utility.yul\":1729:1900   */\ntag_29:\n    /* \"#utility.yul\":1869:1892   */\n  0x496e76616c696420746f6b656e20616464726573730000000000000000000000\n    /* \"#utility.yul\":1865:1866   */\n  0x00\n    /* \"#utility.yul\":1857:1863   */\n  dup3\n    /* \"#utility.yul\":1853:1867   */\n  add\n    /* \"#utility.yul\":1846:1893   */\n  mstore\n    /* \"#utility.yul\":1729:1900   */\n  pop\n  jump\t// out\n    /* \"#utility.yul\":1906:2272   */\ntag_30:\n    /* \"#utility.yul\":2048:2051   */\n  0x00\n    /* \"#utility.yul\":2069:2136   */\n  tag_54\n    /* \"#utility.yul\":2133:2135   */\n  0x15\n    /* \"#utility.yul\":2128:2131   */\n  dup4\n    /* \"#utility.yul\":2069:2136   */\n  tag_28\n  jump\t// in\ntag_54:\n    /* \"#utility.yul\":2062:2136   */\n  swap2\n  pop\n    /* \"#utility.yul\":2145:2238   */\n  tag_55\n    /* \"#utility.yul\":2234:2237   */\n  dup3\n    /* \"#utility.yul\":2145:2238   */\n  tag_29\n  jump\t// in\ntag_55:\n    /* \"#utility.yul\":2263:2265   */\n  0x20\n    /* \"#utility.yul\":2258:2261   */\n  dup3\n    /* \"#utility.yul\":2254:2266   */\n  add\n    /* \"#utility.yul\":2247:2266   */\n  swap1\n  pop\n    /* \"#utility.yul\":1906:2272   */\n  swap2\n  swap1\n  pop\n  jump\t// out\n    /* \"#utility.yul\":2278:2697   */\ntag_17:\n    /* \"#utility.yul\":2444:2448   */\n  0x00\n    /* \"#utility.yul\":2482:2484   */\n  0x20\n    /* \"#utility.yul\":2471:2480   */\n  dup3\n    /* \"#utility.yul\":2467:2485   */\n  add\n    /* \"#utility.yul\":2459:2485   */\n  swap1\n  pop\n    /* \"#utility.yul\":2531:2540   */\n  dup2\n    /* \"#utility.yul\":2525:2529   */\n  dup2\n    /* \"#utility.yul\":2521:2541   */\n  sub\n    /* \"#utility.yul\":2517:2518   */\n  0x00\n    /* \"#utility.yul\":2506:2515   */\n  dup4\n    /* \"#utility.yul\":2502:2519   */\n  add\n    /* \"#utility.yul\":2495:2542   */\n  mstore\n    /* \"#utility.yul\":2559:2690   */\n  tag_57\n    /* \"#utility.yul\":2685:2689   */\n  dup2\n    /* \"#utility.yul\":2559:2690   */\n  tag_30\n  jump\t// in\ntag_57:\n    /* \"#utility.yul\":2551:2690   */\n  swap1\n  pop\n    /* \"#utility.yul\":2278:2697   */\n  swap2\n  swap1\n  pop\n  jump\t// out\n    /* \"HELMStaking.sol\":460:6665  contract HELMStaking is Ownable, ReentrancyGuard {... */\ntag_18:\n  mload(0x80)\n  codecopy(0x00, dataOffset(sub_0), dataSize(sub_0))\n  0x00\n  assignImmutable(\"0x277ab82e5a4641341820a4a2933a62c1de997e42e92548657ae21b3728d580fe\")\n  return(0x00, dataSize(sub_0))\nstop\n\nsub_0: assembly {\n        /* \"HELMStaking.sol\":460:6665  contract HELMStaking is Ownable, ReentrancyGuard {... */\n      mstore(0x40, 0x80)\n      callvalue\n      dup1\n      iszero\n      tag_1\n      jumpi\n      0x00\n      dup1\n      revert\n    tag_1:\n      pop\n      jumpi(tag_2, lt(calldatasize, 0x04))\n      shr(0xe0, calldataload(0x00))\n      dup1\n      0x7a766460\n      gt\n      tag_22\n      jumpi\n      dup1\n      0x9b5f7d81\n      gt\n      tag_23\n      jumpi\n      dup1\n      0x9b5f7d81\n      eq\n      tag_17\n      jumpi\n      dup1\n      0xa694fc3a\n      eq\n      tag_18\n      jumpi\n      dup1\n      0xb29a8140\n      eq\n      tag_19\n      jumpi\n      dup1\n      0xb45aae52\n      eq\n      tag_20\n      jumpi\n      dup1\n      0xf2fde38b\n      eq\n      tag_21\n      jumpi\n      jump(tag_2)\n    tag_23:\n      dup1\n      0x7a766460\n      eq\n      tag_12\n      jumpi\n      dup1\n      0x817b1cd2\n      eq\n      tag_13\n      jumpi\n      dup1\n      0x8b3fddc4\n      eq\n      tag_14\n      jumpi\n      dup1\n      0x8da5cb5b\n      eq\n      tag_15\n      jumpi\n      dup1\n      0x980eedf0\n      eq\n      tag_16\n      jumpi\n      jump(tag_2)\n    tag_22:\n      dup1\n      0x35322f37\n      gt\n      tag_24\n      jumpi\n      dup1\n      0x35322f37\n      eq\n      tag_7\n      jumpi\n      dup1\n      0x5e4c23dc\n      eq\n      tag_8\n      jumpi\n      dup1\n      0x69fea994\n      eq\n      tag_9\n      jumpi\n      dup1\n      0x6f9fb98a\n      eq\n      tag_10\n      jumpi\n      dup1\n      0x715018a6\n      eq\n      tag_11\n      jumpi\n      jump(tag_2)\n    tag_24:\n      dup1\n      0x01a03533\n      eq\n      tag_3\n      jumpi\n      dup1\n      0x11a2b05a\n      eq\n      tag_4\n      jumpi\n      dup1\n      0x16934fc4\n      eq\n      tag_5\n      jumpi\n      dup1\n      0x2e17de78\n      eq\n      tag_6\n      jumpi\n    tag_2:\n      0x00\n      dup1\n      revert\n        /* \"HELMStaking.sol\":2581:2715  function hasTier(address _user, uint256 _minTier) external view returns (bool) {... */\n    tag_3:\n      tag_25\n      0x04\n      dup1\n      calldatasize\n      sub\n      dup2\n      add\n      swap1\n      tag_26\n      swap2\n      swap1\n      tag_27\n      jump\t// in\n    tag_26:\n      tag_28\n      jump\t// in\n    tag_25:\n      mload(0x40)\n      tag_29\n      swap2\n      swap1\n      tag_30\n      jump\t// in\n    tag_29:\n      mload(0x40)\n      dup1\n      swap2\n      sub\n      swap1\n      return\n        /* \"HELMStaking.sol\":774:830  uint256 public constant NAVIGATOR_TIER = 10_000 * 10**18 */\n    tag_4:\n      tag_31\n      tag_32\n      jump\t// in\n    tag_31:\n      mload(0x40)\n      tag_33\n      swap2\n      swap1\n      tag_34\n      jump\t// in\n    tag_33:\n      mload(0x40)\n      dup1\n      swap2\n      sub\n      swap1\n      return\n        /* \"HELMStaking.sol\":1071:1114  mapping(address => StakeInfo) public stakes */\n    tag_5:\n      tag_35\n      0x04\n      dup1\n      calldatasize\n      sub\n      dup2\n      add\n      swap1\n      tag_36\n      swap2\n      swap1\n      tag_37\n      jump\t// in\n    tag_36:\n      tag_38\n      jump\t// in\n    tag_35:\n      mload(0x40)\n      tag_39\n      swap4\n      swap3\n      swap2\n      swap1\n      tag_40\n      jump\t// in\n    tag_39:\n      mload(0x40)\n      dup1\n      swap2\n      sub\n      swap1\n      return\n        /* \"HELMStaking.sol\":4641:5427  function unstake(uint256 _amount) external nonReentrant {... */\n    tag_6:\n      tag_41\n      0x04\n      dup1\n      calldatasize\n      sub\n      dup2\n      add\n      swap1\n      tag_42\n      swap2\n      swap1\n      tag_43\n      jump\t// in\n    tag_42:\n      tag_44\n      jump\t// in\n    tag_41:\n      stop\n        /* \"HELMStaking.sol\":5487:6007  function unstakeAll() external nonReentrant {... */\n    tag_7:\n      tag_45\n      tag_46\n      jump\t// in\n    tag_45:\n      stop\n        /* \"HELMStaking.sol\":699:749  uint256 public constant HELM_TIER = 1_000 * 10**18 */\n    tag_8:\n      tag_47\n      tag_48\n      jump\t// in\n    tag_47:\n      mload(0x40)\n      tag_49\n      swap2\n      swap1\n      tag_34\n      jump\t// in\n    tag_49:\n      mload(0x40)\n      dup1\n      swap2\n      sub\n      swap1\n      return\n        /* \"HELMStaking.sol\":3085:3524  function amountToNextTier(address _user) external view returns (uint256) {... */\n    tag_9:\n      tag_50\n      0x04\n      dup1\n      calldatasize\n      sub\n      dup2\n      add\n      swap1\n      tag_51\n      swap2\n      swap1\n      tag_37\n      jump\t// in\n    tag_51:\n      tag_52\n      jump\t// in\n    tag_50:\n      mload(0x40)\n      tag_53\n      swap2\n      swap1\n      tag_34\n      jump\t// in\n    tag_53:\n      mload(0x40)\n      dup1\n      swap2\n      sub\n      swap1\n      return\n        /* \"HELMStaking.sol\":6543:6663  function getContractBalance() external view returns (uint256) {... */\n    tag_10:\n      tag_54\n      tag_55\n      jump\t// in\n    tag_54:\n      mload(0x40)\n      tag_56\n      swap2\n      swap1\n      tag_34\n      jump\t// in\n    tag_56:\n      mload(0x40)\n      dup1\n      swap2\n      sub\n      swap1\n      return\n        /* \"@openzeppelin/contracts/access/Ownable.sol\":2293:2394   */\n    tag_11:\n      tag_57\n      tag_58\n      jump\t// in\n    tag_57:\n      stop\n        /* \"HELMStaking.sol\":1979:2088  function getStake(address _user) external view returns (uint256) {... */\n    tag_12:\n      tag_59\n      0x04\n      dup1\n      calldatasize\n      sub\n      dup2\n      add\n      swap1\n      tag_60\n      swap2\n      swap1\n      tag_37\n      jump\t// in\n    tag_60:\n      tag_61\n      jump\t// in\n    tag_59:\n      mload(0x40)\n      tag_62\n      swap2\n      swap1\n      tag_34\n      jump\t// in\n    tag_62:\n      mload(0x40)\n      dup1\n      swap2\n      sub\n      swap1\n      return\n        /* \"HELMStaking.sol\":1145:1171  uint256 public totalStaked */\n    tag_13:\n      tag_63\n      tag_64\n      jump\t// in\n    tag_63:\n      mload(0x40)\n      tag_65\n      swap2\n      swap1\n      tag_34\n      jump\t// in\n    tag_65:\n      mload(0x40)\n      dup1\n      swap2\n      sub\n      swap1\n      return\n        /* \"HELMStaking.sol\":851:904  uint256 public constant FLEET_TIER = 100_000 * 10**18 */\n    tag_14:\n      tag_66\n      tag_67\n      jump\t// in\n    tag_66:\n      mload(0x40)\n      tag_68\n      swap2\n      swap1\n      tag_34\n      jump\t// in\n    tag_68:\n      mload(0x40)\n      dup1\n      swap2\n      sub\n      swap1\n      return\n        /* \"@openzeppelin/contracts/access/Ownable.sol\":1638:1723   */\n    tag_15:\n      tag_69\n      tag_70\n      jump\t// in\n    tag_69:\n      mload(0x40)\n      tag_71\n      swap2\n      swap1\n      tag_72\n      jump\t// in\n    tag_71:\n      mload(0x40)\n      dup1\n      swap2\n      sub\n      swap1\n      return\n        /* \"HELMStaking.sol\":2780:3007  function getTierName(uint256 _tier) external pure returns (string memory) {... */\n    tag_16:\n      tag_73\n      0x04\n      dup1\n      calldatasize\n      sub\n      dup2\n      add\n      swap1\n      tag_74\n      swap2\n      swap1\n      tag_43\n      jump\t// in\n    tag_74:\n      tag_75\n      jump\t// in\n    tag_73:\n      mload(0x40)\n      tag_76\n      swap2\n      swap1\n      tag_77\n      jump\t// in\n    tag_76:\n      mload(0x40)\n      dup1\n      swap2\n      sub\n      swap1\n      return\n        /* \"HELMStaking.sol\":602:635  IERC20 public immutable helmToken */\n    tag_17:\n      tag_78\n      tag_79\n      jump\t// in\n    tag_78:\n      mload(0x40)\n      tag_80\n      swap2\n      swap1\n      tag_81\n      jump\t// in\n    tag_80:\n      mload(0x40)\n      dup1\n      swap2\n      sub\n      swap1\n      return\n        /* \"HELMStaking.sol\":3699:4518  function stake(uint256 _amount) external nonReentrant {... */\n    tag_18:\n      tag_82\n      0x04\n      dup1\n      calldatasize\n      sub\n      dup2\n      add\n      swap1\n      tag_83\n      swap2\n      swap1\n      tag_43\n      jump\t// in\n    tag_83:\n      tag_84\n      jump\t// in\n    tag_82:\n      stop\n        /* \"HELMStaking.sol\":6236:6449  function recoverToken(address _token, uint256 _amount) external onlyOwner {... */\n    tag_19:\n      tag_85\n      0x04\n      dup1\n      calldatasize\n      sub\n      dup2\n      add\n      swap1\n      tag_86\n      swap2\n      swap1\n      tag_27\n      jump\t// in\n    tag_86:\n      tag_87\n      jump\t// in\n    tag_85:\n      stop\n        /* \"HELMStaking.sol\":2217:2497  function getTier(address _user) external view returns (uint256) {... */\n    tag_20:\n      tag_88\n      0x04\n      dup1\n      calldatasize\n      sub\n      dup2\n      add\n      swap1\n      tag_89\n      swap2\n      swap1\n      tag_37\n      jump\t// in\n    tag_89:\n      tag_90\n      jump\t// in\n    tag_88:\n      mload(0x40)\n      tag_91\n      swap2\n      swap1\n      tag_34\n      jump\t// in\n    tag_91:\n      mload(0x40)\n      dup1\n      swap2\n      sub\n      swap1\n      return\n        /* \"@openzeppelin/contracts/access/Ownable.sol\":2543:2758   */\n    tag_21:\n      tag_92\n      0x04\n      dup1\n      calldatasize\n      sub\n      dup2\n      add\n      swap1\n      tag_93\n      swap2\n      swap1\n      tag_37\n      jump\t// in\n    tag_93:\n      tag_94\n      jump\t// in\n    tag_92:\n      stop\n        /* \"HELMStaking.sol\":2581:2715  function hasTier(address _user, uint256 _minTier) external view returns (bool) {... */\n    tag_28:\n        /* \"HELMStaking.sol\":2654:2658  bool */\n      0x00\n        /* \"HELMStaking.sol\":2700:2708  _minTier */\n      dup2\n        /* \"HELMStaking.sol\":2677:2681  this */\n      address\n        /* \"HELMStaking.sol\":2677:2689  this.getTier */\n      0xffffffffffffffffffffffffffffffffffffffff\n      and\n      0xb45aae52\n        /* \"HELMStaking.sol\":2690:2695  _user */\n      dup6\n        /* \"HELMStaking.sol\":2677:2696  this.getTier(_user) */\n      mload(0x40)\n      dup3\n      0xffffffff\n      and\n      0xe0\n      shl\n      dup2\n      mstore\n      0x04\n      add\n      tag_96\n      swap2\n      swap1\n      tag_72\n      jump\t// in\n    tag_96:\n      0x20\n      mload(0x40)\n      dup1\n      dup4\n      sub\n      dup2\n      dup7\n      gas\n      staticcall\n      iszero\n      dup1\n      iszero\n      tag_98\n      jumpi\n      returndatasize\n      0x00\n      dup1\n      returndatacopy\n      revert(0x00, returndatasize)\n    tag_98:\n      pop\n      pop\n      pop\n      pop\n      mload(0x40)\n      returndatasize\n      not(0x1f)\n      0x1f\n      dup3\n      add\n      and\n      dup3\n      add\n      dup1\n      0x40\n      mstore\n      pop\n      dup2\n      add\n      swap1\n      tag_99\n      swap2\n      swap1\n      tag_100\n      jump\t// in\n    tag_99:\n        /* \"HELMStaking.sol\":2677:2708  this.getTier(_user) >= _minTier */\n      lt\n      iszero\n        /* \"HELMStaking.sol\":2670:2708  return this.getTier(_user) >= _minTier */\n      swap1\n      pop\n        /* \"HELMStaking.sol\":2581:2715  function hasTier(address _user, uint256 _minTier) external view returns (bool) {... */\n      swap3\n      swap2\n      pop\n      pop\n      jump\t// out\n        /* \"HELMStaking.sol\":774:830  uint256 public constant NAVIGATOR_TIER = 10_000 * 10**18 */\n    tag_32:\n        /* \"HELMStaking.sol\":815:830  10_000 * 10**18 */\n      0x021e19e0c9bab2400000\n        /* \"HELMStaking.sol\":774:830  uint256 public constant NAVIGATOR_TIER = 10_000 * 10**18 */\n      dup2\n      jump\t// out\n        /* \"HELMStaking.sol\":1071:1114  mapping(address => StakeInfo) public stakes */\n    tag_38:\n      mstore(0x20, 0x02)\n      dup1\n      0x00\n      mstore\n      keccak256(0x00, 0x40)\n      0x00\n      swap2\n      pop\n      swap1\n      pop\n      dup1\n      0x00\n      add\n      sload\n      swap1\n      dup1\n      0x01\n      add\n      sload\n      swap1\n      dup1\n      0x02\n      add\n      sload\n      swap1\n      pop\n      dup4\n      jump\t// out\n        /* \"HELMStaking.sol\":4641:5427  function unstake(uint256 _amount) external nonReentrant {... */\n    tag_44:\n        /* \"@openzeppelin/contracts/utils/ReentrancyGuard.sol\":2500:2521   */\n      tag_102\n        /* \"@openzeppelin/contracts/utils/ReentrancyGuard.sol\":2500:2519   */\n      tag_103\n        /* \"@openzeppelin/contracts/utils/ReentrancyGuard.sol\":2500:2521   */\n      jump\t// in\n    tag_102:\n        /* \"HELMStaking.sol\":4707:4734  StakeInfo storage userStake */\n      0x00\n        /* \"HELMStaking.sol\":4737:4743  stakes */\n      0x02\n        /* \"HELMStaking.sol\":4737:4755  stakes[msg.sender] */\n      0x00\n        /* \"HELMStaking.sol\":4744:4754  msg.sender */\n      caller\n        /* \"HELMStaking.sol\":4737:4755  stakes[msg.sender] */\n      0xffffffffffffffffffffffffffffffffffffffff\n      and\n      0xffffffffffffffffffffffffffffffffffffffff\n      and\n      dup2\n      mstore\n      0x20\n      add\n      swap1\n      dup2\n      mstore\n      0x20\n      add\n      0x00\n      keccak256\n        /* \"HELMStaking.sol\":4707:4755  StakeInfo storage userStake = stakes[msg.sender] */\n      swap1\n      pop\n        /* \"HELMStaking.sol\":4798:4799  0 */\n      0x00\n        /* \"HELMStaking.sol\":4778:4787  userStake */\n      dup2\n        /* \"HELMStaking.sol\":4778:4794  userStake.amount */\n      0x00\n      add\n      sload\n        /* \"HELMStaking.sol\":4778:4799  userStake.amount == 0 */\n      sub\n        /* \"HELMStaking.sol\":4774:4822  if (userStake.amount == 0) revert NoStakeFound() */\n      tag_105\n      jumpi\n        /* \"HELMStaking.sol\":4808:4822  NoStakeFound() */\n      mload(0x40)\n      0x59be8f0200000000000000000000000000000000000000000000000000000000\n      dup2\n      mstore\n      0x04\n      add\n      mload(0x40)\n      dup1\n      swap2\n      sub\n      swap1\n      revert\n        /* \"HELMStaking.sol\":4774:4822  if (userStake.amount == 0) revert NoStakeFound() */\n    tag_105:\n        /* \"HELMStaking.sol\":4851:4860  userStake */\n      dup1\n        /* \"HELMStaking.sol\":4851:4867  userStake.amount */\n      0x00\n      add\n      sload\n        /* \"HELMStaking.sol\":4840:4847  _amount */\n      dup3\n        /* \"HELMStaking.sol\":4840:4867  _amount <= userStake.amount */\n      gt\n      iszero\n        /* \"HELMStaking.sol\":4832:4898  require(_amount <= userStake.amount, \"Insufficient staked amount\") */\n      tag_106\n      jumpi\n      mload(0x40)\n      0x08c379a000000000000000000000000000000000000000000000000000000000\n      dup2\n      mstore\n      0x04\n      add\n      tag_107\n      swap1\n      tag_108\n      jump\t// in\n    tag_107:\n      mload(0x40)\n      dup1\n      swap2\n      sub\n      swap1\n      revert\n    tag_106:\n        /* \"HELMStaking.sol\":4917:4937  uint256 previousTier */\n      0x00\n        /* \"HELMStaking.sol\":4940:4944  this */\n      address\n        /* \"HELMStaking.sol\":4940:4952  this.getTier */\n      0xffffffffffffffffffffffffffffffffffffffff\n      and\n      0xb45aae52\n        /* \"HELMStaking.sol\":4953:4963  msg.sender */\n      caller\n        /* \"HELMStaking.sol\":4940:4964  this.getTier(msg.sender) */\n      mload(0x40)\n      dup3\n      0xffffffff\n      and\n      0xe0\n      shl\n      dup2\n      mstore\n      0x04\n      add\n      tag_109\n      swap2\n      swap1\n      tag_72\n      jump\t// in\n    tag_109:\n      0x20\n      mload(0x40)\n      dup1\n      dup4\n      sub\n      dup2\n      dup7\n      gas\n      staticcall\n      iszero\n      dup1\n      iszero\n      tag_111\n      jumpi\n      returndatasize\n      0x00\n      dup1\n      returndatacopy\n      revert(0x00, returndatasize)\n    tag_111:\n      pop\n      pop\n      pop\n      pop\n      mload(0x40)\n      returndatasize\n      not(0x1f)\n      0x1f\n      dup3\n      add\n      and\n      dup3\n      add\n      dup1\n      0x40\n      mstore\n      pop\n      dup2\n      add\n      swap1\n      tag_112\n      swap2\n      swap1\n      tag_100\n      jump\t// in\n    tag_112:\n        /* \"HELMStaking.sol\":4917:4964  uint256 previousTier = this.getTier(msg.sender) */\n      swap1\n      pop\n        /* \"HELMStaking.sol\":5027:5034  _amount */\n      dup3\n        /* \"HELMStaking.sol\":5007:5016  userStake */\n      dup3\n        /* \"HELMStaking.sol\":5007:5023  userStake.amount */\n      0x00\n      add\n      0x00\n        /* \"HELMStaking.sol\":5007:5034  userStake.amount -= _amount */\n      dup3\n      dup3\n      sload\n      tag_113\n      swap2\n      swap1\n      tag_114\n      jump\t// in\n    tag_113:\n      swap3\n      pop\n      pop\n      dup2\n      swap1\n      sstore\n      pop\n        /* \"HELMStaking.sol\":5059:5066  _amount */\n      dup3\n        /* \"HELMStaking.sol\":5044:5055  totalStaked */\n      0x03\n      0x00\n        /* \"HELMStaking.sol\":5044:5066  totalStaked -= _amount */\n      dup3\n      dup3\n      sload\n      tag_115\n      swap2\n      swap1\n      tag_114\n      jump\t// in\n    tag_115:\n      swap3\n      pop\n      pop\n      dup2\n      swap1\n      sstore\n      pop\n        /* \"HELMStaking.sol\":5125:5168  helmToken.safeTransfer(msg.sender, _amount) */\n      tag_116\n        /* \"HELMStaking.sol\":5148:5158  msg.sender */\n      caller\n        /* \"HELMStaking.sol\":5160:5167  _amount */\n      dup5\n        /* \"HELMStaking.sol\":5125:5134  helmToken */\n      immutable(\"0x277ab82e5a4641341820a4a2933a62c1de997e42e92548657ae21b3728d580fe\")\n        /* \"HELMStaking.sol\":5125:5147  helmToken.safeTransfer */\n      0xffffffffffffffffffffffffffffffffffffffff\n      and\n      tag_117\n      swap1\n        /* \"HELMStaking.sol\":5125:5168  helmToken.safeTransfer(msg.sender, _amount) */\n      swap3\n      swap2\n      swap1\n      0xffffffff\n      and\n      jump\t// in\n    tag_116:\n        /* \"HELMStaking.sol\":5223:5238  uint256 newTier */\n      0x00\n        /* \"HELMStaking.sol\":5241:5245  this */\n      address\n        /* \"HELMStaking.sol\":5241:5253  this.getTier */\n      0xffffffffffffffffffffffffffffffffffffffff\n      and\n      0xb45aae52\n        /* \"HELMStaking.sol\":5254:5264  msg.sender */\n      caller\n        /* \"HELMStaking.sol\":5241:5265  this.getTier(msg.sender) */\n      mload(0x40)\n      dup3\n      0xffffffff\n      and\n      0xe0\n      shl\n      dup2\n      mstore\n      0x04\n      add\n      tag_118\n      swap2\n      swap1\n      tag_72\n      jump\t// in\n    tag_118:\n      0x20\n      mload(0x40)\n      dup1\n      dup4\n      sub\n      dup2\n      dup7\n      gas\n      staticcall\n      iszero\n      dup1\n      iszero\n      tag_120\n      jumpi\n      returndatasize\n      0x00\n      dup1\n      returndatacopy\n      revert(0x00, returndatasize)\n    tag_120:\n      pop\n      pop\n      pop\n      pop\n      mload(0x40)\n      returndatasize\n      not(0x1f)\n      0x1f\n      dup3\n      add\n      and\n      dup3\n      add\n      dup1\n      0x40\n      mstore\n      pop\n      dup2\n      add\n      swap1\n      tag_121\n      swap2\n      swap1\n      tag_100\n      jump\t// in\n    tag_121:\n        /* \"HELMStaking.sol\":5223:5265  uint256 newTier = this.getTier(msg.sender) */\n      swap1\n      pop\n        /* \"HELMStaking.sol\":5289:5301  previousTier */\n      dup2\n        /* \"HELMStaking.sol\":5279:5286  newTier */\n      dup2\n        /* \"HELMStaking.sol\":5279:5301  newTier < previousTier */\n      lt\n        /* \"HELMStaking.sol\":5275:5368  if (newTier < previousTier) {... */\n      iszero\n      tag_122\n      jumpi\n        /* \"HELMStaking.sol\":5337:5347  msg.sender */\n      caller\n        /* \"HELMStaking.sol\":5322:5357  TierDowngraded(msg.sender, newTier) */\n      0xffffffffffffffffffffffffffffffffffffffff\n      and\n      0x870c88666ddfd96dc1bcc353170570ad18a5ddec6ab988c1abb5f71823984ec4\n        /* \"HELMStaking.sol\":5349:5356  newTier */\n      dup3\n        /* \"HELMStaking.sol\":5322:5357  TierDowngraded(msg.sender, newTier) */\n      mload(0x40)\n      tag_123\n      swap2\n      swap1\n      tag_34\n      jump\t// in\n    tag_123:\n      mload(0x40)\n      dup1\n      swap2\n      sub\n      swap1\n      log2\n        /* \"HELMStaking.sol\":5275:5368  if (newTier < previousTier) {... */\n    tag_122:\n        /* \"HELMStaking.sol\":5400:5410  msg.sender */\n      caller\n        /* \"HELMStaking.sol\":5391:5420  Unstaked(msg.sender, _amount) */\n      0xffffffffffffffffffffffffffffffffffffffff\n      and\n      0x0f5bb82176feb1b5e747e28471aa92156a04d9f3ab9f45f28e2d704232b93f75\n        /* \"HELMStaking.sol\":5412:5419  _amount */\n      dup6\n        /* \"HELMStaking.sol\":5391:5420  Unstaked(msg.sender, _amount) */\n      mload(0x40)\n      tag_124\n      swap2\n      swap1\n      tag_34\n      jump\t// in\n    tag_124:\n      mload(0x40)\n      dup1\n      swap2\n      sub\n      swap1\n      log2\n        /* \"HELMStaking.sol\":4697:5427  {... */\n      pop\n      pop\n      pop\n        /* \"@openzeppelin/contracts/utils/ReentrancyGuard.sol\":2542:2562   */\n      tag_125\n        /* \"@openzeppelin/contracts/utils/ReentrancyGuard.sol\":2542:2560   */\n      tag_126\n        /* \"@openzeppelin/contracts/utils/ReentrancyGuard.sol\":2542:2562   */\n      jump\t// in\n    tag_125:\n        /* \"HELMStaking.sol\":4641:5427  function unstake(uint256 _amount) external nonReentrant {... */\n      pop\n      jump\t// out\n        /* \"HELMStaking.sol\":5487:6007  function unstakeAll() external nonReentrant {... */\n    tag_46:\n        /* \"@openzeppelin/contracts/utils/ReentrancyGuard.sol\":2500:2521   */\n      tag_128\n        /* \"@openzeppelin/contracts/utils/ReentrancyGuard.sol\":2500:2519   */\n      tag_103\n        /* \"@openzeppelin/contracts/utils/ReentrancyGuard.sol\":2500:2521   */\n      jump\t// in\n    tag_128:\n        /* \"HELMStaking.sol\":5541:5568  StakeInfo storage userStake */\n      0x00\n        /* \"HELMStaking.sol\":5571:5577  stakes */\n      0x02\n        /* \"HELMStaking.sol\":5571:5589  stakes[msg.sender] */\n      0x00\n        /* \"HELMStaking.sol\":5578:5588  msg.sender */\n      caller\n        /* \"HELMStaking.sol\":5571:5589  stakes[msg.sender] */\n      0xffffffffffffffffffffffffffffffffffffffff\n      and\n      0xffffffffffffffffffffffffffffffffffffffff\n      and\n      dup2\n      mstore\n      0x20\n      add\n      swap1\n      dup2\n      mstore\n      0x20\n      add\n      0x00\n      keccak256\n        /* \"HELMStaking.sol\":5541:5589  StakeInfo storage userStake = stakes[msg.sender] */\n      swap1\n      pop\n        /* \"HELMStaking.sol\":5599:5613  uint256 amount */\n      0x00\n        /* \"HELMStaking.sol\":5616:5625  userStake */\n      dup2\n        /* \"HELMStaking.sol\":5616:5632  userStake.amount */\n      0x00\n      add\n      sload\n        /* \"HELMStaking.sol\":5599:5632  uint256 amount = userStake.amount */\n      swap1\n      pop\n        /* \"HELMStaking.sol\":5665:5666  0 */\n      0x00\n        /* \"HELMStaking.sol\":5655:5661  amount */\n      dup2\n        /* \"HELMStaking.sol\":5655:5666  amount == 0 */\n      sub\n        /* \"HELMStaking.sol\":5651:5689  if (amount == 0) revert NoStakeFound() */\n      tag_130\n      jumpi\n        /* \"HELMStaking.sol\":5675:5689  NoStakeFound() */\n      mload(0x40)\n      0x59be8f0200000000000000000000000000000000000000000000000000000000\n      dup2\n      mstore\n      0x04\n      add\n      mload(0x40)\n      dup1\n      swap2\n      sub\n      swap1\n      revert\n        /* \"HELMStaking.sol\":5651:5689  if (amount == 0) revert NoStakeFound() */\n    tag_130:\n        /* \"HELMStaking.sol\":5750:5751  0 */\n      0x00\n        /* \"HELMStaking.sol\":5731:5740  userStake */\n      dup3\n        /* \"HELMStaking.sol\":5731:5747  userStake.amount */\n      0x00\n      add\n        /* \"HELMStaking.sol\":5731:5751  userStake.amount = 0 */\n      dup2\n      swap1\n      sstore\n      pop\n        /* \"HELMStaking.sol\":5779:5780  0 */\n      0x00\n        /* \"HELMStaking.sol\":5761:5770  userStake */\n      dup3\n        /* \"HELMStaking.sol\":5761:5776  userStake.since */\n      0x01\n      add\n        /* \"HELMStaking.sol\":5761:5780  userStake.since = 0 */\n      dup2\n      swap1\n      sstore\n      pop\n        /* \"HELMStaking.sol\":5805:5811  amount */\n      dup1\n        /* \"HELMStaking.sol\":5790:5801  totalStaked */\n      0x03\n      0x00\n        /* \"HELMStaking.sol\":5790:5811  totalStaked -= amount */\n      dup3\n      dup3\n      sload\n      tag_131\n      swap2\n      swap1\n      tag_114\n      jump\t// in\n    tag_131:\n      swap3\n      pop\n      pop\n      dup2\n      swap1\n      sstore\n      pop\n        /* \"HELMStaking.sol\":5862:5904  helmToken.safeTransfer(msg.sender, amount) */\n      tag_132\n        /* \"HELMStaking.sol\":5885:5895  msg.sender */\n      caller\n        /* \"HELMStaking.sol\":5897:5903  amount */\n      dup3\n        /* \"HELMStaking.sol\":5862:5871  helmToken */\n      immutable(\"0x277ab82e5a4641341820a4a2933a62c1de997e42e92548657ae21b3728d580fe\")\n        /* \"HELMStaking.sol\":5862:5884  helmToken.safeTransfer */\n      0xffffffffffffffffffffffffffffffffffffffff\n      and\n      tag_117\n      swap1\n        /* \"HELMStaking.sol\":5862:5904  helmToken.safeTransfer(msg.sender, amount) */\n      swap3\n      swap2\n      swap1\n      0xffffffff\n      and\n      jump\t// in\n    tag_132:\n        /* \"HELMStaking.sol\":5943:5953  msg.sender */\n      caller\n        /* \"HELMStaking.sol\":5928:5957  TierDowngraded(msg.sender, 0) */\n      0xffffffffffffffffffffffffffffffffffffffff\n      and\n      0x870c88666ddfd96dc1bcc353170570ad18a5ddec6ab988c1abb5f71823984ec4\n        /* \"HELMStaking.sol\":5955:5956  0 */\n      0x00\n        /* \"HELMStaking.sol\":5928:5957  TierDowngraded(msg.sender, 0) */\n      mload(0x40)\n      tag_133\n      swap2\n      swap1\n      tag_134\n      jump\t// in\n    tag_133:\n      mload(0x40)\n      dup1\n      swap2\n      sub\n      swap1\n      log2\n        /* \"HELMStaking.sol\":5981:5991  msg.sender */\n      caller\n        /* \"HELMStaking.sol\":5972:6000  Unstaked(msg.sender, amount) */\n      0xffffffffffffffffffffffffffffffffffffffff\n      and\n      0x0f5bb82176feb1b5e747e28471aa92156a04d9f3ab9f45f28e2d704232b93f75\n        /* \"HELMStaking.sol\":5993:5999  amount */\n      dup3\n        /* \"HELMStaking.sol\":5972:6000  Unstaked(msg.sender, amount) */\n      mload(0x40)\n      tag_135\n      swap2\n      swap1\n      tag_34\n      jump\t// in\n    tag_135:\n      mload(0x40)\n      dup1\n      swap2\n      sub\n      swap1\n      log2\n        /* \"HELMStaking.sol\":5531:6007  {... */\n      pop\n      pop\n        /* \"@openzeppelin/contracts/utils/ReentrancyGuard.sol\":2542:2562   */\n      tag_136\n        /* \"@openzeppelin/contracts/utils/ReentrancyGuard.sol\":2542:2560   */\n      tag_126\n        /* \"@openzeppelin/contracts/utils/ReentrancyGuard.sol\":2542:2562   */\n      jump\t// in\n    tag_136:\n        /* \"HELMStaking.sol\":5487:6007  function unstakeAll() external nonReentrant {... */\n      jump\t// out\n        /* \"HELMStaking.sol\":699:749  uint256 public constant HELM_TIER = 1_000 * 10**18 */\n    tag_48:\n        /* \"HELMStaking.sol\":735:749  1_000 * 10**18 */\n      0x3635c9adc5dea00000\n        /* \"HELMStaking.sol\":699:749  uint256 public constant HELM_TIER = 1_000 * 10**18 */\n      dup2\n      jump\t// out\n        /* \"HELMStaking.sol\":3085:3524  function amountToNextTier(address _user) external view returns (uint256) {... */\n    tag_52:\n        /* \"HELMStaking.sol\":3149:3156  uint256 */\n      0x00\n        /* \"HELMStaking.sol\":3168:3183  uint256 current */\n      dup1\n        /* \"HELMStaking.sol\":3186:3192  stakes */\n      0x02\n        /* \"HELMStaking.sol\":3186:3199  stakes[_user] */\n      0x00\n        /* \"HELMStaking.sol\":3193:3198  _user */\n      dup5\n        /* \"HELMStaking.sol\":3186:3199  stakes[_user] */\n      0xffffffffffffffffffffffffffffffffffffffff\n      and\n      0xffffffffffffffffffffffffffffffffffffffff\n      and\n      dup2\n      mstore\n      0x20\n      add\n      swap1\n      dup2\n      mstore\n      0x20\n      add\n      0x00\n      keccak256\n        /* \"HELMStaking.sol\":3186:3206  stakes[_user].amount */\n      0x00\n      add\n      sload\n        /* \"HELMStaking.sol\":3168:3206  uint256 current = stakes[_user].amount */\n      swap1\n      pop\n        /* \"HELMStaking.sol\":735:749  1_000 * 10**18 */\n      0x3635c9adc5dea00000\n        /* \"HELMStaking.sol\":3229:3236  current */\n      dup2\n        /* \"HELMStaking.sol\":3229:3248  current < HELM_TIER */\n      lt\n        /* \"HELMStaking.sol\":3225:3477  if (current < HELM_TIER) {... */\n      iszero\n      tag_138\n      jumpi\n        /* \"HELMStaking.sol\":3283:3290  current */\n      dup1\n        /* \"HELMStaking.sol\":735:749  1_000 * 10**18 */\n      0x3635c9adc5dea00000\n        /* \"HELMStaking.sol\":3271:3290  HELM_TIER - current */\n      tag_139\n      swap2\n      swap1\n      tag_114\n      jump\t// in\n    tag_139:\n        /* \"HELMStaking.sol\":3264:3290  return HELM_TIER - current */\n      swap2\n      pop\n      pop\n      jump(tag_137)\n        /* \"HELMStaking.sol\":3225:3477  if (current < HELM_TIER) {... */\n    tag_138:\n        /* \"HELMStaking.sol\":815:830  10_000 * 10**18 */\n      0x021e19e0c9bab2400000\n        /* \"HELMStaking.sol\":3311:3318  current */\n      dup2\n        /* \"HELMStaking.sol\":3311:3335  current < NAVIGATOR_TIER */\n      lt\n        /* \"HELMStaking.sol\":3307:3477  if (current < NAVIGATOR_TIER) {... */\n      iszero\n      tag_141\n      jumpi\n        /* \"HELMStaking.sol\":3375:3382  current */\n      dup1\n        /* \"HELMStaking.sol\":815:830  10_000 * 10**18 */\n      0x021e19e0c9bab2400000\n        /* \"HELMStaking.sol\":3358:3382  NAVIGATOR_TIER - current */\n      tag_142\n      swap2\n      swap1\n      tag_114\n      jump\t// in\n    tag_142:\n        /* \"HELMStaking.sol\":3351:3382  return NAVIGATOR_TIER - current */\n      swap2\n      pop\n      pop\n      jump(tag_137)\n        /* \"HELMStaking.sol\":3307:3477  if (current < NAVIGATOR_TIER) {... */\n    tag_141:\n        /* \"HELMStaking.sol\":888:904  100_000 * 10**18 */\n      0x152d02c7e14af6800000\n        /* \"HELMStaking.sol\":3403:3410  current */\n      dup2\n        /* \"HELMStaking.sol\":3403:3423  current < FLEET_TIER */\n      lt\n        /* \"HELMStaking.sol\":3399:3477  if (current < FLEET_TIER) {... */\n      iszero\n      tag_144\n      jumpi\n        /* \"HELMStaking.sol\":3459:3466  current */\n      dup1\n        /* \"HELMStaking.sol\":888:904  100_000 * 10**18 */\n      0x152d02c7e14af6800000\n        /* \"HELMStaking.sol\":3446:3466  FLEET_TIER - current */\n      tag_145\n      swap2\n      swap1\n      tag_114\n      jump\t// in\n    tag_145:\n        /* \"HELMStaking.sol\":3439:3466  return FLEET_TIER - current */\n      swap2\n      pop\n      pop\n      jump(tag_137)\n        /* \"HELMStaking.sol\":3399:3477  if (current < FLEET_TIER) {... */\n    tag_144:\n        /* \"HELMStaking.sol\":3493:3494  0 */\n      0x00\n        /* \"HELMStaking.sol\":3486:3494  return 0 */\n      swap2\n      pop\n      pop\n        /* \"HELMStaking.sol\":3085:3524  function amountToNextTier(address _user) external view returns (uint256) {... */\n    tag_137:\n      swap2\n      swap1\n      pop\n      jump\t// out\n        /* \"HELMStaking.sol\":6543:6663  function getContractBalance() external view returns (uint256) {... */\n    tag_55:\n        /* \"HELMStaking.sol\":6596:6603  uint256 */\n      0x00\n        /* \"HELMStaking.sol\":6622:6631  helmToken */\n      immutable(\"0x277ab82e5a4641341820a4a2933a62c1de997e42e92548657ae21b3728d580fe\")\n        /* \"HELMStaking.sol\":6622:6641  helmToken.balanceOf */\n      0xffffffffffffffffffffffffffffffffffffffff\n      and\n      0x70a08231\n        /* \"HELMStaking.sol\":6650:6654  this */\n      address\n        /* \"HELMStaking.sol\":6622:6656  helmToken.balanceOf(address(this)) */\n      mload(0x40)\n      dup3\n      0xffffffff\n      and\n      0xe0\n      shl\n      dup2\n      mstore\n      0x04\n      add\n      tag_147\n      swap2\n      swap1\n      tag_72\n      jump\t// in\n    tag_147:\n      0x20\n      mload(0x40)\n      dup1\n      dup4\n      sub\n      dup2\n      dup7\n      gas\n      staticcall\n      iszero\n      dup1\n      iszero\n      tag_149\n      jumpi\n      returndatasize\n      0x00\n      dup1\n      returndatacopy\n      revert(0x00, returndatasize)\n    tag_149:\n      pop\n      pop\n      pop\n      pop\n      mload(0x40)\n      returndatasize\n      not(0x1f)\n      0x1f\n      dup3\n      add\n      and\n      dup3\n      add\n      dup1\n      0x40\n      mstore\n      pop\n      dup2\n      add\n      swap1\n      tag_150\n      swap2\n      swap1\n      tag_100\n      jump\t// in\n    tag_150:\n        /* \"HELMStaking.sol\":6615:6656  return helmToken.balanceOf(address(this)) */\n      swap1\n      pop\n        /* \"HELMStaking.sol\":6543:6663  function getContractBalance() external view returns (uint256) {... */\n      swap1\n      jump\t// out\n        /* \"@openzeppelin/contracts/access/Ownable.sol\":2293:2394   */\n    tag_58:\n        /* \"@openzeppelin/contracts/access/Ownable.sol\":1531:1544   */\n      tag_152\n        /* \"@openzeppelin/contracts/access/Ownable.sol\":1531:1542   */\n      tag_153\n        /* \"@openzeppelin/contracts/access/Ownable.sol\":1531:1544   */\n      jump\t// in\n    tag_152:\n        /* \"@openzeppelin/contracts/access/Ownable.sol\":2357:2387   */\n      tag_155\n        /* \"@openzeppelin/contracts/access/Ownable.sol\":2384:2385   */\n      0x00\n        /* \"@openzeppelin/contracts/access/Ownable.sol\":2357:2375   */\n      tag_156\n        /* \"@openzeppelin/contracts/access/Ownable.sol\":2357:2387   */\n      jump\t// in\n    tag_155:\n        /* \"@openzeppelin/contracts/access/Ownable.sol\":2293:2394   */\n      jump\t// out\n        /* \"HELMStaking.sol\":1979:2088  function getStake(address _user) external view returns (uint256) {... */\n    tag_61:\n        /* \"HELMStaking.sol\":2035:2042  uint256 */\n      0x00\n        /* \"HELMStaking.sol\":2061:2067  stakes */\n      0x02\n        /* \"HELMStaking.sol\":2061:2074  stakes[_user] */\n      0x00\n        /* \"HELMStaking.sol\":2068:2073  _user */\n      dup4\n        /* \"HELMStaking.sol\":2061:2074  stakes[_user] */\n      0xffffffffffffffffffffffffffffffffffffffff\n      and\n      0xffffffffffffffffffffffffffffffffffffffff\n      and\n      dup2\n      mstore\n      0x20\n      add\n      swap1\n      dup2\n      mstore\n      0x20\n      add\n      0x00\n      keccak256\n        /* \"HELMStaking.sol\":2061:2081  stakes[_user].amount */\n      0x00\n      add\n      sload\n        /* \"HELMStaking.sol\":2054:2081  return stakes[_user].amount */\n      swap1\n      pop\n        /* \"HELMStaking.sol\":1979:2088  function getStake(address _user) external view returns (uint256) {... */\n      swap2\n      swap1\n      pop\n      jump\t// out\n        /* \"HELMStaking.sol\":1145:1171  uint256 public totalStaked */\n    tag_64:\n      sload(0x03)\n      dup2\n      jump\t// out\n        /* \"HELMStaking.sol\":851:904  uint256 public constant FLEET_TIER = 100_000 * 10**18 */\n    tag_67:\n        /* \"HELMStaking.sol\":888:904  100_000 * 10**18 */\n      0x152d02c7e14af6800000\n        /* \"HELMStaking.sol\":851:904  uint256 public constant FLEET_TIER = 100_000 * 10**18 */\n      dup2\n      jump\t// out\n        /* \"@openzeppelin/contracts/access/Ownable.sol\":1638:1723   */\n    tag_70:\n        /* \"@openzeppelin/contracts/access/Ownable.sol\":1684:1691   */\n      0x00\n        /* \"@openzeppelin/contracts/access/Ownable.sol\":1710:1716   */\n      dup1\n      0x00\n      swap1\n      sload\n      swap1\n      0x0100\n      exp\n      swap1\n      div\n      0xffffffffffffffffffffffffffffffffffffffff\n      and\n        /* \"@openzeppelin/contracts/access/Ownable.sol\":1703:1716   */\n      swap1\n      pop\n        /* \"@openzeppelin/contracts/access/Ownable.sol\":1638:1723   */\n      swap1\n      jump\t// out\n        /* \"HELMStaking.sol\":2780:3007  function getTierName(uint256 _tier) external pure returns (string memory) {... */\n    tag_75:\n        /* \"HELMStaking.sol\":2839:2852  string memory */\n      0x60\n        /* \"HELMStaking.sol\":2877:2878  3 */\n      0x03\n        /* \"HELMStaking.sol\":2868:2873  _tier */\n      dup3\n        /* \"HELMStaking.sol\":2868:2878  _tier == 3 */\n      sub\n        /* \"HELMStaking.sol\":2864:2894  if (_tier == 3) return \"Fleet\" */\n      tag_160\n      jumpi\n        /* \"HELMStaking.sol\":2880:2894  return \"Fleet\" */\n      mload(0x40)\n      dup1\n      0x40\n      add\n      0x40\n      mstore\n      dup1\n      0x05\n      dup2\n      mstore\n      0x20\n      add\n      0x466c656574000000000000000000000000000000000000000000000000000000\n      dup2\n      mstore\n      pop\n      swap1\n      pop\n      jump(tag_159)\n        /* \"HELMStaking.sol\":2864:2894  if (_tier == 3) return \"Fleet\" */\n    tag_160:\n        /* \"HELMStaking.sol\":2917:2918  2 */\n      0x02\n        /* \"HELMStaking.sol\":2908:2913  _tier */\n      dup3\n        /* \"HELMStaking.sol\":2908:2918  _tier == 2 */\n      sub\n        /* \"HELMStaking.sol\":2904:2938  if (_tier == 2) return \"Navigator\" */\n      tag_161\n      jumpi\n        /* \"HELMStaking.sol\":2920:2938  return \"Navigator\" */\n      mload(0x40)\n      dup1\n      0x40\n      add\n      0x40\n      mstore\n      dup1\n      0x09\n      dup2\n      mstore\n      0x20\n      add\n      0x4e6176696761746f720000000000000000000000000000000000000000000000\n      dup2\n      mstore\n      pop\n      swap1\n      pop\n      jump(tag_159)\n        /* \"HELMStaking.sol\":2904:2938  if (_tier == 2) return \"Navigator\" */\n    tag_161:\n        /* \"HELMStaking.sol\":2961:2962  1 */\n      0x01\n        /* \"HELMStaking.sol\":2952:2957  _tier */\n      dup3\n        /* \"HELMStaking.sol\":2952:2962  _tier == 1 */\n      sub\n        /* \"HELMStaking.sol\":2948:2977  if (_tier == 1) return \"HELM\" */\n      tag_162\n      jumpi\n        /* \"HELMStaking.sol\":2964:2977  return \"HELM\" */\n      mload(0x40)\n      dup1\n      0x40\n      add\n      0x40\n      mstore\n      dup1\n      0x04\n      dup2\n      mstore\n      0x20\n      add\n      0x48454c4d00000000000000000000000000000000000000000000000000000000\n      dup2\n      mstore\n      pop\n      swap1\n      pop\n      jump(tag_159)\n        /* \"HELMStaking.sol\":2948:2977  if (_tier == 1) return \"HELM\" */\n    tag_162:\n        /* \"HELMStaking.sol\":2987:3000  return \"Free\" */\n      mload(0x40)\n      dup1\n      0x40\n      add\n      0x40\n      mstore\n      dup1\n      0x04\n      dup2\n      mstore\n      0x20\n      add\n      0x4672656500000000000000000000000000000000000000000000000000000000\n      dup2\n      mstore\n      pop\n      swap1\n      pop\n        /* \"HELMStaking.sol\":2780:3007  function getTierName(uint256 _tier) external pure returns (string memory) {... */\n    tag_159:\n      swap2\n      swap1\n      pop\n      jump\t// out\n        /* \"HELMStaking.sol\":602:635  IERC20 public immutable helmToken */\n    tag_79:\n      immutable(\"0x277ab82e5a4641341820a4a2933a62c1de997e42e92548657ae21b3728d580fe\")\n      dup2\n      jump\t// out\n        /* \"HELMStaking.sol\":3699:4518  function stake(uint256 _amount) external nonReentrant {... */\n    tag_84:\n        /* \"@openzeppelin/contracts/utils/ReentrancyGuard.sol\":2500:2521   */\n      tag_164\n        /* \"@openzeppelin/contracts/utils/ReentrancyGuard.sol\":2500:2519   */\n      tag_103\n        /* \"@openzeppelin/contracts/utils/ReentrancyGuard.sol\":2500:2521   */\n      jump\t// in\n    tag_164:\n        /* \"HELMStaking.sol\":3781:3782  0 */\n      0x00\n        /* \"HELMStaking.sol\":3771:3778  _amount */\n      dup2\n        /* \"HELMStaking.sol\":3771:3782  _amount > 0 */\n      gt\n        /* \"HELMStaking.sol\":3763:3801  require(_amount > 0, \"Cannot stake 0\") */\n      tag_166\n      jumpi\n      mload(0x40)\n      0x08c379a000000000000000000000000000000000000000000000000000000000\n      dup2\n      mstore\n      0x04\n      add\n      tag_167\n      swap1\n      tag_168\n      jump\t// in\n    tag_167:\n      mload(0x40)\n      dup1\n      swap2\n      sub\n      swap1\n      revert\n    tag_166:\n        /* \"HELMStaking.sol\":3820:3840  uint256 previousTier */\n      0x00\n        /* \"HELMStaking.sol\":3843:3847  this */\n      address\n        /* \"HELMStaking.sol\":3843:3855  this.getTier */\n      0xffffffffffffffffffffffffffffffffffffffff\n      and\n      0xb45aae52\n        /* \"HELMStaking.sol\":3856:3866  msg.sender */\n      caller\n        /* \"HELMStaking.sol\":3843:3867  this.getTier(msg.sender) */\n      mload(0x40)\n      dup3\n      0xffffffff\n      and\n      0xe0\n      shl\n      dup2\n      mstore\n      0x04\n      add\n      tag_169\n      swap2\n      swap1\n      tag_72\n      jump\t// in\n    tag_169:\n      0x20\n      mload(0x40)\n      dup1\n      dup4\n      sub\n      dup2\n      dup7\n      gas\n      staticcall\n      iszero\n      dup1\n      iszero\n      tag_171\n      jumpi\n      returndatasize\n      0x00\n      dup1\n      returndatacopy\n      revert(0x00, returndatasize)\n    tag_171:\n      pop\n      pop\n      pop\n      pop\n      mload(0x40)\n      returndatasize\n      not(0x1f)\n      0x1f\n      dup3\n      add\n      and\n      dup3\n      add\n      dup1\n      0x40\n      mstore\n      pop\n      dup2\n      add\n      swap1\n      tag_172\n      swap2\n      swap1\n      tag_100\n      jump\t// in\n    tag_172:\n        /* \"HELMStaking.sol\":3820:3867  uint256 previousTier = this.getTier(msg.sender) */\n      swap1\n      pop\n        /* \"HELMStaking.sol\":3923:3985  helmToken.safeTransferFrom(msg.sender, address(this), _amount) */\n      tag_173\n        /* \"HELMStaking.sol\":3950:3960  msg.sender */\n      caller\n        /* \"HELMStaking.sol\":3970:3974  this */\n      address\n        /* \"HELMStaking.sol\":3977:3984  _amount */\n      dup5\n        /* \"HELMStaking.sol\":3923:3932  helmToken */\n      immutable(\"0x277ab82e5a4641341820a4a2933a62c1de997e42e92548657ae21b3728d580fe\")\n        /* \"HELMStaking.sol\":3923:3949  helmToken.safeTransferFrom */\n      0xffffffffffffffffffffffffffffffffffffffff\n      and\n      tag_174\n      swap1\n        /* \"HELMStaking.sol\":3923:3985  helmToken.safeTransferFrom(msg.sender, address(this), _amount) */\n      swap4\n      swap3\n      swap2\n      swap1\n      0xffffffff\n      and\n      jump\t// in\n    tag_173:\n        /* \"HELMStaking.sol\":4028:4055  StakeInfo storage userStake */\n      0x00\n        /* \"HELMStaking.sol\":4058:4064  stakes */\n      0x02\n        /* \"HELMStaking.sol\":4058:4076  stakes[msg.sender] */\n      0x00\n        /* \"HELMStaking.sol\":4065:4075  msg.sender */\n      caller\n        /* \"HELMStaking.sol\":4058:4076  stakes[msg.sender] */\n      0xffffffffffffffffffffffffffffffffffffffff\n      and\n      0xffffffffffffffffffffffffffffffffffffffff\n      and\n      dup2\n      mstore\n      0x20\n      add\n      swap1\n      dup2\n      mstore\n      0x20\n      add\n      0x00\n      keccak256\n        /* \"HELMStaking.sol\":4028:4076  StakeInfo storage userStake = stakes[msg.sender] */\n      swap1\n      pop\n        /* \"HELMStaking.sol\":4106:4113  _amount */\n      dup3\n        /* \"HELMStaking.sol\":4086:4095  userStake */\n      dup2\n        /* \"HELMStaking.sol\":4086:4102  userStake.amount */\n      0x00\n      add\n      0x00\n        /* \"HELMStaking.sol\":4086:4113  userStake.amount += _amount */\n      dup3\n      dup3\n      sload\n      tag_175\n      swap2\n      swap1\n      tag_176\n      jump\t// in\n    tag_175:\n      swap3\n      pop\n      pop\n      dup2\n      swap1\n      sstore\n      pop\n        /* \"HELMStaking.sol\":4155:4156  0 */\n      0x00\n        /* \"HELMStaking.sol\":4136:4145  userStake */\n      dup2\n        /* \"HELMStaking.sol\":4136:4151  userStake.since */\n      0x01\n      add\n      sload\n        /* \"HELMStaking.sol\":4136:4156  userStake.since == 0 */\n      sub\n        /* \"HELMStaking.sol\":4132:4216  if (userStake.since == 0) {... */\n      tag_177\n      jumpi\n        /* \"HELMStaking.sol\":4190:4205  block.timestamp */\n      timestamp\n        /* \"HELMStaking.sol\":4172:4181  userStake */\n      dup2\n        /* \"HELMStaking.sol\":4172:4187  userStake.since */\n      0x01\n      add\n        /* \"HELMStaking.sol\":4172:4205  userStake.since = block.timestamp */\n      dup2\n      swap1\n      sstore\n      pop\n        /* \"HELMStaking.sol\":4132:4216  if (userStake.since == 0) {... */\n    tag_177:\n        /* \"HELMStaking.sol\":4249:4256  _amount */\n      dup3\n        /* \"HELMStaking.sol\":4234:4245  totalStaked */\n      0x03\n      0x00\n        /* \"HELMStaking.sol\":4234:4256  totalStaked += _amount */\n      dup3\n      dup3\n      sload\n      tag_178\n      swap2\n      swap1\n      tag_176\n      jump\t// in\n    tag_178:\n      swap3\n      pop\n      pop\n      dup2\n      swap1\n      sstore\n      pop\n        /* \"HELMStaking.sol\":4309:4324  uint256 newTier */\n      0x00\n        /* \"HELMStaking.sol\":4327:4331  this */\n      address\n        /* \"HELMStaking.sol\":4327:4339  this.getTier */\n      0xffffffffffffffffffffffffffffffffffffffff\n      and\n      0xb45aae52\n        /* \"HELMStaking.sol\":4340:4350  msg.sender */\n      caller\n        /* \"HELMStaking.sol\":4327:4351  this.getTier(msg.sender) */\n      mload(0x40)\n      dup3\n      0xffffffff\n      and\n      0xe0\n      shl\n      dup2\n      mstore\n      0x04\n      add\n      tag_179\n      swap2\n      swap1\n      tag_72\n      jump\t// in\n    tag_179:\n      0x20\n      mload(0x40)\n      dup1\n      dup4\n      sub\n      dup2\n      dup7\n      gas\n      staticcall\n      iszero\n      dup1\n      iszero\n      tag_181\n      jumpi\n      returndatasize\n      0x00\n      dup1\n      returndatacopy\n      revert(0x00, returndatasize)\n    tag_181:\n      pop\n      pop\n      pop\n      pop\n      mload(0x40)\n      returndatasize\n      not(0x1f)\n      0x1f\n      dup3\n      add\n      and\n      dup3\n      add\n      dup1\n      0x40\n      mstore\n      pop\n      dup2\n      add\n      swap1\n      tag_182\n      swap2\n      swap1\n      tag_100\n      jump\t// in\n    tag_182:\n        /* \"HELMStaking.sol\":4309:4351  uint256 newTier = this.getTier(msg.sender) */\n      swap1\n      pop\n        /* \"HELMStaking.sol\":4375:4387  previousTier */\n      dup3\n        /* \"HELMStaking.sol\":4365:4372  newTier */\n      dup2\n        /* \"HELMStaking.sol\":4365:4387  newTier > previousTier */\n      gt\n        /* \"HELMStaking.sol\":4361:4452  if (newTier > previousTier) {... */\n      iszero\n      tag_183\n      jumpi\n        /* \"HELMStaking.sol\":4421:4431  msg.sender */\n      caller\n        /* \"HELMStaking.sol\":4408:4441  TierUpgraded(msg.sender, newTier) */\n      0xffffffffffffffffffffffffffffffffffffffff\n      and\n      0xa3f9159b0f8e37ad233c38f01317295984b2365aac02d2f555e91e395e64b626\n        /* \"HELMStaking.sol\":4433:4440  newTier */\n      dup3\n        /* \"HELMStaking.sol\":4408:4441  TierUpgraded(msg.sender, newTier) */\n      mload(0x40)\n      tag_184\n      swap2\n      swap1\n      tag_34\n      jump\t// in\n    tag_184:\n      mload(0x40)\n      dup1\n      swap2\n      sub\n      swap1\n      log2\n        /* \"HELMStaking.sol\":4361:4452  if (newTier > previousTier) {... */\n    tag_183:\n        /* \"HELMStaking.sol\":4482:4492  msg.sender */\n      caller\n        /* \"HELMStaking.sol\":4475:4511  Staked(msg.sender, _amount, newTier) */\n      0xffffffffffffffffffffffffffffffffffffffff\n      and\n      0x1449c6dd7851abc30abf37f57715f492010519147cc2652fbc38202c18a6ee90\n        /* \"HELMStaking.sol\":4494:4501  _amount */\n      dup6\n        /* \"HELMStaking.sol\":4503:4510  newTier */\n      dup4\n        /* \"HELMStaking.sol\":4475:4511  Staked(msg.sender, _amount, newTier) */\n      mload(0x40)\n      tag_185\n      swap3\n      swap2\n      swap1\n      tag_186\n      jump\t// in\n    tag_185:\n      mload(0x40)\n      dup1\n      swap2\n      sub\n      swap1\n      log2\n        /* \"HELMStaking.sol\":3753:4518  {... */\n      pop\n      pop\n      pop\n        /* \"@openzeppelin/contracts/utils/ReentrancyGuard.sol\":2542:2562   */\n      tag_187\n        /* \"@openzeppelin/contracts/utils/ReentrancyGuard.sol\":2542:2560   */\n      tag_126\n        /* \"@openzeppelin/contracts/utils/ReentrancyGuard.sol\":2542:2562   */\n      jump\t// in\n    tag_187:\n        /* \"HELMStaking.sol\":3699:4518  function stake(uint256 _amount) external nonReentrant {... */\n      pop\n      jump\t// out\n        /* \"HELMStaking.sol\":6236:6449  function recoverToken(address _token, uint256 _amount) external onlyOwner {... */\n    tag_87:\n        /* \"@openzeppelin/contracts/access/Ownable.sol\":1531:1544   */\n      tag_189\n        /* \"@openzeppelin/contracts/access/Ownable.sol\":1531:1542   */\n      tag_153\n        /* \"@openzeppelin/contracts/access/Ownable.sol\":1531:1544   */\n      jump\t// in\n    tag_189:\n        /* \"HELMStaking.sol\":6346:6355  helmToken */\n      immutable(\"0x277ab82e5a4641341820a4a2933a62c1de997e42e92548657ae21b3728d580fe\")\n        /* \"HELMStaking.sol\":6328:6356  _token != address(helmToken) */\n      0xffffffffffffffffffffffffffffffffffffffff\n      and\n        /* \"HELMStaking.sol\":6328:6334  _token */\n      dup3\n        /* \"HELMStaking.sol\":6328:6356  _token != address(helmToken) */\n      0xffffffffffffffffffffffffffffffffffffffff\n      and\n      sub\n        /* \"HELMStaking.sol\":6320:6387  require(_token != address(helmToken), \"Cannot recover HELM tokens\") */\n      tag_191\n      jumpi\n      mload(0x40)\n      0x08c379a000000000000000000000000000000000000000000000000000000000\n      dup2\n      mstore\n      0x04\n      add\n      tag_192\n      swap1\n      tag_193\n      jump\t// in\n    tag_192:\n      mload(0x40)\n      dup1\n      swap2\n      sub\n      swap1\n      revert\n    tag_191:\n        /* \"HELMStaking.sol\":6397:6442  IERC20(_token).safeTransfer(owner(), _amount) */\n      tag_194\n        /* \"HELMStaking.sol\":6425:6432  owner() */\n      tag_195\n        /* \"HELMStaking.sol\":6425:6430  owner */\n      tag_70\n        /* \"HELMStaking.sol\":6425:6432  owner() */\n      jump\t// in\n    tag_195:\n        /* \"HELMStaking.sol\":6434:6441  _amount */\n      dup3\n        /* \"HELMStaking.sol\":6404:6410  _token */\n      dup5\n        /* \"HELMStaking.sol\":6397:6424  IERC20(_token).safeTransfer */\n      0xffffffffffffffffffffffffffffffffffffffff\n      and\n      tag_117\n      swap1\n        /* \"HELMStaking.sol\":6397:6442  IERC20(_token).safeTransfer(owner(), _amount) */\n      swap3\n      swap2\n      swap1\n      0xffffffff\n      and\n      jump\t// in\n    tag_194:\n        /* \"HELMStaking.sol\":6236:6449  function recoverToken(address _token, uint256 _amount) external onlyOwner {... */\n      pop\n      pop\n      jump\t// out\n        /* \"HELMStaking.sol\":2217:2497  function getTier(address _user) external view returns (uint256) {... */\n    tag_90:\n        /* \"HELMStaking.sol\":2272:2279  uint256 */\n      0x00\n        /* \"HELMStaking.sol\":2291:2305  uint256 amount */\n      dup1\n        /* \"HELMStaking.sol\":2308:2314  stakes */\n      0x02\n        /* \"HELMStaking.sol\":2308:2321  stakes[_user] */\n      0x00\n        /* \"HELMStaking.sol\":2315:2320  _user */\n      dup5\n        /* \"HELMStaking.sol\":2308:2321  stakes[_user] */\n      0xffffffffffffffffffffffffffffffffffffffff\n      and\n      0xffffffffffffffffffffffffffffffffffffffff\n      and\n      dup2\n      mstore\n      0x20\n      add\n      swap1\n      dup2\n      mstore\n      0x20\n      add\n      0x00\n      keccak256\n        /* \"HELMStaking.sol\":2308:2328  stakes[_user].amount */\n      0x00\n      add\n      sload\n        /* \"HELMStaking.sol\":2291:2328  uint256 amount = stakes[_user].amount */\n      swap1\n      pop\n        /* \"HELMStaking.sol\":888:904  100_000 * 10**18 */\n      0x152d02c7e14af6800000\n        /* \"HELMStaking.sol\":2351:2357  amount */\n      dup2\n        /* \"HELMStaking.sol\":2351:2371  amount >= FLEET_TIER */\n      lt\n        /* \"HELMStaking.sol\":2347:2381  if (amount >= FLEET_TIER) return 3 */\n      tag_197\n      jumpi\n        /* \"HELMStaking.sol\":2380:2381  3 */\n      0x03\n        /* \"HELMStaking.sol\":2373:2381  return 3 */\n      swap2\n      pop\n      pop\n      jump(tag_196)\n        /* \"HELMStaking.sol\":2347:2381  if (amount >= FLEET_TIER) return 3 */\n    tag_197:\n        /* \"HELMStaking.sol\":815:830  10_000 * 10**18 */\n      0x021e19e0c9bab2400000\n        /* \"HELMStaking.sol\":2395:2401  amount */\n      dup2\n        /* \"HELMStaking.sol\":2395:2419  amount >= NAVIGATOR_TIER */\n      lt\n        /* \"HELMStaking.sol\":2391:2429  if (amount >= NAVIGATOR_TIER) return 2 */\n      tag_198\n      jumpi\n        /* \"HELMStaking.sol\":2428:2429  2 */\n      0x02\n        /* \"HELMStaking.sol\":2421:2429  return 2 */\n      swap2\n      pop\n      pop\n      jump(tag_196)\n        /* \"HELMStaking.sol\":2391:2429  if (amount >= NAVIGATOR_TIER) return 2 */\n    tag_198:\n        /* \"HELMStaking.sol\":735:749  1_000 * 10**18 */\n      0x3635c9adc5dea00000\n        /* \"HELMStaking.sol\":2443:2449  amount */\n      dup2\n        /* \"HELMStaking.sol\":2443:2462  amount >= HELM_TIER */\n      lt\n        /* \"HELMStaking.sol\":2439:2472  if (amount >= HELM_TIER) return 1 */\n      tag_199\n      jumpi\n        /* \"HELMStaking.sol\":2471:2472  1 */\n      0x01\n        /* \"HELMStaking.sol\":2464:2472  return 1 */\n      swap2\n      pop\n      pop\n      jump(tag_196)\n        /* \"HELMStaking.sol\":2439:2472  if (amount >= HELM_TIER) return 1 */\n    tag_199:\n        /* \"HELMStaking.sol\":2489:2490  0 */\n      0x00\n        /* \"HELMStaking.sol\":2482:2490  return 0 */\n      swap2\n      pop\n      pop\n        /* \"HELMStaking.sol\":2217:2497  function getTier(address _user) external view returns (uint256) {... */\n    tag_196:\n      swap2\n      swap1\n      pop\n      jump\t// out\n        /* \"@openzeppelin/contracts/access/Ownable.sol\":2543:2758   */\n    tag_94:\n        /* \"@openzeppelin/contracts/access/Ownable.sol\":1531:1544   */\n      tag_201\n        /* \"@openzeppelin/contracts/access/Ownable.sol\":1531:1542   */\n      tag_153\n        /* \"@openzeppelin/contracts/access/Ownable.sol\":1531:1544   */\n      jump\t// in\n    tag_201:\n        /* \"@openzeppelin/contracts/access/Ownable.sol\":2647:2648   */\n      0x00\n        /* \"@openzeppelin/contracts/access/Ownable.sol\":2627:2649   */\n      0xffffffffffffffffffffffffffffffffffffffff\n      and\n        /* \"@openzeppelin/contracts/access/Ownable.sol\":2627:2635   */\n      dup2\n        /* \"@openzeppelin/contracts/access/Ownable.sol\":2627:2649   */\n      0xffffffffffffffffffffffffffffffffffffffff\n      and\n      sub\n        /* \"@openzeppelin/contracts/access/Ownable.sol\":2623:2714   */\n      tag_203\n      jumpi\n        /* \"@openzeppelin/contracts/access/Ownable.sol\":2700:2701   */\n      0x00\n        /* \"@openzeppelin/contracts/access/Ownable.sol\":2672:2703   */\n      mload(0x40)\n      0x1e4fbdf700000000000000000000000000000000000000000000000000000000\n      dup2\n      mstore\n      0x04\n      add\n      tag_204\n      swap2\n      swap1\n      tag_72\n      jump\t// in\n    tag_204:\n      mload(0x40)\n      dup1\n      swap2\n      sub\n      swap1\n      revert\n        /* \"@openzeppelin/contracts/access/Ownable.sol\":2623:2714   */\n    tag_203:\n        /* \"@openzeppelin/contracts/access/Ownable.sol\":2723:2751   */\n      tag_205\n        /* \"@openzeppelin/contracts/access/Ownable.sol\":2742:2750   */\n      dup2\n        /* \"@openzeppelin/contracts/access/Ownable.sol\":2723:2741   */\n      tag_156\n        /* \"@openzeppelin/contracts/access/Ownable.sol\":2723:2751   */\n      jump\t// in\n    tag_205:\n        /* \"@openzeppelin/contracts/access/Ownable.sol\":2543:2758   */\n      pop\n      jump\t// out\n        /* \"@openzeppelin/contracts/utils/ReentrancyGuard.sol\":2575:2882   */\n    tag_103:\n        /* \"@openzeppelin/contracts/utils/ReentrancyGuard.sol\":1899:1900   */\n      0x02\n        /* \"@openzeppelin/contracts/utils/ReentrancyGuard.sol\":2702:2709   */\n      sload(0x01)\n        /* \"@openzeppelin/contracts/utils/ReentrancyGuard.sol\":2702:2720   */\n      sub\n        /* \"@openzeppelin/contracts/utils/ReentrancyGuard.sol\":2698:2784   */\n      tag_207\n      jumpi\n        /* \"@openzeppelin/contracts/utils/ReentrancyGuard.sol\":2743:2773   */\n      mload(0x40)\n      0x3ee5aeb500000000000000000000000000000000000000000000000000000000\n      dup2\n      mstore\n      0x04\n      add\n      mload(0x40)\n      dup1\n      swap2\n      sub\n      swap1\n      revert\n        /* \"@openzeppelin/contracts/utils/ReentrancyGuard.sol\":2698:2784   */\n    tag_207:\n        /* \"@openzeppelin/contracts/utils/ReentrancyGuard.sol\":1899:1900   */\n      0x02\n        /* \"@openzeppelin/contracts/utils/ReentrancyGuard.sol\":2858:2865   */\n      0x01\n        /* \"@openzeppelin/contracts/utils/ReentrancyGuard.sol\":2858:2875   */\n      dup2\n      swap1\n      sstore\n      pop\n        /* \"@openzeppelin/contracts/utils/ReentrancyGuard.sol\":2575:2882   */\n      jump\t// out\n        /* \"@openzeppelin/contracts/token/ERC20/utils/SafeERC20.sol\":1219:1379   */\n    tag_117:\n        /* \"@openzeppelin/contracts/token/ERC20/utils/SafeERC20.sol\":1301:1372   */\n      tag_209\n        /* \"@openzeppelin/contracts/token/ERC20/utils/SafeERC20.sol\":1321:1326   */\n      dup4\n        /* \"@openzeppelin/contracts/token/ERC20/utils/SafeERC20.sol\":1343:1348   */\n      dup5\n        /* \"@openzeppelin/contracts/token/ERC20/utils/SafeERC20.sol\":1343:1357   */\n      0xffffffffffffffffffffffffffffffffffffffff\n      and\n      0xa9059cbb\n        /* \"@openzeppelin/contracts/token/ERC20/utils/SafeERC20.sol\":1360:1362   */\n      dup6\n        /* \"@openzeppelin/contracts/token/ERC20/utils/SafeERC20.sol\":1364:1369   */\n      dup6\n        /* \"@openzeppelin/contracts/token/ERC20/utils/SafeERC20.sol\":1328:1371   */\n      add(0x24, mload(0x40))\n      tag_210\n      swap3\n      swap2\n      swap1\n      tag_211\n      jump\t// in\n    tag_210:\n      mload(0x40)\n      0x20\n      dup2\n      dup4\n      sub\n      sub\n      dup2\n      mstore\n      swap1\n      0x40\n      mstore\n      swap2\n      pop\n      0xe0\n      shl\n      0x20\n      dup3\n      add\n      dup1\n      mload\n      0xffffffffffffffffffffffffffffffffffffffffffffffffffffffff\n      dup4\n      dup2\n      dup4\n      and\n      or\n      dup4\n      mstore\n      pop\n      pop\n      pop\n      pop\n        /* \"@openzeppelin/contracts/token/ERC20/utils/SafeERC20.sol\":1301:1320   */\n      tag_212\n        /* \"@openzeppelin/contracts/token/ERC20/utils/SafeERC20.sol\":1301:1372   */\n      jump\t// in\n    tag_209:\n        /* \"@openzeppelin/contracts/token/ERC20/utils/SafeERC20.sol\":1219:1379   */\n      pop\n      pop\n      pop\n      jump\t// out\n        /* \"@openzeppelin/contracts/utils/ReentrancyGuard.sol\":2888:3096   */\n    tag_126:\n        /* \"@openzeppelin/contracts/utils/ReentrancyGuard.sol\":1857:1858   */\n      0x01\n        /* \"@openzeppelin/contracts/utils/ReentrancyGuard.sol\":3068:3075   */\n      dup1\n        /* \"@openzeppelin/contracts/utils/ReentrancyGuard.sol\":3068:3089   */\n      dup2\n      swap1\n      sstore\n      pop\n        /* \"@openzeppelin/contracts/utils/ReentrancyGuard.sol\":2888:3096   */\n      jump\t// out\n        /* \"@openzeppelin/contracts/access/Ownable.sol\":1796:1958   */\n    tag_153:\n        /* \"@openzeppelin/contracts/access/Ownable.sol\":1866:1878   */\n      tag_215\n        /* \"@openzeppelin/contracts/access/Ownable.sol\":1866:1876   */\n      tag_216\n        /* \"@openzeppelin/contracts/access/Ownable.sol\":1866:1878   */\n      jump\t// in\n    tag_215:\n        /* \"@openzeppelin/contracts/access/Ownable.sol\":1855:1878   */\n      0xffffffffffffffffffffffffffffffffffffffff\n      and\n        /* \"@openzeppelin/contracts/access/Ownable.sol\":1855:1862   */\n      tag_217\n        /* \"@openzeppelin/contracts/access/Ownable.sol\":1855:1860   */\n      tag_70\n        /* \"@openzeppelin/contracts/access/Ownable.sol\":1855:1862   */\n      jump\t// in\n    tag_217:\n        /* \"@openzeppelin/contracts/access/Ownable.sol\":1855:1878   */\n      0xffffffffffffffffffffffffffffffffffffffff\n      and\n      eq\n        /* \"@openzeppelin/contracts/access/Ownable.sol\":1851:1952   */\n      tag_218\n      jumpi\n        /* \"@openzeppelin/contracts/access/Ownable.sol\":1928:1940   */\n      tag_219\n        /* \"@openzeppelin/contracts/access/Ownable.sol\":1928:1938   */\n      tag_216\n        /* \"@openzeppelin/contracts/access/Ownable.sol\":1928:1940   */\n      jump\t// in\n    tag_219:\n        /* \"@openzeppelin/contracts/access/Ownable.sol\":1901:1941   */\n      mload(0x40)\n      0x118cdaa700000000000000000000000000000000000000000000000000000000\n      dup2\n      mstore\n      0x04\n      add\n      tag_220\n      swap2\n      swap1\n      tag_72\n      jump\t// in\n    tag_220:\n      mload(0x40)\n      dup1\n      swap2\n      sub\n      swap1\n      revert\n        /* \"@openzeppelin/contracts/access/Ownable.sol\":1851:1952   */\n    tag_218:\n        /* \"@openzeppelin/contracts/access/Ownable.sol\":1796:1958   */\n      jump\t// out\n        /* \"@openzeppelin/contracts/access/Ownable.sol\":2912:3099   */\n    tag_156:\n        /* \"@openzeppelin/contracts/access/Ownable.sol\":2985:3001   */\n      0x00\n        /* \"@openzeppelin/contracts/access/Ownable.sol\":3004:3010   */\n      dup1\n      0x00\n      swap1\n      sload\n      swap1\n      0x0100\n      exp\n      swap1\n      div\n      0xffffffffffffffffffffffffffffffffffffffff\n      and\n        /* \"@openzeppelin/contracts/access/Ownable.sol\":2985:3010   */\n      swap1\n      pop\n        /* \"@openzeppelin/contracts/access/Ownable.sol\":3029:3037   */\n      dup2\n        /* \"@openzeppelin/contracts/access/Ownable.sol\":3020:3026   */\n      0x00\n      dup1\n        /* \"@openzeppelin/contracts/access/Ownable.sol\":3020:3037   */\n      0x0100\n      exp\n      dup2\n      sload\n      dup2\n      0xffffffffffffffffffffffffffffffffffffffff\n      mul\n      not\n      and\n      swap1\n      dup4\n      0xffffffffffffffffffffffffffffffffffffffff\n      and\n      mul\n      or\n      swap1\n      sstore\n      pop\n        /* \"@openzeppelin/contracts/access/Ownable.sol\":3083:3091   */\n      dup2\n        /* \"@openzeppelin/contracts/access/Ownable.sol\":3052:3092   */\n      0xffffffffffffffffffffffffffffffffffffffff\n      and\n        /* \"@openzeppelin/contracts/access/Ownable.sol\":3073:3081   */\n      dup2\n        /* \"@openzeppelin/contracts/access/Ownable.sol\":3052:3092   */\n      0xffffffffffffffffffffffffffffffffffffffff\n      and\n      0x8be0079c531659141344cd1fd0a4f28419497f9722a3daafe3b4186f6b6457e0\n      mload(0x40)\n      mload(0x40)\n      dup1\n      swap2\n      sub\n      swap1\n      log3\n        /* \"@openzeppelin/contracts/access/Ownable.sol\":2975:3099   */\n      pop\n        /* \"@openzeppelin/contracts/access/Ownable.sol\":2912:3099   */\n      pop\n      jump\t// out\n        /* \"@openzeppelin/contracts/token/ERC20/utils/SafeERC20.sol\":1618:1806   */\n    tag_174:\n        /* \"@openzeppelin/contracts/token/ERC20/utils/SafeERC20.sol\":1718:1799   */\n      tag_223\n        /* \"@openzeppelin/contracts/token/ERC20/utils/SafeERC20.sol\":1738:1743   */\n      dup5\n        /* \"@openzeppelin/contracts/token/ERC20/utils/SafeERC20.sol\":1760:1765   */\n      dup6\n        /* \"@openzeppelin/contracts/token/ERC20/utils/SafeERC20.sol\":1760:1778   */\n      0xffffffffffffffffffffffffffffffffffffffff\n      and\n      0x23b872dd\n        /* \"@openzeppelin/contracts/token/ERC20/utils/SafeERC20.sol\":1781:1785   */\n      dup7\n        /* \"@openzeppelin/contracts/token/ERC20/utils/SafeERC20.sol\":1787:1789   */\n      dup7\n        /* \"@openzeppelin/contracts/token/ERC20/utils/SafeERC20.sol\":1791:1796   */\n      dup7\n        /* \"@openzeppelin/contracts/token/ERC20/utils/SafeERC20.sol\":1745:1798   */\n      add(0x24, mload(0x40))\n      tag_224\n      swap4\n      swap3\n      swap2\n      swap1\n      tag_225\n      jump\t// in\n    tag_224:\n      mload(0x40)\n      0x20\n      dup2\n      dup4\n      sub\n      sub\n      dup2\n      mstore\n      swap1\n      0x40\n      mstore\n      swap2\n      pop\n      0xe0\n      shl\n      0x20\n      dup3\n      add\n      dup1\n      mload\n      0xffffffffffffffffffffffffffffffffffffffffffffffffffffffff\n      dup4\n      dup2\n      dup4\n      and\n      or\n      dup4\n      mstore\n      pop\n      pop\n      pop\n      pop\n        /* \"@openzeppelin/contracts/token/ERC20/utils/SafeERC20.sol\":1718:1737   */\n      tag_212\n        /* \"@openzeppelin/contracts/token/ERC20/utils/SafeERC20.sol\":1718:1799   */\n      jump\t// in\n    tag_223:\n        /* \"@openzeppelin/contracts/token/ERC20/utils/SafeERC20.sol\":1618:1806   */\n      pop\n      pop\n      pop\n      pop\n      jump\t// out\n        /* \"@openzeppelin/contracts/token/ERC20/utils/SafeERC20.sol\":8370:9090   */\n    tag_212:\n        /* \"@openzeppelin/contracts/token/ERC20/utils/SafeERC20.sol\":8450:8468   */\n      0x00\n        /* \"@openzeppelin/contracts/token/ERC20/utils/SafeERC20.sol\":8478:8497   */\n      dup1\n        /* \"@openzeppelin/contracts/token/ERC20/utils/SafeERC20.sol\":8616:8620   */\n      0x20\n        /* \"@openzeppelin/contracts/token/ERC20/utils/SafeERC20.sol\":8613:8614   */\n      0x00\n        /* \"@openzeppelin/contracts/token/ERC20/utils/SafeERC20.sol\":8606:8610   */\n      dup5\n        /* \"@openzeppelin/contracts/token/ERC20/utils/SafeERC20.sol\":8600:8611   */\n      mload\n        /* \"@openzeppelin/contracts/token/ERC20/utils/SafeERC20.sol\":8593:8597   */\n      0x20\n        /* \"@openzeppelin/contracts/token/ERC20/utils/SafeERC20.sol\":8587:8591   */\n      dup7\n        /* \"@openzeppelin/contracts/token/ERC20/utils/SafeERC20.sol\":8583:8598   */\n      add\n        /* \"@openzeppelin/contracts/token/ERC20/utils/SafeERC20.sol\":8580:8581   */\n      0x00\n        /* \"@openzeppelin/contracts/token/ERC20/utils/SafeERC20.sol\":8573:8578   */\n      dup9\n        /* \"@openzeppelin/contracts/token/ERC20/utils/SafeERC20.sol\":8566:8571   */\n      gas\n        /* \"@openzeppelin/contracts/token/ERC20/utils/SafeERC20.sol\":8561:8621   */\n      call\n        /* \"@openzeppelin/contracts/token/ERC20/utils/SafeERC20.sol\":8673:8680   */\n      dup1\n        /* \"@openzeppelin/contracts/token/ERC20/utils/SafeERC20.sol\":8663:8839   */\n      tag_227\n      jumpi\n        /* \"@openzeppelin/contracts/token/ERC20/utils/SafeERC20.sol\":8717:8721   */\n      0x40\n        /* \"@openzeppelin/contracts/token/ERC20/utils/SafeERC20.sol\":8711:8722   */\n      mload\n        /* \"@openzeppelin/contracts/token/ERC20/utils/SafeERC20.sol\":8762:8778   */\n      returndatasize\n        /* \"@openzeppelin/contracts/token/ERC20/utils/SafeERC20.sol\":8759:8760   */\n      0x00\n        /* \"@openzeppelin/contracts/token/ERC20/utils/SafeERC20.sol\":8754:8757   */\n      dup3\n        /* \"@openzeppelin/contracts/token/ERC20/utils/SafeERC20.sol\":8739:8779   */\n      returndatacopy\n        /* \"@openzeppelin/contracts/token/ERC20/utils/SafeERC20.sol\":8808:8824   */\n      returndatasize\n        /* \"@openzeppelin/contracts/token/ERC20/utils/SafeERC20.sol\":8803:8806   */\n      dup2\n        /* \"@openzeppelin/contracts/token/ERC20/utils/SafeERC20.sol\":8796:8825   */\n      revert\n        /* \"@openzeppelin/contracts/token/ERC20/utils/SafeERC20.sol\":8663:8839   */\n    tag_227:\n        /* \"@openzeppelin/contracts/token/ERC20/utils/SafeERC20.sol\":8866:8882   */\n      returndatasize\n        /* \"@openzeppelin/contracts/token/ERC20/utils/SafeERC20.sol\":8852:8882   */\n      swap3\n      pop\n        /* \"@openzeppelin/contracts/token/ERC20/utils/SafeERC20.sol\":8916:8917   */\n      0x00\n        /* \"@openzeppelin/contracts/token/ERC20/utils/SafeERC20.sol\":8910:8918   */\n      mload\n        /* \"@openzeppelin/contracts/token/ERC20/utils/SafeERC20.sol\":8895:8918   */\n      swap2\n      pop\n        /* \"@openzeppelin/contracts/token/ERC20/utils/SafeERC20.sol\":8532:8928   */\n      pop\n        /* \"@openzeppelin/contracts/token/ERC20/utils/SafeERC20.sol\":8956:8957   */\n      0x00\n        /* \"@openzeppelin/contracts/token/ERC20/utils/SafeERC20.sol\":8942:8952   */\n      dup3\n        /* \"@openzeppelin/contracts/token/ERC20/utils/SafeERC20.sol\":8942:8957   */\n      eq\n        /* \"@openzeppelin/contracts/token/ERC20/utils/SafeERC20.sol\":8942:9010   */\n      tag_228\n      jumpi\n        /* \"@openzeppelin/contracts/token/ERC20/utils/SafeERC20.sol\":9009:9010   */\n      0x01\n        /* \"@openzeppelin/contracts/token/ERC20/utils/SafeERC20.sol\":8994:9005   */\n      dup2\n        /* \"@openzeppelin/contracts/token/ERC20/utils/SafeERC20.sol\":8994:9010   */\n      eq\n      iszero\n        /* \"@openzeppelin/contracts/token/ERC20/utils/SafeERC20.sol\":8942:9010   */\n      jump(tag_229)\n    tag_228:\n        /* \"@openzeppelin/contracts/token/ERC20/utils/SafeERC20.sol\":8990:8991   */\n      0x00\n        /* \"@openzeppelin/contracts/token/ERC20/utils/SafeERC20.sol\":8968:8973   */\n      dup5\n        /* \"@openzeppelin/contracts/token/ERC20/utils/SafeERC20.sol\":8960:8986   */\n      0xffffffffffffffffffffffffffffffffffffffff\n      and\n      extcodesize\n        /* \"@openzeppelin/contracts/token/ERC20/utils/SafeERC20.sol\":8960:8991   */\n      eq\n        /* \"@openzeppelin/contracts/token/ERC20/utils/SafeERC20.sol\":8942:9010   */\n    tag_229:\n        /* \"@openzeppelin/contracts/token/ERC20/utils/SafeERC20.sol\":8938:9084   */\n      iszero\n      tag_230\n      jumpi\n        /* \"@openzeppelin/contracts/token/ERC20/utils/SafeERC20.sol\":9066:9071   */\n      dup4\n        /* \"@openzeppelin/contracts/token/ERC20/utils/SafeERC20.sol\":9033:9073   */\n      mload(0x40)\n      0x5274afe700000000000000000000000000000000000000000000000000000000\n      dup2\n      mstore\n      0x04\n      add\n      tag_231\n      swap2\n      swap1\n      tag_72\n      jump\t// in\n    tag_231:\n      mload(0x40)\n      dup1\n      swap2\n      sub\n      swap1\n      revert\n        /* \"@openzeppelin/contracts/token/ERC20/utils/SafeERC20.sol\":8938:9084   */\n    tag_230:\n        /* \"@openzeppelin/contracts/token/ERC20/utils/SafeERC20.sol\":8440:9090   */\n      pop\n      pop\n        /* \"@openzeppelin/contracts/token/ERC20/utils/SafeERC20.sol\":8370:9090   */\n      pop\n      pop\n      jump\t// out\n        /* \"@openzeppelin/contracts/utils/Context.sol\":656:752   */\n    tag_216:\n        /* \"@openzeppelin/contracts/utils/Context.sol\":709:716   */\n      0x00\n        /* \"@openzeppelin/contracts/utils/Context.sol\":735:745   */\n      caller\n        /* \"@openzeppelin/contracts/utils/Context.sol\":728:745   */\n      swap1\n      pop\n        /* \"@openzeppelin/contracts/utils/Context.sol\":656:752   */\n      swap1\n      jump\t// out\n        /* \"#utility.yul\":88:205   */\n    tag_234:\n        /* \"#utility.yul\":197:198   */\n      0x00\n        /* \"#utility.yul\":194:195   */\n      dup1\n        /* \"#utility.yul\":187:199   */\n      revert\n        /* \"#utility.yul\":334:460   */\n    tag_236:\n        /* \"#utility.yul\":371:378   */\n      0x00\n        /* \"#utility.yul\":411:453   */\n      0xffffffffffffffffffffffffffffffffffffffff\n        /* \"#utility.yul\":404:409   */\n      dup3\n        /* \"#utility.yul\":400:454   */\n      and\n        /* \"#utility.yul\":389:454   */\n      swap1\n      pop\n        /* \"#utility.yul\":334:460   */\n      swap2\n      swap1\n      pop\n      jump\t// out\n        /* \"#utility.yul\":466:562   */\n    tag_237:\n        /* \"#utility.yul\":503:510   */\n      0x00\n        /* \"#utility.yul\":532:556   */\n      tag_274\n        /* \"#utility.yul\":550:555   */\n      dup3\n        /* \"#utility.yul\":532:556   */\n      tag_236\n      jump\t// in\n    tag_274:\n        /* \"#utility.yul\":521:556   */\n      swap1\n      pop\n        /* \"#utility.yul\":466:562   */\n      swap2\n      swap1\n      pop\n      jump\t// out\n        /* \"#utility.yul\":568:690   */\n    tag_238:\n        /* \"#utility.yul\":641:665   */\n      tag_276\n        /* \"#utility.yul\":659:664   */\n      dup2\n        /* \"#utility.yul\":641:665   */\n      tag_237\n      jump\t// in\n    tag_276:\n        /* \"#utility.yul\":634:639   */\n      dup2\n        /* \"#utility.yul\":631:666   */\n      eq\n        /* \"#utility.yul\":621:684   */\n      tag_277\n      jumpi\n        /* \"#utility.yul\":680:681   */\n      0x00\n        /* \"#utility.yul\":677:678   */\n      dup1\n        /* \"#utility.yul\":670:682   */\n      revert\n        /* \"#utility.yul\":621:684   */\n    tag_277:\n        /* \"#utility.yul\":568:690   */\n      pop\n      jump\t// out\n        /* \"#utility.yul\":696:835   */\n    tag_239:\n        /* \"#utility.yul\":742:747   */\n      0x00\n        /* \"#utility.yul\":780:786   */\n      dup2\n        /* \"#utility.yul\":767:787   */\n      calldataload\n        /* \"#utility.yul\":758:787   */\n      swap1\n      pop\n        /* \"#utility.yul\":796:829   */\n      tag_279\n        /* \"#utility.yul\":823:828   */\n      dup2\n        /* \"#utility.yul\":796:829   */\n      tag_238\n      jump\t// in\n    tag_279:\n        /* \"#utility.yul\":696:835   */\n      swap3\n      swap2\n      pop\n      pop\n      jump\t// out\n        /* \"#utility.yul\":841:918   */\n    tag_240:\n        /* \"#utility.yul\":878:885   */\n      0x00\n        /* \"#utility.yul\":907:912   */\n      dup2\n        /* \"#utility.yul\":896:912   */\n      swap1\n      pop\n        /* \"#utility.yul\":841:918   */\n      swap2\n      swap1\n      pop\n      jump\t// out\n        /* \"#utility.yul\":924:1046   */\n    tag_241:\n        /* \"#utility.yul\":997:1021   */\n      tag_282\n        /* \"#utility.yul\":1015:1020   */\n      dup2\n        /* \"#utility.yul\":997:1021   */\n      tag_240\n      jump\t// in\n    tag_282:\n        /* \"#utility.yul\":990:995   */\n      dup2\n        /* \"#utility.yul\":987:1022   */\n      eq\n        /* \"#utility.yul\":977:1040   */\n      tag_283\n      jumpi\n        /* \"#utility.yul\":1036:1037   */\n      0x00\n        /* \"#utility.yul\":1033:1034   */\n      dup1\n        /* \"#utility.yul\":1026:1038   */\n      revert\n        /* \"#utility.yul\":977:1040   */\n    tag_283:\n        /* \"#utility.yul\":924:1046   */\n      pop\n      jump\t// out\n        /* \"#utility.yul\":1052:1191   */\n    tag_242:\n        /* \"#utility.yul\":1098:1103   */\n      0x00\n        /* \"#utility.yul\":1136:1142   */\n      dup2\n        /* \"#utility.yul\":1123:1143   */\n      calldataload\n        /* \"#utility.yul\":1114:1143   */\n      swap1\n      pop\n        /* \"#utility.yul\":1152:1185   */\n      tag_285\n        /* \"#utility.yul\":1179:1184   */\n      dup2\n        /* \"#utility.yul\":1152:1185   */\n      tag_241\n      jump\t// in\n    tag_285:\n        /* \"#utility.yul\":1052:1191   */\n      swap3\n      swap2\n      pop\n      pop\n      jump\t// out\n        /* \"#utility.yul\":1197:1671   */\n    tag_27:\n        /* \"#utility.yul\":1265:1271   */\n      0x00\n        /* \"#utility.yul\":1273:1279   */\n      dup1\n        /* \"#utility.yul\":1322:1324   */\n      0x40\n        /* \"#utility.yul\":1310:1319   */\n      dup4\n        /* \"#utility.yul\":1301:1308   */\n      dup6\n        /* \"#utility.yul\":1297:1320   */\n      sub\n        /* \"#utility.yul\":1293:1325   */\n      slt\n        /* \"#utility.yul\":1290:1409   */\n      iszero\n      tag_287\n      jumpi\n        /* \"#utility.yul\":1328:1407   */\n      tag_288\n      tag_234\n      jump\t// in\n    tag_288:\n        /* \"#utility.yul\":1290:1409   */\n    tag_287:\n        /* \"#utility.yul\":1448:1449   */\n      0x00\n        /* \"#utility.yul\":1473:1526   */\n      tag_289\n        /* \"#utility.yul\":1518:1525   */\n      dup6\n        /* \"#utility.yul\":1509:1515   */\n      dup3\n        /* \"#utility.yul\":1498:1507   */\n      dup7\n        /* \"#utility.yul\":1494:1516   */\n      add\n        /* \"#utility.yul\":1473:1526   */\n      tag_239\n      jump\t// in\n    tag_289:\n        /* \"#utility.yul\":1463:1526   */\n      swap3\n      pop\n        /* \"#utility.yul\":1419:1536   */\n      pop\n        /* \"#utility.yul\":1575:1577   */\n      0x20\n        /* \"#utility.yul\":1601:1654   */\n      tag_290\n        /* \"#utility.yul\":1646:1653   */\n      dup6\n        /* \"#utility.yul\":1637:1643   */\n      dup3\n        /* \"#utility.yul\":1626:1635   */\n      dup7\n        /* \"#utility.yul\":1622:1644   */\n      add\n        /* \"#utility.yul\":1601:1654   */\n      tag_242\n      jump\t// in\n    tag_290:\n        /* \"#utility.yul\":1591:1654   */\n      swap2\n      pop\n        /* \"#utility.yul\":1546:1664   */\n      pop\n        /* \"#utility.yul\":1197:1671   */\n      swap3\n      pop\n      swap3\n      swap1\n      pop\n      jump\t// out\n        /* \"#utility.yul\":1677:1767   */\n    tag_243:\n        /* \"#utility.yul\":1711:1718   */\n      0x00\n        /* \"#utility.yul\":1754:1759   */\n      dup2\n        /* \"#utility.yul\":1747:1760   */\n      iszero\n        /* \"#utility.yul\":1740:1761   */\n      iszero\n        /* \"#utility.yul\":1729:1761   */\n      swap1\n      pop\n        /* \"#utility.yul\":1677:1767   */\n      swap2\n      swap1\n      pop\n      jump\t// out\n        /* \"#utility.yul\":1773:1882   */\n    tag_244:\n        /* \"#utility.yul\":1854:1875   */\n      tag_293\n        /* \"#utility.yul\":1869:1874   */\n      dup2\n        /* \"#utility.yul\":1854:1875   */\n      tag_243\n      jump\t// in\n    tag_293:\n        /* \"#utility.yul\":1849:1852   */\n      dup3\n        /* \"#utility.yul\":1842:1876   */\n      mstore\n        /* \"#utility.yul\":1773:1882   */\n      pop\n      pop\n      jump\t// out\n        /* \"#utility.yul\":1888:2098   */\n    tag_30:\n        /* \"#utility.yul\":1975:1979   */\n      0x00\n        /* \"#utility.yul\":2013:2015   */\n      0x20\n        /* \"#utility.yul\":2002:2011   */\n      dup3\n        /* \"#utility.yul\":1998:2016   */\n      add\n        /* \"#utility.yul\":1990:2016   */\n      swap1\n      pop\n        /* \"#utility.yul\":2026:2091   */\n      tag_295\n        /* \"#utility.yul\":2088:2089   */\n      0x00\n        /* \"#utility.yul\":2077:2086   */\n      dup4\n        /* \"#utility.yul\":2073:2090   */\n      add\n        /* \"#utility.yul\":2064:2070   */\n      dup5\n        /* \"#utility.yul\":2026:2091   */\n      tag_244\n      jump\t// in\n    tag_295:\n        /* \"#utility.yul\":1888:2098   */\n      swap3\n      swap2\n      pop\n      pop\n      jump\t// out\n        /* \"#utility.yul\":2104:2222   */\n    tag_245:\n        /* \"#utility.yul\":2191:2215   */\n      tag_297\n        /* \"#utility.yul\":2209:2214   */\n      dup2\n        /* \"#utility.yul\":2191:2215   */\n      tag_240\n      jump\t// in\n    tag_297:\n        /* \"#utility.yul\":2186:2189   */\n      dup3\n        /* \"#utility.yul\":2179:2216   */\n      mstore\n        /* \"#utility.yul\":2104:2222   */\n      pop\n      pop\n      jump\t// out\n        /* \"#utility.yul\":2228:2450   */\n    tag_34:\n        /* \"#utility.yul\":2321:2325   */\n      0x00\n        /* \"#utility.yul\":2359:2361   */\n      0x20\n        /* \"#utility.yul\":2348:2357   */\n      dup3\n        /* \"#utility.yul\":2344:2362   */\n      add\n        /* \"#utility.yul\":2336:2362   */\n      swap1\n      pop\n        /* \"#utility.yul\":2372:2443   */\n      tag_299\n        /* \"#utility.yul\":2440:2441   */\n      0x00\n        /* \"#utility.yul\":2429:2438   */\n      dup4\n        /* \"#utility.yul\":2425:2442   */\n      add\n        /* \"#utility.yul\":2416:2422   */\n      dup5\n        /* \"#utility.yul\":2372:2443   */\n      tag_245\n      jump\t// in\n    tag_299:\n        /* \"#utility.yul\":2228:2450   */\n      swap3\n      swap2\n      pop\n      pop\n      jump\t// out\n        /* \"#utility.yul\":2456:2785   */\n    tag_37:\n        /* \"#utility.yul\":2515:2521   */\n      0x00\n        /* \"#utility.yul\":2564:2566   */\n      0x20\n        /* \"#utility.yul\":2552:2561   */\n      dup3\n        /* \"#utility.yul\":2543:2550   */\n      dup5\n        /* \"#utility.yul\":2539:2562   */\n      sub\n        /* \"#utility.yul\":2535:2567   */\n      slt\n        /* \"#utility.yul\":2532:2651   */\n      iszero\n      tag_301\n      jumpi\n        /* \"#utility.yul\":2570:2649   */\n      tag_302\n      tag_234\n      jump\t// in\n    tag_302:\n        /* \"#utility.yul\":2532:2651   */\n    tag_301:\n        /* \"#utility.yul\":2690:2691   */\n      0x00\n        /* \"#utility.yul\":2715:2768   */\n      tag_303\n        /* \"#utility.yul\":2760:2767   */\n      dup5\n        /* \"#utility.yul\":2751:2757   */\n      dup3\n        /* \"#utility.yul\":2740:2749   */\n      dup6\n        /* \"#utility.yul\":2736:2758   */\n      add\n        /* \"#utility.yul\":2715:2768   */\n      tag_239\n      jump\t// in\n    tag_303:\n        /* \"#utility.yul\":2705:2768   */\n      swap2\n      pop\n        /* \"#utility.yul\":2661:2778   */\n      pop\n        /* \"#utility.yul\":2456:2785   */\n      swap3\n      swap2\n      pop\n      pop\n      jump\t// out\n        /* \"#utility.yul\":2791:3233   */\n    tag_40:\n        /* \"#utility.yul\":2940:2944   */\n      0x00\n        /* \"#utility.yul\":2978:2980   */\n      0x60\n        /* \"#utility.yul\":2967:2976   */\n      dup3\n        /* \"#utility.yul\":2963:2981   */\n      add\n        /* \"#utility.yul\":2955:2981   */\n      swap1\n      pop\n        /* \"#utility.yul\":2991:3062   */\n      tag_305\n        /* \"#utility.yul\":3059:3060   */\n      0x00\n        /* \"#utility.yul\":3048:3057   */\n      dup4\n        /* \"#utility.yul\":3044:3061   */\n      add\n        /* \"#utility.yul\":3035:3041   */\n      dup7\n        /* \"#utility.yul\":2991:3062   */\n      tag_245\n      jump\t// in\n    tag_305:\n        /* \"#utility.yul\":3072:3144   */\n      tag_306\n        /* \"#utility.yul\":3140:3142   */\n      0x20\n        /* \"#utility.yul\":3129:3138   */\n      dup4\n        /* \"#utility.yul\":3125:3143   */\n      add\n        /* \"#utility.yul\":3116:3122   */\n      dup6\n        /* \"#utility.yul\":3072:3144   */\n      tag_245\n      jump\t// in\n    tag_306:\n        /* \"#utility.yul\":3154:3226   */\n      tag_307\n        /* \"#utility.yul\":3222:3224   */\n      0x40\n        /* \"#utility.yul\":3211:3220   */\n      dup4\n        /* \"#utility.yul\":3207:3225   */\n      add\n        /* \"#utility.yul\":3198:3204   */\n      dup5\n        /* \"#utility.yul\":3154:3226   */\n      tag_245\n      jump\t// in\n    tag_307:\n        /* \"#utility.yul\":2791:3233   */\n      swap5\n      swap4\n      pop\n      pop\n      pop\n      pop\n      jump\t// out\n        /* \"#utility.yul\":3239:3568   */\n    tag_43:\n        /* \"#utility.yul\":3298:3304   */\n      0x00\n        /* \"#utility.yul\":3347:3349   */\n      0x20\n        /* \"#utility.yul\":3335:3344   */\n      dup3\n        /* \"#utility.yul\":3326:3333   */\n      dup5\n        /* \"#utility.yul\":3322:3345   */\n      sub\n        /* \"#utility.yul\":3318:3350   */\n      slt\n        /* \"#utility.yul\":3315:3434   */\n      iszero\n      tag_309\n      jumpi\n        /* \"#utility.yul\":3353:3432   */\n      tag_310\n      tag_234\n      jump\t// in\n    tag_310:\n        /* \"#utility.yul\":3315:3434   */\n    tag_309:\n        /* \"#utility.yul\":3473:3474   */\n      0x00\n        /* \"#utility.yul\":3498:3551   */\n      tag_311\n        /* \"#utility.yul\":3543:3550   */\n      dup5\n        /* \"#utility.yul\":3534:3540   */\n      dup3\n        /* \"#utility.yul\":3523:3532   */\n      dup6\n        /* \"#utility.yul\":3519:3541   */\n      add\n        /* \"#utility.yul\":3498:3551   */\n      tag_242\n      jump\t// in\n    tag_311:\n        /* \"#utility.yul\":3488:3551   */\n      swap2\n      pop\n        /* \"#utility.yul\":3444:3561   */\n      pop\n        /* \"#utility.yul\":3239:3568   */\n      swap3\n      swap2\n      pop\n      pop\n      jump\t// out\n        /* \"#utility.yul\":3574:3692   */\n    tag_246:\n        /* \"#utility.yul\":3661:3685   */\n      tag_313\n        /* \"#utility.yul\":3679:3684   */\n      dup2\n        /* \"#utility.yul\":3661:3685   */\n      tag_237\n      jump\t// in\n    tag_313:\n        /* \"#utility.yul\":3656:3659   */\n      dup3\n        /* \"#utility.yul\":3649:3686   */\n      mstore\n        /* \"#utility.yul\":3574:3692   */\n      pop\n      pop\n      jump\t// out\n        /* \"#utility.yul\":3698:3920   */\n    tag_72:\n        /* \"#utility.yul\":3791:3795   */\n      0x00\n        /* \"#utility.yul\":3829:3831   */\n      0x20\n        /* \"#utility.yul\":3818:3827   */\n      dup3\n        /* \"#utility.yul\":3814:3832   */\n      add\n        /* \"#utility.yul\":3806:3832   */\n      swap1\n      pop\n        /* \"#utility.yul\":3842:3913   */\n      tag_315\n        /* \"#utility.yul\":3910:3911   */\n      0x00\n        /* \"#utility.yul\":3899:3908   */\n      dup4\n        /* \"#utility.yul\":3895:3912   */\n      add\n        /* \"#utility.yul\":3886:3892   */\n      dup5\n        /* \"#utility.yul\":3842:3913   */\n      tag_246\n      jump\t// in\n    tag_315:\n        /* \"#utility.yul\":3698:3920   */\n      swap3\n      swap2\n      pop\n      pop\n      jump\t// out\n        /* \"#utility.yul\":3926:4025   */\n    tag_247:\n        /* \"#utility.yul\":3978:3984   */\n      0x00\n        /* \"#utility.yul\":4012:4017   */\n      dup2\n        /* \"#utility.yul\":4006:4018   */\n      mload\n        /* \"#utility.yul\":3996:4018   */\n      swap1\n      pop\n        /* \"#utility.yul\":3926:4025   */\n      swap2\n      swap1\n      pop\n      jump\t// out\n        /* \"#utility.yul\":4031:4200   */\n    tag_248:\n        /* \"#utility.yul\":4115:4126   */\n      0x00\n        /* \"#utility.yul\":4149:4155   */\n      dup3\n        /* \"#utility.yul\":4144:4147   */\n      dup3\n        /* \"#utility.yul\":4137:4156   */\n      mstore\n        /* \"#utility.yul\":4189:4193   */\n      0x20\n        /* \"#utility.yul\":4184:4187   */\n      dup3\n        /* \"#utility.yul\":4180:4194   */\n      add\n        /* \"#utility.yul\":4165:4194   */\n      swap1\n      pop\n        /* \"#utility.yul\":4031:4200   */\n      swap3\n      swap2\n      pop\n      pop\n      jump\t// out\n        /* \"#utility.yul\":4206:4452   */\n    tag_249:\n        /* \"#utility.yul\":4287:4288   */\n      0x00\n        /* \"#utility.yul\":4297:4410   */\n    tag_319:\n        /* \"#utility.yul\":4311:4317   */\n      dup4\n        /* \"#utility.yul\":4308:4309   */\n      dup2\n        /* \"#utility.yul\":4305:4318   */\n      lt\n        /* \"#utility.yul\":4297:4410   */\n      iszero\n      tag_321\n      jumpi\n        /* \"#utility.yul\":4396:4397   */\n      dup1\n        /* \"#utility.yul\":4391:4394   */\n      dup3\n        /* \"#utility.yul\":4387:4398   */\n      add\n        /* \"#utility.yul\":4381:4399   */\n      mload\n        /* \"#utility.yul\":4377:4378   */\n      dup2\n        /* \"#utility.yul\":4372:4375   */\n      dup5\n        /* \"#utility.yul\":4368:4379   */\n      add\n        /* \"#utility.yul\":4361:4400   */\n      mstore\n        /* \"#utility.yul\":4333:4335   */\n      0x20\n        /* \"#utility.yul\":4330:4331   */\n      dup2\n        /* \"#utility.yul\":4326:4336   */\n      add\n        /* \"#utility.yul\":4321:4336   */\n      swap1\n      pop\n        /* \"#utility.yul\":4297:4410   */\n      jump(tag_319)\n    tag_321:\n        /* \"#utility.yul\":4444:4445   */\n      0x00\n        /* \"#utility.yul\":4435:4441   */\n      dup5\n        /* \"#utility.yul\":4430:4433   */\n      dup5\n        /* \"#utility.yul\":4426:4442   */\n      add\n        /* \"#utility.yul\":4419:4446   */\n      mstore\n        /* \"#utility.yul\":4268:4452   */\n      pop\n        /* \"#utility.yul\":4206:4452   */\n      pop\n      pop\n      pop\n      jump\t// out\n        /* \"#utility.yul\":4458:4560   */\n    tag_250:\n        /* \"#utility.yul\":4499:4505   */\n      0x00\n        /* \"#utility.yul\":4550:4552   */\n      0x1f\n        /* \"#utility.yul\":4546:4553   */\n      not\n        /* \"#utility.yul\":4541:4543   */\n      0x1f\n        /* \"#utility.yul\":4534:4539   */\n      dup4\n        /* \"#utility.yul\":4530:4544   */\n      add\n        /* \"#utility.yul\":4526:4554   */\n      and\n        /* \"#utility.yul\":4516:4554   */\n      swap1\n      pop\n        /* \"#utility.yul\":4458:4560   */\n      swap2\n      swap1\n      pop\n      jump\t// out\n        /* \"#utility.yul\":4566:4943   */\n    tag_251:\n        /* \"#utility.yul\":4654:4657   */\n      0x00\n        /* \"#utility.yul\":4682:4721   */\n      tag_324\n        /* \"#utility.yul\":4715:4720   */\n      dup3\n        /* \"#utility.yul\":4682:4721   */\n      tag_247\n      jump\t// in\n    tag_324:\n        /* \"#utility.yul\":4737:4808   */\n      tag_325\n        /* \"#utility.yul\":4801:4807   */\n      dup2\n        /* \"#utility.yul\":4796:4799   */\n      dup6\n        /* \"#utility.yul\":4737:4808   */\n      tag_248\n      jump\t// in\n    tag_325:\n        /* \"#utility.yul\":4730:4808   */\n      swap4\n      pop\n        /* \"#utility.yul\":4817:4882   */\n      tag_326\n        /* \"#utility.yul\":4875:4881   */\n      dup2\n        /* \"#utility.yul\":4870:4873   */\n      dup6\n        /* \"#utility.yul\":4863:4867   */\n      0x20\n        /* \"#utility.yul\":4856:4861   */\n      dup7\n        /* \"#utility.yul\":4852:4868   */\n      add\n        /* \"#utility.yul\":4817:4882   */\n      tag_249\n      jump\t// in\n    tag_326:\n        /* \"#utility.yul\":4907:4936   */\n      tag_327\n        /* \"#utility.yul\":4929:4935   */\n      dup2\n        /* \"#utility.yul\":4907:4936   */\n      tag_250\n      jump\t// in\n    tag_327:\n        /* \"#utility.yul\":4902:4905   */\n      dup5\n        /* \"#utility.yul\":4898:4937   */\n      add\n        /* \"#utility.yul\":4891:4937   */\n      swap2\n      pop\n        /* \"#utility.yul\":4658:4943   */\n      pop\n        /* \"#utility.yul\":4566:4943   */\n      swap3\n      swap2\n      pop\n      pop\n      jump\t// out\n        /* \"#utility.yul\":4949:5262   */\n    tag_77:\n        /* \"#utility.yul\":5062:5066   */\n      0x00\n        /* \"#utility.yul\":5100:5102   */\n      0x20\n        /* \"#utility.yul\":5089:5098   */\n      dup3\n        /* \"#utility.yul\":5085:5103   */\n      add\n        /* \"#utility.yul\":5077:5103   */\n      swap1\n      pop\n        /* \"#utility.yul\":5149:5158   */\n      dup2\n        /* \"#utility.yul\":5143:5147   */\n      dup2\n        /* \"#utility.yul\":5139:5159   */\n      sub\n        /* \"#utility.yul\":5135:5136   */\n      0x00\n        /* \"#utility.yul\":5124:5133   */\n      dup4\n        /* \"#utility.yul\":5120:5137   */\n      add\n        /* \"#utility.yul\":5113:5160   */\n      mstore\n        /* \"#utility.yul\":5177:5255   */\n      tag_329\n        /* \"#utility.yul\":5250:5254   */\n      dup2\n        /* \"#utility.yul\":5241:5247   */\n      dup5\n        /* \"#utility.yul\":5177:5255   */\n      tag_251\n      jump\t// in\n    tag_329:\n        /* \"#utility.yul\":5169:5255   */\n      swap1\n      pop\n        /* \"#utility.yul\":4949:5262   */\n      swap3\n      swap2\n      pop\n      pop\n      jump\t// out\n        /* \"#utility.yul\":5268:5328   */\n    tag_252:\n        /* \"#utility.yul\":5296:5299   */\n      0x00\n        /* \"#utility.yul\":5317:5322   */\n      dup2\n        /* \"#utility.yul\":5310:5322   */\n      swap1\n      pop\n        /* \"#utility.yul\":5268:5328   */\n      swap2\n      swap1\n      pop\n      jump\t// out\n        /* \"#utility.yul\":5334:5476   */\n    tag_253:\n        /* \"#utility.yul\":5384:5393   */\n      0x00\n        /* \"#utility.yul\":5417:5470   */\n      tag_332\n        /* \"#utility.yul\":5435:5469   */\n      tag_333\n        /* \"#utility.yul\":5444:5468   */\n      tag_334\n        /* \"#utility.yul\":5462:5467   */\n      dup5\n        /* \"#utility.yul\":5444:5468   */\n      tag_236\n      jump\t// in\n    tag_334:\n        /* \"#utility.yul\":5435:5469   */\n      tag_252\n      jump\t// in\n    tag_333:\n        /* \"#utility.yul\":5417:5470   */\n      tag_236\n      jump\t// in\n    tag_332:\n        /* \"#utility.yul\":5404:5470   */\n      swap1\n      pop\n        /* \"#utility.yul\":5334:5476   */\n      swap2\n      swap1\n      pop\n      jump\t// out\n        /* \"#utility.yul\":5482:5608   */\n    tag_254:\n        /* \"#utility.yul\":5532:5541   */\n      0x00\n        /* \"#utility.yul\":5565:5602   */\n      tag_336\n        /* \"#utility.yul\":5596:5601   */\n      dup3\n        /* \"#utility.yul\":5565:5602   */\n      tag_253\n      jump\t// in\n    tag_336:\n        /* \"#utility.yul\":5552:5602   */\n      swap1\n      pop\n        /* \"#utility.yul\":5482:5608   */\n      swap2\n      swap1\n      pop\n      jump\t// out\n        /* \"#utility.yul\":5614:5754   */\n    tag_255:\n        /* \"#utility.yul\":5678:5687   */\n      0x00\n        /* \"#utility.yul\":5711:5748   */\n      tag_338\n        /* \"#utility.yul\":5742:5747   */\n      dup3\n        /* \"#utility.yul\":5711:5748   */\n      tag_254\n      jump\t// in\n    tag_338:\n        /* \"#utility.yul\":5698:5748   */\n      swap1\n      pop\n        /* \"#utility.yul\":5614:5754   */\n      swap2\n      swap1\n      pop\n      jump\t// out\n        /* \"#utility.yul\":5760:5919   */\n    tag_256:\n        /* \"#utility.yul\":5861:5912   */\n      tag_340\n        /* \"#utility.yul\":5906:5911   */\n      dup2\n        /* \"#utility.yul\":5861:5912   */\n      tag_255\n      jump\t// in\n    tag_340:\n        /* \"#utility.yul\":5856:5859   */\n      dup3\n        /* \"#utility.yul\":5849:5913   */\n      mstore\n        /* \"#utility.yul\":5760:5919   */\n      pop\n      pop\n      jump\t// out\n        /* \"#utility.yul\":5925:6175   */\n    tag_81:\n        /* \"#utility.yul\":6032:6036   */\n      0x00\n        /* \"#utility.yul\":6070:6072   */\n      0x20\n        /* \"#utility.yul\":6059:6068   */\n      dup3\n        /* \"#utility.yul\":6055:6073   */\n      add\n        /* \"#utility.yul\":6047:6073   */\n      swap1\n      pop\n        /* \"#utility.yul\":6083:6168   */\n      tag_342\n        /* \"#utility.yul\":6165:6166   */\n      0x00\n        /* \"#utility.yul\":6154:6163   */\n      dup4\n        /* \"#utility.yul\":6150:6167   */\n      add\n        /* \"#utility.yul\":6141:6147   */\n      dup5\n        /* \"#utility.yul\":6083:6168   */\n      tag_256\n      jump\t// in\n    tag_342:\n        /* \"#utility.yul\":5925:6175   */\n      swap3\n      swap2\n      pop\n      pop\n      jump\t// out\n        /* \"#utility.yul\":6181:6324   */\n    tag_257:\n        /* \"#utility.yul\":6238:6243   */\n      0x00\n        /* \"#utility.yul\":6269:6275   */\n      dup2\n        /* \"#utility.yul\":6263:6276   */\n      mload\n        /* \"#utility.yul\":6254:6276   */\n      swap1\n      pop\n        /* \"#utility.yul\":6285:6318   */\n      tag_344\n        /* \"#utility.yul\":6312:6317   */\n      dup2\n        /* \"#utility.yul\":6285:6318   */\n      tag_241\n      jump\t// in\n    tag_344:\n        /* \"#utility.yul\":6181:6324   */\n      swap3\n      swap2\n      pop\n      pop\n      jump\t// out\n        /* \"#utility.yul\":6330:6681   */\n    tag_100:\n        /* \"#utility.yul\":6400:6406   */\n      0x00\n        /* \"#utility.yul\":6449:6451   */\n      0x20\n        /* \"#utility.yul\":6437:6446   */\n      dup3\n        /* \"#utility.yul\":6428:6435   */\n      dup5\n        /* \"#utility.yul\":6424:6447   */\n      sub\n        /* \"#utility.yul\":6420:6452   */\n      slt\n        /* \"#utility.yul\":6417:6536   */\n      iszero\n      tag_346\n      jumpi\n        /* \"#utility.yul\":6455:6534   */\n      tag_347\n      tag_234\n      jump\t// in\n    tag_347:\n        /* \"#utility.yul\":6417:6536   */\n    tag_346:\n        /* \"#utility.yul\":6575:6576   */\n      0x00\n        /* \"#utility.yul\":6600:6664   */\n      tag_348\n        /* \"#utility.yul\":6656:6663   */\n      dup5\n        /* \"#utility.yul\":6647:6653   */\n      dup3\n        /* \"#utility.yul\":6636:6645   */\n      dup6\n        /* \"#utility.yul\":6632:6654   */\n      add\n        /* \"#utility.yul\":6600:6664   */\n      tag_257\n      jump\t// in\n    tag_348:\n        /* \"#utility.yul\":6590:6664   */\n      swap2\n      pop\n        /* \"#utility.yul\":6546:6674   */\n      pop\n        /* \"#utility.yul\":6330:6681   */\n      swap3\n      swap2\n      pop\n      pop\n      jump\t// out\n        /* \"#utility.yul\":6687:6863   */\n    tag_258:\n        /* \"#utility.yul\":6827:6855   */\n      0x496e73756666696369656e74207374616b656420616d6f756e74000000000000\n        /* \"#utility.yul\":6823:6824   */\n      0x00\n        /* \"#utility.yul\":6815:6821   */\n      dup3\n        /* \"#utility.yul\":6811:6825   */\n      add\n        /* \"#utility.yul\":6804:6856   */\n      mstore\n        /* \"#utility.yul\":6687:6863   */\n      pop\n      jump\t// out\n        /* \"#utility.yul\":6869:7235   */\n    tag_259:\n        /* \"#utility.yul\":7011:7014   */\n      0x00\n        /* \"#utility.yul\":7032:7099   */\n      tag_351\n        /* \"#utility.yul\":7096:7098   */\n      0x1a\n        /* \"#utility.yul\":7091:7094   */\n      dup4\n        /* \"#utility.yul\":7032:7099   */\n      tag_248\n      jump\t// in\n    tag_351:\n        /* \"#utility.yul\":7025:7099   */\n      swap2\n      pop\n        /* \"#utility.yul\":7108:7201   */\n      tag_352\n        /* \"#utility.yul\":7197:7200   */\n      dup3\n        /* \"#utility.yul\":7108:7201   */\n      tag_258\n      jump\t// in\n    tag_352:\n        /* \"#utility.yul\":7226:7228   */\n      0x20\n        /* \"#utility.yul\":7221:7224   */\n      dup3\n        /* \"#utility.yul\":7217:7229   */\n      add\n        /* \"#utility.yul\":7210:7229   */\n      swap1\n      pop\n        /* \"#utility.yul\":6869:7235   */\n      swap2\n      swap1\n      pop\n      jump\t// out\n        /* \"#utility.yul\":7241:7660   */\n    tag_108:\n        /* \"#utility.yul\":7407:7411   */\n      0x00\n        /* \"#utility.yul\":7445:7447   */\n      0x20\n        /* \"#utility.yul\":7434:7443   */\n      dup3\n        /* \"#utility.yul\":7430:7448   */\n      add\n        /* \"#utility.yul\":7422:7448   */\n      swap1\n      pop\n        /* \"#utility.yul\":7494:7503   */\n      dup2\n        /* \"#utility.yul\":7488:7492   */\n      dup2\n        /* \"#utility.yul\":7484:7504   */\n      sub\n        /* \"#utility.yul\":7480:7481   */\n      0x00\n        /* \"#utility.yul\":7469:7478   */\n      dup4\n        /* \"#utility.yul\":7465:7482   */\n      add\n        /* \"#utility.yul\":7458:7505   */\n      mstore\n        /* \"#utility.yul\":7522:7653   */\n      tag_354\n        /* \"#utility.yul\":7648:7652   */\n      dup2\n        /* \"#utility.yul\":7522:7653   */\n      tag_259\n      jump\t// in\n    tag_354:\n        /* \"#utility.yul\":7514:7653   */\n      swap1\n      pop\n        /* \"#utility.yul\":7241:7660   */\n      swap2\n      swap1\n      pop\n      jump\t// out\n        /* \"#utility.yul\":7666:7846   */\n    tag_260:\n        /* \"#utility.yul\":7714:7791   */\n      0x4e487b7100000000000000000000000000000000000000000000000000000000\n        /* \"#utility.yul\":7711:7712   */\n      0x00\n        /* \"#utility.yul\":7704:7792   */\n      mstore\n        /* \"#utility.yul\":7811:7815   */\n      0x11\n        /* \"#utility.yul\":7808:7809   */\n      0x04\n        /* \"#utility.yul\":7801:7816   */\n      mstore\n        /* \"#utility.yul\":7835:7839   */\n      0x24\n        /* \"#utility.yul\":7832:7833   */\n      0x00\n        /* \"#utility.yul\":7825:7840   */\n      revert\n        /* \"#utility.yul\":7852:8046   */\n    tag_114:\n        /* \"#utility.yul\":7892:7896   */\n      0x00\n        /* \"#utility.yul\":7912:7932   */\n      tag_357\n        /* \"#utility.yul\":7930:7931   */\n      dup3\n        /* \"#utility.yul\":7912:7932   */\n      tag_240\n      jump\t// in\n    tag_357:\n        /* \"#utility.yul\":7907:7932   */\n      swap2\n      pop\n        /* \"#utility.yul\":7946:7966   */\n      tag_358\n        /* \"#utility.yul\":7964:7965   */\n      dup4\n        /* \"#utility.yul\":7946:7966   */\n      tag_240\n      jump\t// in\n    tag_358:\n        /* \"#utility.yul\":7941:7966   */\n      swap3\n      pop\n        /* \"#utility.yul\":7990:7991   */\n      dup3\n        /* \"#utility.yul\":7987:7988   */\n      dup3\n        /* \"#utility.yul\":7983:7992   */\n      sub\n        /* \"#utility.yul\":7975:7992   */\n      swap1\n      pop\n        /* \"#utility.yul\":8014:8015   */\n      dup2\n        /* \"#utility.yul\":8008:8012   */\n      dup2\n        /* \"#utility.yul\":8005:8016   */\n      gt\n        /* \"#utility.yul\":8002:8039   */\n      iszero\n      tag_359\n      jumpi\n        /* \"#utility.yul\":8019:8037   */\n      tag_360\n      tag_260\n      jump\t// in\n    tag_360:\n        /* \"#utility.yul\":8002:8039   */\n    tag_359:\n        /* \"#utility.yul\":7852:8046   */\n      swap3\n      swap2\n      pop\n      pop\n      jump\t// out\n        /* \"#utility.yul\":8052:8137   */\n    tag_261:\n        /* \"#utility.yul\":8097:8104   */\n      0x00\n        /* \"#utility.yul\":8126:8131   */\n      dup2\n        /* \"#utility.yul\":8115:8131   */\n      swap1\n      pop\n        /* \"#utility.yul\":8052:8137   */\n      swap2\n      swap1\n      pop\n      jump\t// out\n        /* \"#utility.yul\":8143:8301   */\n    tag_262:\n        /* \"#utility.yul\":8201:8210   */\n      0x00\n        /* \"#utility.yul\":8234:8295   */\n      tag_363\n        /* \"#utility.yul\":8252:8294   */\n      tag_364\n        /* \"#utility.yul\":8261:8293   */\n      tag_365\n        /* \"#utility.yul\":8287:8292   */\n      dup5\n        /* \"#utility.yul\":8261:8293   */\n      tag_261\n      jump\t// in\n    tag_365:\n        /* \"#utility.yul\":8252:8294   */\n      tag_252\n      jump\t// in\n    tag_364:\n        /* \"#utility.yul\":8234:8295   */\n      tag_240\n      jump\t// in\n    tag_363:\n        /* \"#utility.yul\":8221:8295   */\n      swap1\n      pop\n        /* \"#utility.yul\":8143:8301   */\n      swap2\n      swap1\n      pop\n      jump\t// out\n        /* \"#utility.yul\":8307:8454   */\n    tag_263:\n        /* \"#utility.yul\":8402:8447   */\n      tag_367\n        /* \"#utility.yul\":8441:8446   */\n      dup2\n        /* \"#utility.yul\":8402:8447   */\n      tag_262\n      jump\t// in\n    tag_367:\n        /* \"#utility.yul\":8397:8400   */\n      dup3\n        /* \"#utility.yul\":8390:8448   */\n      mstore\n        /* \"#utility.yul\":8307:8454   */\n      pop\n      pop\n      jump\t// out\n        /* \"#utility.yul\":8460:8698   */\n    tag_134:\n        /* \"#utility.yul\":8561:8565   */\n      0x00\n        /* \"#utility.yul\":8599:8601   */\n      0x20\n        /* \"#utility.yul\":8588:8597   */\n      dup3\n        /* \"#utility.yul\":8584:8602   */\n      add\n        /* \"#utility.yul\":8576:8602   */\n      swap1\n      pop\n        /* \"#utility.yul\":8612:8691   */\n      tag_369\n        /* \"#utility.yul\":8688:8689   */\n      0x00\n        /* \"#utility.yul\":8677:8686   */\n      dup4\n        /* \"#utility.yul\":8673:8690   */\n      add\n        /* \"#utility.yul\":8664:8670   */\n      dup5\n        /* \"#utility.yul\":8612:8691   */\n      tag_263\n      jump\t// in\n    tag_369:\n        /* \"#utility.yul\":8460:8698   */\n      swap3\n      swap2\n      pop\n      pop\n      jump\t// out\n        /* \"#utility.yul\":8704:8868   */\n    tag_264:\n        /* \"#utility.yul\":8844:8860   */\n      0x43616e6e6f74207374616b652030000000000000000000000000000000000000\n        /* \"#utility.yul\":8840:8841   */\n      0x00\n        /* \"#utility.yul\":8832:8838   */\n      dup3\n        /* \"#utility.yul\":8828:8842   */\n      add\n        /* \"#utility.yul\":8821:8861   */\n      mstore\n        /* \"#utility.yul\":8704:8868   */\n      pop\n      jump\t// out\n        /* \"#utility.yul\":8874:9240   */\n    tag_265:\n        /* \"#utility.yul\":9016:9019   */\n      0x00\n        /* \"#utility.yul\":9037:9104   */\n      tag_372\n        /* \"#utility.yul\":9101:9103   */\n      0x0e\n        /* \"#utility.yul\":9096:9099   */\n      dup4\n        /* \"#utility.yul\":9037:9104   */\n      tag_248\n      jump\t// in\n    tag_372:\n        /* \"#utility.yul\":9030:9104   */\n      swap2\n      pop\n        /* \"#utility.yul\":9113:9206   */\n      tag_373\n        /* \"#utility.yul\":9202:9205   */\n      dup3\n        /* \"#utility.yul\":9113:9206   */\n      tag_264\n      jump\t// in\n    tag_373:\n        /* \"#utility.yul\":9231:9233   */\n      0x20\n        /* \"#utility.yul\":9226:9229   */\n      dup3\n        /* \"#utility.yul\":9222:9234   */\n      add\n        /* \"#utility.yul\":9215:9234   */\n      swap1\n      pop\n        /* \"#utility.yul\":8874:9240   */\n      swap2\n      swap1\n      pop\n      jump\t// out\n        /* \"#utility.yul\":9246:9665   */\n    tag_168:\n        /* \"#utility.yul\":9412:9416   */\n      0x00\n        /* \"#utility.yul\":9450:9452   */\n      0x20\n        /* \"#utility.yul\":9439:9448   */\n      dup3\n        /* \"#utility.yul\":9435:9453   */\n      add\n        /* \"#utility.yul\":9427:9453   */\n      swap1\n      pop\n        /* \"#utility.yul\":9499:9508   */\n      dup2\n        /* \"#utility.yul\":9493:9497   */\n      dup2\n        /* \"#utility.yul\":9489:9509   */\n      sub\n        /* \"#utility.yul\":9485:9486   */\n      0x00\n        /* \"#utility.yul\":9474:9483   */\n      dup4\n        /* \"#utility.yul\":9470:9487   */\n      add\n        /* \"#utility.yul\":9463:9510   */\n      mstore\n        /* \"#utility.yul\":9527:9658   */\n      tag_375\n        /* \"#utility.yul\":9653:9657   */\n      dup2\n        /* \"#utility.yul\":9527:9658   */\n      tag_265\n      jump\t// in\n    tag_375:\n        /* \"#utility.yul\":9519:9658   */\n      swap1\n      pop\n        /* \"#utility.yul\":9246:9665   */\n      swap2\n      swap1\n      pop\n      jump\t// out\n        /* \"#utility.yul\":9671:9862   */\n    tag_176:\n        /* \"#utility.yul\":9711:9714   */\n      0x00\n        /* \"#utility.yul\":9730:9750   */\n      tag_377\n        /* \"#utility.yul\":9748:9749   */\n      dup3\n        /* \"#utility.yul\":9730:9750   */\n      tag_240\n      jump\t// in\n    tag_377:\n        /* \"#utility.yul\":9725:9750   */\n      swap2\n      pop\n        /* \"#utility.yul\":9764:9784   */\n      tag_378\n        /* \"#utility.yul\":9782:9783   */\n      dup4\n        /* \"#utility.yul\":9764:9784   */\n      tag_240\n      jump\t// in\n    tag_378:\n        /* \"#utility.yul\":9759:9784   */\n      swap3\n      pop\n        /* \"#utility.yul\":9807:9808   */\n      dup3\n        /* \"#utility.yul\":9804:9805   */\n      dup3\n        /* \"#utility.yul\":9800:9809   */\n      add\n        /* \"#utility.yul\":9793:9809   */\n      swap1\n      pop\n        /* \"#utility.yul\":9828:9831   */\n      dup1\n        /* \"#utility.yul\":9825:9826   */\n      dup3\n        /* \"#utility.yul\":9822:9832   */\n      gt\n        /* \"#utility.yul\":9819:9855   */\n      iszero\n      tag_379\n      jumpi\n        /* \"#utility.yul\":9835:9853   */\n      tag_380\n      tag_260\n      jump\t// in\n    tag_380:\n        /* \"#utility.yul\":9819:9855   */\n    tag_379:\n        /* \"#utility.yul\":9671:9862   */\n      swap3\n      swap2\n      pop\n      pop\n      jump\t// out\n        /* \"#utility.yul\":9868:10200   */\n    tag_186:\n        /* \"#utility.yul\":9989:9993   */\n      0x00\n        /* \"#utility.yul\":10027:10029   */\n      0x40\n        /* \"#utility.yul\":10016:10025   */\n      dup3\n        /* \"#utility.yul\":10012:10030   */\n      add\n        /* \"#utility.yul\":10004:10030   */\n      swap1\n      pop\n        /* \"#utility.yul\":10040:10111   */\n      tag_382\n        /* \"#utility.yul\":10108:10109   */\n      0x00\n        /* \"#utility.yul\":10097:10106   */\n      dup4\n        /* \"#utility.yul\":10093:10110   */\n      add\n        /* \"#utility.yul\":10084:10090   */\n      dup6\n        /* \"#utility.yul\":10040:10111   */\n      tag_245\n      jump\t// in\n    tag_382:\n        /* \"#utility.yul\":10121:10193   */\n      tag_383\n        /* \"#utility.yul\":10189:10191   */\n      0x20\n        /* \"#utility.yul\":10178:10187   */\n      dup4\n        /* \"#utility.yul\":10174:10192   */\n      add\n        /* \"#utility.yul\":10165:10171   */\n      dup5\n        /* \"#utility.yul\":10121:10193   */\n      tag_245\n      jump\t// in\n    tag_383:\n        /* \"#utility.yul\":9868:10200   */\n      swap4\n      swap3\n      pop\n      pop\n      pop\n      jump\t// out\n        /* \"#utility.yul\":10206:10382   */\n    tag_266:\n        /* \"#utility.yul\":10346:10374   */\n      0x43616e6e6f74207265636f7665722048454c4d20746f6b656e73000000000000\n        /* \"#utility.yul\":10342:10343   */\n      0x00\n        /* \"#utility.yul\":10334:10340   */\n      dup3\n        /* \"#utility.yul\":10330:10344   */\n      add\n        /* \"#utility.yul\":10323:10375   */\n      mstore\n        /* \"#utility.yul\":10206:10382   */\n      pop\n      jump\t// out\n        /* \"#utility.yul\":10388:10754   */\n    tag_267:\n        /* \"#utility.yul\":10530:10533   */\n      0x00\n        /* \"#utility.yul\":10551:10618   */\n      tag_386\n        /* \"#utility.yul\":10615:10617   */\n      0x1a\n        /* \"#utility.yul\":10610:10613   */\n      dup4\n        /* \"#utility.yul\":10551:10618   */\n      tag_248\n      jump\t// in\n    tag_386:\n        /* \"#utility.yul\":10544:10618   */\n      swap2\n      pop\n        /* \"#utility.yul\":10627:10720   */\n      tag_387\n        /* \"#utility.yul\":10716:10719   */\n      dup3\n        /* \"#utility.yul\":10627:10720   */\n      tag_266\n      jump\t// in\n    tag_387:\n        /* \"#utility.yul\":10745:10747   */\n      0x20\n        /* \"#utility.yul\":10740:10743   */\n      dup3\n        /* \"#utility.yul\":10736:10748   */\n      add\n        /* \"#utility.yul\":10729:10748   */\n      swap1\n      pop\n        /* \"#utility.yul\":10388:10754   */\n      swap2\n      swap1\n      pop\n      jump\t// out\n        /* \"#utility.yul\":10760:11179   */\n    tag_193:\n        /* \"#utility.yul\":10926:10930   */\n      0x00\n        /* \"#utility.yul\":10964:10966   */\n      0x20\n        /* \"#utility.yul\":10953:10962   */\n      dup3\n        /* \"#utility.yul\":10949:10967   */\n      add\n        /* \"#utility.yul\":10941:10967   */\n      swap1\n      pop\n        /* \"#utility.yul\":11013:11022   */\n      dup2\n        /* \"#utility.yul\":11007:11011   */\n      dup2\n        /* \"#utility.yul\":11003:11023   */\n      sub\n        /* \"#utility.yul\":10999:11000   */\n      0x00\n        /* \"#utility.yul\":10988:10997   */\n      dup4\n        /* \"#utility.yul\":10984:11001   */\n      add\n        /* \"#utility.yul\":10977:11024   */\n      mstore\n        /* \"#utility.yul\":11041:11172   */\n      tag_389\n        /* \"#utility.yul\":11167:11171   */\n      dup2\n        /* \"#utility.yul\":11041:11172   */\n      tag_267\n      jump\t// in\n    tag_389:\n        /* \"#utility.yul\":11033:11172   */\n      swap1\n      pop\n        /* \"#utility.yul\":10760:11179   */\n      swap2\n      swap1\n      pop\n      jump\t// out\n        /* \"#utility.yul\":11185:11517   */\n    tag_211:\n        /* \"#utility.yul\":11306:11310   */\n      0x00\n        /* \"#utility.yul\":11344:11346   */\n      0x40\n        /* \"#utility.yul\":11333:11342   */\n      dup3\n        /* \"#utility.yul\":11329:11347   */\n      add\n        /* \"#utility.yul\":11321:11347   */\n      swap1\n      pop\n        /* \"#utility.yul\":11357:11428   */\n      tag_391\n        /* \"#utility.yul\":11425:11426   */\n      0x00\n        /* \"#utility.yul\":11414:11423   */\n      dup4\n        /* \"#utility.yul\":11410:11427   */\n      add\n        /* \"#utility.yul\":11401:11407   */\n      dup6\n        /* \"#utility.yul\":11357:11428   */\n      tag_246\n      jump\t// in\n    tag_391:\n        /* \"#utility.yul\":11438:11510   */\n      tag_392\n        /* \"#utility.yul\":11506:11508   */\n      0x20\n        /* \"#utility.yul\":11495:11504   */\n      dup4\n        /* \"#utility.yul\":11491:11509   */\n      add\n        /* \"#utility.yul\":11482:11488   */\n      dup5\n        /* \"#utility.yul\":11438:11510   */\n      tag_245\n      jump\t// in\n    tag_392:\n        /* \"#utility.yul\":11185:11517   */\n      swap4\n      swap3\n      pop\n      pop\n      pop\n      jump\t// out\n        /* \"#utility.yul\":11523:11965   */\n    tag_225:\n        /* \"#utility.yul\":11672:11676   */\n      0x00\n        /* \"#utility.yul\":11710:11712   */\n      0x60\n        /* \"#utility.yul\":11699:11708   */\n      dup3\n        /* \"#utility.yul\":11695:11713   */\n      add\n        /* \"#utility.yul\":11687:11713   */\n      swap1\n      pop\n        /* \"#utility.yul\":11723:11794   */\n      tag_394\n        /* \"#utility.yul\":11791:11792   */\n      0x00\n        /* \"#utility.yul\":11780:11789   */\n      dup4\n        /* \"#utility.yul\":11776:11793   */\n      add\n        /* \"#utility.yul\":11767:11773   */\n      dup7\n        /* \"#utility.yul\":11723:11794   */\n      tag_246\n      jump\t// in\n    tag_394:\n        /* \"#utility.yul\":11804:11876   */\n      tag_395\n        /* \"#utility.yul\":11872:11874   */\n      0x20\n        /* \"#utility.yul\":11861:11870   */\n      dup4\n        /* \"#utility.yul\":11857:11875   */\n      add\n        /* \"#utility.yul\":11848:11854   */\n      dup6\n        /* \"#utility.yul\":11804:11876   */\n      tag_246\n      jump\t// in\n    tag_395:\n        /* \"#utility.yul\":11886:11958   */\n      tag_396\n        /* \"#utility.yul\":11954:11956   */\n      0x40\n        /* \"#utility.yul\":11943:11952   */\n      dup4\n        /* \"#utility.yul\":11939:11957   */\n      add\n        /* \"#utility.yul\":11930:11936   */\n      dup5\n        /* \"#utility.yul\":11886:11958   */\n      tag_245\n      jump\t// in\n    tag_396:\n        /* \"#utility.yul\":11523:11965   */\n      swap5\n      swap4\n      pop\n      pop\n      pop\n      pop\n      jump\t// out\n\n    auxdata: 0xa26469706673582212207f08d95d2de5c53f43a62dc42352b393d52808f4c6a8600462fcab98f6ae492c64736f6c63430008140033\n}\n",
    "bytecode": {
      "linkReferences": {},
      "object": "60a060405234801562000010575f80fd5b5060405162001de138038062001de1833981810160405281019062000036919062000295565b335f73ffffffffffffffffffffffffffffffffffffffff168173ffffffffffffffffffffffffffffffffffffffff1603620000aa575f6040517f1e4fbdf7000000000000000000000000000000000000000000000000000000008152600401620000a19190620002d6565b60405180910390fd5b620000bb816200016f60201b60201c565b50600180819055505f73ffffffffffffffffffffffffffffffffffffffff168173ffffffffffffffffffffffffffffffffffffffff160362000134576040517f08c379a00000000000000000000000000000000000000000000000000000000081526004016200012b906200034f565b60405180910390fd5b8073ffffffffffffffffffffffffffffffffffffffff1660808173ffffffffffffffffffffffffffffffffffffffff1681525050506200036f565b5f805f9054906101000a900473ffffffffffffffffffffffffffffffffffffffff169050815f806101000a81548173ffffffffffffffffffffffffffffffffffffffff021916908373ffffffffffffffffffffffffffffffffffffffff1602179055508173ffffffffffffffffffffffffffffffffffffffff168173ffffffffffffffffffffffffffffffffffffffff167f8be0079c531659141344cd1fd0a4f28419497f9722a3daafe3b4186f6b6457e060405160405180910390a35050565b5f80fd5b5f73ffffffffffffffffffffffffffffffffffffffff82169050919050565b5f6200025f8262000234565b9050919050565b620002718162000253565b81146200027c575f80fd5b50565b5f815190506200028f8162000266565b92915050565b5f60208284031215620002ad57620002ac62000230565b5b5f620002bc848285016200027f565b91505092915050565b620002d08162000253565b82525050565b5f602082019050620002eb5f830184620002c5565b92915050565b5f82825260208201905092915050565b7f496e76616c696420746f6b656e206164647265737300000000000000000000005f82015250565b5f62000337601583620002f1565b9150620003448262000301565b602082019050919050565b5f6020820190508181035f830152620003688162000329565b9050919050565b608051611a36620003ab5f395f81816105d0015281816107fa015281816109d201528181610c1401528181610d030152610f080152611a365ff3fe608060405234801561000f575f80fd5b506004361061011f575f3560e01c80637a766460116100ab5780639b5f7d811161006f5780639b5f7d81146102f9578063a694fc3a14610317578063b29a814014610333578063b45aae521461034f578063f2fde38b1461037f5761011f565b80637a7664601461023f578063817b1cd21461026f5780638b3fddc41461028d5780638da5cb5b146102ab578063980eedf0146102c95761011f565b806335322f37116100f257806335322f37146101bf5780635e4c23dc146101c957806369fea994146101e75780636f9fb98a14610217578063715018a6146102355761011f565b806301a035331461012357806311a2b05a1461015357806316934fc4146101715780632e17de78146101a3575b5f80fd5b61013d600480360381019061013891906114b7565b61039b565b60405161014a919061150f565b60405180910390f35b61015b61041f565b6040516101689190611537565b60405180910390f35b61018b60048036038101906101869190611550565b61042d565b60405161019a9392919061157b565b60405180910390f35b6101bd60048036038101906101b891906115b0565b610453565b005b6101c7610742565b005b6101d16108e6565b6040516101de9190611537565b60405180910390f35b61020160048036038101906101fc9190611550565b6108f3565b60405161020e9190611537565b60405180910390f35b61021f6109cf565b60405161022c9190611537565b60405180910390f35b61023d610a6d565b005b61025960048036038101906102549190611550565b610a80565b6040516102669190611537565b60405180910390f35b610277610ac8565b6040516102849190611537565b60405180910390f35b610295610ace565b6040516102a29190611537565b60405180910390f35b6102b3610adc565b6040516102c091906115ea565b60405180910390f35b6102e360048036038101906102de91906115b0565b610b03565b6040516102f0919061168d565b60405180910390f35b610301610c12565b60405161030e9190611708565b60405180910390f35b610331600480360381019061032c91906115b0565b610c36565b005b61034d600480360381019061034891906114b7565b610efe565b005b61036960048036038101906103649190611550565b610fca565b6040516103769190611537565b60405180910390f35b61039960048036038101906103949190611550565b611068565b005b5f813073ffffffffffffffffffffffffffffffffffffffff1663b45aae52856040518263ffffffff1660e01b81526004016103d691906115ea565b602060405180830381865afa1580156103f1573d5f803e3d5ffd5b505050506040513d601f19601f820116820180604052508101906104159190611735565b1015905092915050565b69021e19e0c9bab240000081565b6002602052805f5260405f205f91509050805f0154908060010154908060020154905083565b61045b6110ec565b5f60025f3373ffffffffffffffffffffffffffffffffffffffff1673ffffffffffffffffffffffffffffffffffffffff1681526020019081526020015f2090505f815f0154036104d7576040517f59be8f0200000000000000000000000000000000000000000000000000000000815260040160405180910390fd5b805f015482111561051d576040517f08c379a0000000000000000000000000000000000000000000000000000000008152600401610514906117aa565b60405180910390fd5b5f3073ffffffffffffffffffffffffffffffffffffffff1663b45aae52336040518263ffffffff1660e01b815260040161055791906115ea565b602060405180830381865afa158015610572573d5f803e3d5ffd5b505050506040513d601f19601f820116820180604052508101906105969190611735565b905082825f015f8282546105aa91906117f5565b925050819055508260035f8282546105c291906117f5565b9250508190555061061433847f000000000000000000000000000000000000000000000000000000000000000073ffffffffffffffffffffffffffffffffffffffff166111329092919063ffffffff16565b5f3073ffffffffffffffffffffffffffffffffffffffff1663b45aae52336040518263ffffffff1660e01b815260040161064e91906115ea565b602060405180830381865afa158015610669573d5f803e3d5ffd5b505050506040513d601f19601f8201168201806040525081019061068d9190611735565b9050818110156106e6573373ffffffffffffffffffffffffffffffffffffffff167f870c88666ddfd96dc1bcc353170570ad18a5ddec6ab988c1abb5f71823984ec4826040516106dd9190611537565b60405180910390a25b3373ffffffffffffffffffffffffffffffffffffffff167f0f5bb82176feb1b5e747e28471aa92156a04d9f3ab9f45f28e2d704232b93f758560405161072c9190611537565b60405180910390a250505061073f6111b1565b50565b61074a6110ec565b5f60025f3373ffffffffffffffffffffffffffffffffffffffff1673ffffffffffffffffffffffffffffffffffffffff1681526020019081526020015f2090505f815f015490505f81036107ca576040517f59be8f0200000000000000000000000000000000000000000000000000000000815260040160405180910390fd5b5f825f01819055505f82600101819055508060035f8282546107ec91906117f5565b9250508190555061083e33827f000000000000000000000000000000000000000000000000000000000000000073ffffffffffffffffffffffffffffffffffffffff166111329092919063ffffffff16565b3373ffffffffffffffffffffffffffffffffffffffff167f870c88666ddfd96dc1bcc353170570ad18a5ddec6ab988c1abb5f71823984ec45f6040516108849190611861565b60405180910390a23373ffffffffffffffffffffffffffffffffffffffff167f0f5bb82176feb1b5e747e28471aa92156a04d9f3ab9f45f28e2d704232b93f75826040516108d29190611537565b60405180910390a250506108e46111b1565b565b683635c9adc5dea0000081565b5f8060025f8473ffffffffffffffffffffffffffffffffffffffff1673ffffffffffffffffffffffffffffffffffffffff1681526020019081526020015f205f01549050683635c9adc5dea000008110156109655780683635c9adc5dea0000061095d91906117f5565b9150506109ca565b69021e19e0c9bab2400000811015610995578069021e19e0c9bab240000061098d91906117f5565b9150506109ca565b69152d02c7e14af68000008110156109c5578069152d02c7e14af68000006109bd91906117f5565b9150506109ca565b5f9150505b919050565b5f7f000000000000000000000000000000000000000000000000000000000000000073ffffffffffffffffffffffffffffffffffffffff166370a08231306040518263ffffffff1660e01b8152600401610a2991906115ea565b602060405180830381865afa158015610a44573d5f803e3d5ffd5b505050506040513d601f19601f82011682018060405250810190610a689190611735565b905090565b610a756111ba565b610a7e5f611241565b565b5f60025f8373ffffffffffffffffffffffffffffffffffffffff1673ffffffffffffffffffffffffffffffffffffffff1681526020019081526020015f205f01549050919050565b60035481565b69152d02c7e14af680000081565b5f805f9054906101000a900473ffffffffffffffffffffffffffffffffffffffff16905090565b606060038203610b4a576040518060400160405280600581526020017f466c6565740000000000000000000000000000000000000000000000000000008152509050610c0d565b60028203610b8f576040518060400160405280600981526020017f4e6176696761746f7200000000000000000000000000000000000000000000008152509050610c0d565b60018203610bd4576040518060400160405280600481526020017f48454c4d000000000000000000000000000000000000000000000000000000008152509050610c0d565b6040518060400160405280600481526020017f467265650000000000000000000000000000000000000000000000000000000081525090505b919050565b7f000000000000000000000000000000000000000000000000000000000000000081565b610c3e6110ec565b5f8111610c80576040517f08c379a0000000000000000000000000000000000000000000000000000000008152600401610c77906118c4565b60405180910390fd5b5f3073ffffffffffffffffffffffffffffffffffffffff1663b45aae52336040518263ffffffff1660e01b8152600401610cba91906115ea565b602060405180830381865afa158015610cd5573d5f803e3d5ffd5b505050506040513d601f19601f82011682018060405250810190610cf99190611735565b9050610d483330847f000000000000000000000000000000000000000000000000000000000000000073ffffffffffffffffffffffffffffffffffffffff16611302909392919063ffffffff16565b5f60025f3373ffffffffffffffffffffffffffffffffffffffff1673ffffffffffffffffffffffffffffffffffffffff1681526020019081526020015f20905082815f015f828254610d9a91906118e2565b925050819055505f816001015403610db6574281600101819055505b8260035f828254610dc791906118e2565b925050819055505f3073ffffffffffffffffffffffffffffffffffffffff1663b45aae52336040518263ffffffff1660e01b8152600401610e0891906115ea565b602060405180830381865afa158015610e23573d5f803e3d5ffd5b505050506040513d601f19601f82011682018060405250810190610e479190611735565b905082811115610ea0573373ffffffffffffffffffffffffffffffffffffffff167fa3f9159b0f8e37ad233c38f01317295984b2365aac02d2f555e91e395e64b62682604051610e979190611537565b60405180910390a25b3373ffffffffffffffffffffffffffffffffffffffff167f1449c6dd7851abc30abf37f57715f492010519147cc2652fbc38202c18a6ee908583604051610ee8929190611915565b60405180910390a2505050610efb6111b1565b50565b610f066111ba565b7f000000000000000000000000000000000000000000000000000000000000000073ffffffffffffffffffffffffffffffffffffffff168273ffffffffffffffffffffffffffffffffffffffff1603610f94576040517f08c379a0000000000000000000000000000000000000000000000000000000008152600401610f8b90611986565b60405180910390fd5b610fc6610f9f610adc565b828473ffffffffffffffffffffffffffffffffffffffff166111329092919063ffffffff16565b5050565b5f8060025f8473ffffffffffffffffffffffffffffffffffffffff1673ffffffffffffffffffffffffffffffffffffffff1681526020019081526020015f205f0154905069152d02c7e14af68000008110611029576003915050611063565b69021e19e0c9bab24000008110611044576002915050611063565b683635c9adc5dea00000811061105e576001915050611063565b5f9150505b919050565b6110706111ba565b5f73ffffffffffffffffffffffffffffffffffffffff168173ffffffffffffffffffffffffffffffffffffffff16036110e0575f6040517f1e4fbdf70000000000000000000000000000000000000000000000000000000081526004016110d791906115ea565b60405180910390fd5b6110e981611241565b50565b600260015403611128576040517f3ee5aeb500000000000000000000000000000000000000000000000000000000815260040160405180910390fd5b6002600181905550565b6111ac838473ffffffffffffffffffffffffffffffffffffffff1663a9059cbb85856040516024016111659291906119a4565b604051602081830303815290604052915060e01b6020820180517bffffffffffffffffffffffffffffffffffffffffffffffffffffffff8381831617835250505050611384565b505050565b60018081905550565b6111c261141f565b73ffffffffffffffffffffffffffffffffffffffff166111e0610adc565b73ffffffffffffffffffffffffffffffffffffffff161461123f5761120361141f565b6040517f118cdaa700000000000000000000000000000000000000000000000000000000815260040161123691906115ea565b60405180910390fd5b565b5f805f9054906101000a900473ffffffffffffffffffffffffffffffffffffffff169050815f806101000a81548173ffffffffffffffffffffffffffffffffffffffff021916908373ffffffffffffffffffffffffffffffffffffffff1602179055508173ffffffffffffffffffffffffffffffffffffffff168173ffffffffffffffffffffffffffffffffffffffff167f8be0079c531659141344cd1fd0a4f28419497f9722a3daafe3b4186f6b6457e060405160405180910390a35050565b61137e848573ffffffffffffffffffffffffffffffffffffffff166323b872dd868686604051602401611337939291906119cb565b604051602081830303815290604052915060e01b6020820180517bffffffffffffffffffffffffffffffffffffffffffffffffffffffff8381831617835250505050611384565b50505050565b5f8060205f8451602086015f885af1806113a3576040513d5f823e3d81fd5b3d92505f519150505f82146113bc5760018114156113d7565b5f8473ffffffffffffffffffffffffffffffffffffffff163b145b1561141957836040517f5274afe700000000000000000000000000000000000000000000000000000000815260040161141091906115ea565b60405180910390fd5b50505050565b5f33905090565b5f80fd5b5f73ffffffffffffffffffffffffffffffffffffffff82169050919050565b5f6114538261142a565b9050919050565b61146381611449565b811461146d575f80fd5b50565b5f8135905061147e8161145a565b92915050565b5f819050919050565b61149681611484565b81146114a0575f80fd5b50565b5f813590506114b18161148d565b92915050565b5f80604083850312156114cd576114cc611426565b5b5f6114da85828601611470565b92505060206114eb858286016114a3565b9150509250929050565b5f8115159050919050565b611509816114f5565b82525050565b5f6020820190506115225f830184611500565b92915050565b61153181611484565b82525050565b5f60208201905061154a5f830184611528565b92915050565b5f6020828403121561156557611564611426565b5b5f61157284828501611470565b91505092915050565b5f60608201905061158e5f830186611528565b61159b6020830185611528565b6115a86040830184611528565b949350505050565b5f602082840312156115c5576115c4611426565b5b5f6115d2848285016114a3565b91505092915050565b6115e481611449565b82525050565b5f6020820190506115fd5f8301846115db565b92915050565b5f81519050919050565b5f82825260208201905092915050565b5f5b8381101561163a57808201518184015260208101905061161f565b5f8484015250505050565b5f601f19601f8301169050919050565b5f61165f82611603565b611669818561160d565b935061167981856020860161161d565b61168281611645565b840191505092915050565b5f6020820190508181035f8301526116a58184611655565b905092915050565b5f819050919050565b5f6116d06116cb6116c68461142a565b6116ad565b61142a565b9050919050565b5f6116e1826116b6565b9050919050565b5f6116f2826116d7565b9050919050565b611702816116e8565b82525050565b5f60208201905061171b5f8301846116f9565b92915050565b5f8151905061172f8161148d565b92915050565b5f6020828403121561174a57611749611426565b5b5f61175784828501611721565b91505092915050565b7f496e73756666696369656e74207374616b656420616d6f756e740000000000005f82015250565b5f611794601a8361160d565b915061179f82611760565b602082019050919050565b5f6020820190508181035f8301526117c181611788565b9050919050565b7f4e487b71000000000000000000000000000000000000000000000000000000005f52601160045260245ffd5b5f6117ff82611484565b915061180a83611484565b9250828203905081811115611822576118216117c8565b5b92915050565b5f819050919050565b5f61184b61184661184184611828565b6116ad565b611484565b9050919050565b61185b81611831565b82525050565b5f6020820190506118745f830184611852565b92915050565b7f43616e6e6f74207374616b6520300000000000000000000000000000000000005f82015250565b5f6118ae600e8361160d565b91506118b98261187a565b602082019050919050565b5f6020820190508181035f8301526118db816118a2565b9050919050565b5f6118ec82611484565b91506118f783611484565b925082820190508082111561190f5761190e6117c8565b5b92915050565b5f6040820190506119285f830185611528565b6119356020830184611528565b9392505050565b7f43616e6e6f74207265636f7665722048454c4d20746f6b656e730000000000005f82015250565b5f611970601a8361160d565b915061197b8261193c565b602082019050919050565b5f6020820190508181035f83015261199d81611964565b9050919050565b5f6040820190506119b75f8301856115db565b6119c46020830184611528565b9392505050565b5f6060820190506119de5f8301866115db565b6119eb60208301856115db565b6119f86040830184611528565b94935050505056fea26469706673582212207f08d95d2de5c53f43a62dc42352b393d52808f4c6a8600462fcab98f6ae492c64736f6c63430008140033",
      "opcodes": "PUSH1 0xA0 PUSH1 0x40 MSTORE CALLVALUE DUP1 ISZERO PUSH3 0x10 JUMPI PUSH0 DUP1 REVERT JUMPDEST POP PUSH1 0x40 MLOAD PUSH3 0x1DE1 CODESIZE SUB DUP1 PUSH3 0x1DE1 DUP4 CODECOPY DUP2 DUP2 ADD PUSH1 0x40 MSTORE DUP2 ADD SWAP1 PUSH3 0x36 SWAP2 SWAP1 PUSH3 0x295 JUMP JUMPDEST CALLER PUSH0 PUSH20 0xFFFFFFFFFFFFFFFFFFFFFFFFFFFFFFFFFFFFFFFF AND DUP2 PUSH20 0xFFFFFFFFFFFFFFFFFFFFFFFFFFFFFFFFFFFFFFFF AND SUB PUSH3 0xAA JUMPI PUSH0 PUSH1 0x40 MLOAD PUSH32 0x1E4FBDF700000000000000000000000000000000000000000000000000000000 DUP2 MSTORE PUSH1 0x4 ADD PUSH3 0xA1 SWAP2 SWAP1 PUSH3 0x2D6 JUMP JUMPDEST PUSH1 0x40 MLOAD DUP1 SWAP2 SUB SWAP1 REVERT JUMPDEST PUSH3 0xBB DUP2 PUSH3 0x16F PUSH1 0x20 SHL PUSH1 0x20 SHR JUMP JUMPDEST POP PUSH1 0x1 DUP1 DUP2 SWAP1 SSTORE POP PUSH0 PUSH20 0xFFFFFFFFFFFFFFFFFFFFFFFFFFFFFFFFFFFFFFFF AND DUP2 PUSH20 0xFFFFFFFFFFFFFFFFFFFFFFFFFFFFFFFFFFFFFFFF AND SUB PUSH3 0x134 JUMPI PUSH1 0x40 MLOAD PUSH32 0x8C379A000000000000000000000000000000000000000000000000000000000 DUP2 MSTORE PUSH1 0x4 ADD PUSH3 0x12B SWAP1 PUSH3 0x34F JUMP JUMPDEST PUSH1 0x40 MLOAD DUP1 SWAP2 SUB SWAP1 REVERT JUMPDEST DUP1 PUSH20 0xFFFFFFFFFFFFFFFFFFFFFFFFFFFFFFFFFFFFFFFF AND PUSH1 0x80 DUP2 PUSH20 0xFFFFFFFFFFFFFFFFFFFFFFFFFFFFFFFFFFFFFFFF AND DUP2 MSTORE POP POP POP PUSH3 0x36F JUMP JUMPDEST PUSH0 DUP1 PUSH0 SWAP1 SLOAD SWAP1 PUSH2 0x100 EXP SWAP1 DIV PUSH20 0xFFFFFFFFFFFFFFFFFFFFFFFFFFFFFFFFFFFFFFFF AND SWAP1 POP DUP2 PUSH0 DUP1 PUSH2 0x100 EXP DUP2 SLOAD DUP2 PUSH20 0xFFFFFFFFFFFFFFFFFFFFFFFFFFFFFFFFFFFFFFFF MUL NOT AND SWAP1 DUP4 PUSH20 0xFFFFFFFFFFFFFFFFFFFFFFFFFFFFFFFFFFFFFFFF AND MUL OR SWAP1 SSTORE POP DUP2 PUSH20 0xFFFFFFFFFFFFFFFFFFFFFFFFFFFFFFFFFFFFFFFF AND DUP2 PUSH20 0xFFFFFFFFFFFFFFFFFFFFFFFFFFFFFFFFFFFFFFFF AND PUSH32 0x8BE0079C531659141344CD1FD0A4F28419497F9722A3DAAFE3B4186F6B6457E0 PUSH1 0x40 MLOAD PUSH1 0x40 MLOAD DUP1 SWAP2 SUB SWAP1 LOG3 POP POP JUMP JUMPDEST PUSH0 DUP1 REVERT JUMPDEST PUSH0 PUSH20 0xFFFFFFFFFFFFFFFFFFFFFFFFFFFFFFFFFFFFFFFF DUP3 AND SWAP1 POP SWAP2 SWAP1 POP JUMP JUMPDEST PUSH0 PUSH3 0x25F DUP3 PUSH3 0x234 JUMP JUMPDEST SWAP1 POP SWAP2 SWAP1 POP JUMP JUMPDEST PUSH3 0x271 DUP2 PUSH3 0x253 JUMP JUMPDEST DUP2 EQ PUSH3 0x27C JUMPI PUSH0 DUP1 REVERT JUMPDEST POP JUMP JUMPDEST PUSH0 DUP2 MLOAD SWAP1 POP PUSH3 0x28F DUP2 PUSH3 0x266 JUMP JUMPDEST SWAP3 SWAP2 POP POP JUMP JUMPDEST PUSH0 PUSH1 0x20 DUP3 DUP5 SUB SLT ISZERO PUSH3 0x2AD JUMPI PUSH3 0x2AC PUSH3 0x230 JUMP JUMPDEST JUMPDEST PUSH0 PUSH3 0x2BC DUP5 DUP3 DUP6 ADD PUSH3 0x27F JUMP JUMPDEST SWAP2 POP POP SWAP3 SWAP2 POP POP JUMP JUMPDEST PUSH3 0x2D0 DUP2 PUSH3 0x253 JUMP JUMPDEST DUP3 MSTORE POP POP JUMP JUMPDEST PUSH0 PUSH1 0x20 DUP3 ADD SWAP1 POP PUSH3 0x2EB PUSH0 DUP4 ADD DUP5 PUSH3 0x2C5 JUMP JUMPDEST SWAP3 SWAP2 POP POP JUMP JUMPDEST PUSH0 DUP3 DUP3 MSTORE PUSH1 0x20 DUP3 ADD SWAP1 POP SWAP3 SWAP2 POP POP JUMP JUMPDEST PUSH32 0x496E76616C696420746F6B656E20616464726573730000000000000000000000 PUSH0 DUP3 ADD MSTORE POP JUMP JUMPDEST PUSH0 PUSH3 0x337 PUSH1 0x15 DUP4 PUSH3 0x2F1 JUMP JUMPDEST SWAP2 POP PUSH3 0x344 DUP3 PUSH3 0x301 JUMP JUMPDEST PUSH1 0x20 DUP3 ADD SWAP1 POP SWAP2 SWAP1 POP JUMP JUMPDEST PUSH0 PUSH1 0x20 DUP3 ADD SWAP1 POP DUP2 DUP2 SUB PUSH0 DUP4 ADD MSTORE PUSH3 0x368 DUP2 PUSH3 0x329 JUMP JUMPDEST SWAP1 POP SWAP2 SWAP1 POP JUMP JUMPDEST PUSH1 0x80 MLOAD PUSH2 0x1A36 PUSH3 0x3AB PUSH0 CODECOPY PUSH0 DUP2 DUP2 PUSH2 0x5D0 ADD MSTORE DUP2 DUP2 PUSH2 0x7FA ADD MSTORE DUP2 DUP2 PUSH2 0x9D2 ADD MSTORE DUP2 DUP2 PUSH2 0xC14 ADD MSTORE DUP2 DUP2 PUSH2 0xD03 ADD MSTORE PUSH2 0xF08 ADD MSTORE PUSH2 0x1A36 PUSH0 RETURN INVALID PUSH1 0x80 PUSH1 0x40 MSTORE CALLVALUE DUP1 ISZERO PUSH2 0xF JUMPI PUSH0 DUP1 REVERT JUMPDEST POP PUSH1 0x4 CALLDATASIZE LT PUSH2 0x11F JUMPI PUSH0 CALLDATALOAD PUSH1 0xE0 SHR DUP1 PUSH4 0x7A766460 GT PUSH2 0xAB JUMPI DUP1 PUSH4 0x9B5F7D81 GT PUSH2 0x6F JUMPI DUP1 PUSH4 0x9B5F7D81 EQ PUSH2 0x2F9 JUMPI DUP1 PUSH4 0xA694FC3A EQ PUSH2 0x317 JUMPI DUP1 PUSH4 0xB29A8140 EQ PUSH2 0x333 JUMPI DUP1 PUSH4 0xB45AAE52 EQ PUSH2 0x34F JUMPI DUP1 PUSH4 0xF2FDE38B EQ PUSH2 0x37F JUMPI PUSH2 0x11F JUMP JUMPDEST DUP1 PUSH4 0x7A766460 EQ PUSH2 0x23F JUMPI DUP1 PUSH4 0x817B1CD2 EQ PUSH2 0x26F JUMPI DUP1 PUSH4 0x8B3FDDC4 EQ PUSH2 0x28D JUMPI DUP1 PUSH4 0x8DA5CB5B EQ PUSH2 0x2AB JUMPI DUP1 PUSH4 0x980EEDF0 EQ PUSH2 0x2C9 JUMPI PUSH2 0x11F JUMP JUMPDEST DUP1 PUSH4 0x35322F37 GT PUSH2 0xF2 JUMPI DUP1 PUSH4 0x35322F37 EQ PUSH2 0x1BF JUMPI DUP1 PUSH4 0x5E4C23DC EQ PUSH2 0x1C9 JUMPI DUP1 PUSH4 0x69FEA994 EQ PUSH2 0x1E7 JUMPI DUP1 PUSH4 0x6F9FB98A EQ PUSH2 0x217 JUMPI DUP1 PUSH4 0x715018A6 EQ PUSH2 0x235 JUMPI PUSH2 0x11F JUMP JUMPDEST DUP1 PUSH4 0x1A03533 EQ PUSH2 0x123 JUMPI DUP1 PUSH4 0x11A2B05A EQ PUSH2 0x153 JUMPI DUP1 PUSH4 0x16934FC4 EQ PUSH2 0x171 JUMPI DUP1 PUSH4 0x2E17DE78 EQ PUSH2 0x1A3 JUMPI JUMPDEST PUSH0 DUP1 REVERT JUMPDEST PUSH2 0x13D PUSH1 0x4 DUP1 CALLDATASIZE SUB DUP2 ADD SWAP1 PUSH2 0x138 SWAP2 SWAP1 PUSH2 0x14B7 JUMP JUMPDEST PUSH2 0x39B JUMP JUMPDEST PUSH1 0x40 MLOAD PUSH2 0x14A SWAP2 SWAP1 PUSH2 0x150F JUMP JUMPDEST PUSH1 0x40 MLOAD DUP1 SWAP2 SUB SWAP1 RETURN JUMPDEST PUSH2 0x15B PUSH2 0x41F JUMP JUMPDEST PUSH1 0x40 MLOAD PUSH2 0x168 SWAP2 SWAP1 PUSH2 0x1537 JUMP JUMPDEST PUSH1 0x40 MLOAD DUP1 SWAP2 SUB SWAP1 RETURN JUMPDEST PUSH2 0x18B PUSH1 0x4 DUP1 CALLDATASIZE SUB DUP2 ADD SWAP1 PUSH2 0x186 SWAP2 SWAP1 PUSH2 0x1550 JUMP JUMPDEST PUSH2 0x42D JUMP JUMPDEST PUSH1 0x40 MLOAD PUSH2 0x19A SWAP4 SWAP3 SWAP2 SWAP1 PUSH2 0x157B JUMP JUMPDEST PUSH1 0x40 MLOAD DUP1 SWAP2 SUB SWAP1 RETURN JUMPDEST PUSH2 0x1BD PUSH1 0x4 DUP1 CALLDATASIZE SUB DUP2 ADD SWAP1 PUSH2 0x1B8 SWAP2 SWAP1 PUSH2 0x15B0 JUMP JUMPDEST PUSH2 0x453 JUMP JUMPDEST STOP JUMPDEST PUSH2 0x1C7 PUSH2 0x742 JUMP JUMPDEST STOP JUMPDEST PUSH2 0x1D1 PUSH2 0x8E6 JUMP JUMPDEST PUSH1 0x40 MLOAD PUSH2 0x1DE SWAP2 SWAP1 PUSH2 0x1537 JUMP JUMPDEST PUSH1 0x40 MLOAD DUP1 SWAP2 SUB SWAP1 RETURN JUMPDEST PUSH2 0x201 PUSH1 0x4 DUP1 CALLDATASIZE SUB DUP2 ADD SWAP1 PUSH2 0x1FC SWAP2 SWAP1 PUSH2 0x1550 JUMP JUMPDEST PUSH2 0x8F3 JUMP JUMPDEST PUSH1 0x40 MLOAD PUSH2 0x20E SWAP2 SWAP1 PUSH2 0x1537 JUMP JUMPDEST PUSH1 0x40 MLOAD DUP1 SWAP2 SUB SWAP1 RETURN JUMPDEST PUSH2 0x21F PUSH2 0x9CF JUMP JUMPDEST PUSH1 0x40 MLOAD PUSH2 0x22C SWAP2 SWAP1 PUSH2 0x1537 JUMP JUMPDEST PUSH1 0x40 MLOAD DUP1 SWAP2 SUB SWAP1 RETURN JUMPDEST PUSH2 0x23D PUSH2 0xA6D JUMP JUMPDEST STOP JUMPDEST PUSH2 0x259 PUSH1 0x4 DUP1 CALLDATASIZE SUB DUP2 ADD SWAP1 PUSH2 0x254 SWAP2 SWAP1 PUSH2 0x1550 JUMP JUMPDEST PUSH2 0xA80 JUMP JUMPDEST PUSH1 0x40 MLOAD PUSH2 0x266 SWAP2 SWAP1 PUSH2 0x1537 JUMP JUMPDEST PUSH1 0x40 MLOAD DUP1 SWAP2 SUB SWAP1 RETURN JUMPDEST PUSH2 0x277 PUSH2 0xAC8 JUMP JUMPDEST PUSH1 0x40 MLOAD PUSH2 0x284 SWAP2 SWAP1 PUSH2 0x1537 JUMP JUMPDEST PUSH1 0x40 MLOAD DUP1 SWAP2 SUB SWAP1 RETURN JUMPDEST PUSH2 0x295 PUSH2 0xACE JUMP JUMPDEST PUSH1 0x40 MLOAD PUSH2 0x2A2 SWAP2 SWAP1 PUSH2 0x1537 JUMP JUMPDEST PUSH1 0x40 MLOAD DUP1 SWAP2 SUB SWAP1 RETURN JUMPDEST PUSH2 0x2B3 PUSH2 0xADC JUMP JUMPDEST PUSH1 0x40 MLOAD PUSH2 0x2C0 SWAP2 SWAP1 PUSH2 0x15EA JUMP JUMPDEST PUSH1 0x40 MLOAD DUP1 SWAP2 SUB SWAP1 RETURN JUMPDEST PUSH2 0x2E3 PUSH1 0x4 DUP1 CALLDATASIZE SUB DUP2 ADD SWAP1 PUSH2 0x2DE SWAP2 SWAP1 PUSH2 0x15B0 JUMP JUMPDEST PUSH2 0xB03 JUMP JUMPDEST PUSH1 0x40 MLOAD PUSH2 0x2F0 SWAP2 SWAP1 PUSH2 0x168D JUMP JUMPDEST PUSH1 0x40 MLOAD DUP1 SWAP2 SUB SWAP1 RETURN JUMPDEST PUSH2 0x301 PUSH2 0xC12 JUMP JUMPDEST PUSH1 0x40 MLOAD PUSH2 0x30E SWAP2 SWAP1 PUSH2 0x1708 JUMP JUMPDEST PUSH1 0x40 MLOAD DUP1 SWAP2 SUB SWAP1 RETURN JUMPDEST PUSH2 0x331 PUSH1 0x4 DUP1 CALLDATASIZE SUB DUP2 ADD SWAP1 PUSH2 0x32C SWAP2 SWAP1 PUSH2 0x15B0 JUMP JUMPDEST PUSH2 0xC36 JUMP JUMPDEST STOP JUMPDEST PUSH2 0x34D PUSH1 0x4 DUP1 CALLDATASIZE SUB DUP2 ADD SWAP1 PUSH2 0x348 SWAP2 SWAP1 PUSH2 0x14B7 JUMP JUMPDEST PUSH2 0xEFE JUMP JUMPDEST STOP JUMPDEST PUSH2 0x369 PUSH1 0x4 DUP1 CALLDATASIZE SUB DUP2 ADD SWAP1 PUSH2 0x364 SWAP2 SWAP1 PUSH2 0x1550 JUMP JUMPDEST PUSH2 0xFCA JUMP JUMPDEST PUSH1 0x40 MLOAD PUSH2 0x376 SWAP2 SWAP1 PUSH2 0x1537 JUMP JUMPDEST PUSH1 0x40 MLOAD DUP1 SWAP2 SUB SWAP1 RETURN JUMPDEST PUSH2 0x399 PUSH1 0x4 DUP1 CALLDATASIZE SUB DUP2 ADD SWAP1 PUSH2 0x394 SWAP2 SWAP1 PUSH2 0x1550 JUMP JUMPDEST PUSH2 0x1068 JUMP JUMPDEST STOP JUMPDEST PUSH0 DUP2 ADDRESS PUSH20 0xFFFFFFFFFFFFFFFFFFFFFFFFFFFFFFFFFFFFFFFF AND PUSH4 0xB45AAE52 DUP6 PUSH1 0x40 MLOAD DUP3 PUSH4 0xFFFFFFFF AND PUSH1 0xE0 SHL DUP2 MSTORE PUSH1 0x4 ADD PUSH2 0x3D6 SWAP2 SWAP1 PUSH2 0x15EA JUMP JUMPDEST PUSH1 0x20 PUSH1 0x40 MLOAD DUP1 DUP4 SUB DUP2 DUP7 GAS STATICCALL ISZERO DUP1 ISZERO PUSH2 0x3F1 JUMPI RETURNDATASIZE PUSH0 DUP1 RETURNDATACOPY RETURNDATASIZE PUSH0 REVERT JUMPDEST POP POP POP POP PUSH1 0x40 MLOAD RETURNDATASIZE PUSH1 0x1F NOT PUSH1 0x1F DUP3 ADD AND DUP3 ADD DUP1 PUSH1 0x40 MSTORE POP DUP2 ADD SWAP1 PUSH2 0x415 SWAP2 SWAP1 PUSH2 0x1735 JUMP JUMPDEST LT ISZERO SWAP1 POP SWAP3 SWAP2 POP POP JUMP JUMPDEST PUSH10 0x21E19E0C9BAB2400000 DUP2 JUMP JUMPDEST PUSH1 0x2 PUSH1 0x20 MSTORE DUP1 PUSH0 MSTORE PUSH1 0x40 PUSH0 KECCAK256 PUSH0 SWAP2 POP SWAP1 POP DUP1 PUSH0 ADD SLOAD SWAP1 DUP1 PUSH1 0x1 ADD SLOAD SWAP1 DUP1 PUSH1 0x2 ADD SLOAD SWAP1 POP DUP4 JUMP JUMPDEST PUSH2 0x45B PUSH2 0x10EC JUMP JUMPDEST PUSH0 PUSH1 0x2 PUSH0 CALLER PUSH20 0xFFFFFFFFFFFFFFFFFFFFFFFFFFFFFFFFFFFFFFFF AND PUSH20 0xFFFFFFFFFFFFFFFFFFFFFFFFFFFFFFFFFFFFFFFF AND DUP2 MSTORE PUSH1 0x20 ADD SWAP1 DUP2 MSTORE PUSH1 0x20 ADD PUSH0 KECCAK256 SWAP1 POP PUSH0 DUP2 PUSH0 ADD SLOAD SUB PUSH2 0x4D7 JUMPI PUSH1 0x40 MLOAD PUSH32 0x59BE8F0200000000000000000000000000000000000000000000000000000000 DUP2 MSTORE PUSH1 0x4 ADD PUSH1 0x40 MLOAD DUP1 SWAP2 SUB SWAP1 REVERT JUMPDEST DUP1 PUSH0 ADD SLOAD DUP3 GT ISZERO PUSH2 0x51D JUMPI PUSH1 0x40 MLOAD PUSH32 0x8C379A000000000000000000000000000000000000000000000000000000000 DUP2 MSTORE PUSH1 0x4 ADD PUSH2 0x514 SWAP1 PUSH2 0x17AA JUMP JUMPDEST PUSH1 0x40 MLOAD DUP1 SWAP2 SUB SWAP1 REVERT JUMPDEST PUSH0 ADDRESS PUSH20 0xFFFFFFFFFFFFFFFFFFFFFFFFFFFFFFFFFFFFFFFF AND PUSH4 0xB45AAE52 CALLER PUSH1 0x40 MLOAD DUP3 PUSH4 0xFFFFFFFF AND PUSH1 0xE0 SHL DUP2 MSTORE PUSH1 0x4 ADD PUSH2 0x557 SWAP2 SWAP1 PUSH2 0x15EA JUMP JUMPDEST PUSH1 0x20 PUSH1 0x40 MLOAD DUP1 DUP4 SUB DUP2 DUP7 GAS STATICCALL ISZERO DUP1 ISZERO PUSH2 0x572 JUMPI RETURNDATASIZE PUSH0 DUP1 RETURNDATACOPY RETURNDATASIZE PUSH0 REVERT JUMPDEST POP POP POP POP PUSH1 0x40 MLOAD RETURNDATASIZE PUSH1 0x1F NOT PUSH1 0x1F DUP3 ADD AND DUP3 ADD DUP1 PUSH1 0x40 MSTORE POP DUP2 ADD SWAP1 PUSH2 0x596 SWAP2 SWAP1 PUSH2 0x1735 JUMP JUMPDEST SWAP1 POP DUP3 DUP3 PUSH0 ADD PUSH0 DUP3 DUP3 SLOAD PUSH2 0x5AA SWAP2 SWAP1 PUSH2 0x17F5 JUMP JUMPDEST SWAP3 POP POP DUP2 SWAP1 SSTORE POP DUP3 PUSH1 0x3 PUSH0 DUP3 DUP3 SLOAD PUSH2 0x5C2 SWAP2 SWAP1 PUSH2 0x17F5 JUMP JUMPDEST SWAP3 POP POP DUP2 SWAP1 SSTORE POP PUSH2 0x614 CALLER DUP5 PUSH32 0x0 PUSH20 0xFFFFFFFFFFFFFFFFFFFFFFFFFFFFFFFFFFFFFFFF AND PUSH2 0x1132 SWAP1 SWAP3 SWAP2 SWAP1 PUSH4 0xFFFFFFFF AND JUMP JUMPDEST PUSH0 ADDRESS PUSH20 0xFFFFFFFFFFFFFFFFFFFFFFFFFFFFFFFFFFFFFFFF AND PUSH4 0xB45AAE52 CALLER PUSH1 0x40 MLOAD DUP3 PUSH4 0xFFFFFFFF AND PUSH1 0xE0 SHL DUP2 MSTORE PUSH1 0x4 ADD PUSH2 0x64E SWAP2 SWAP1 PUSH2 0x15EA JUMP JUMPDEST PUSH1 0x20 PUSH1 0x40 MLOAD DUP1 DUP4 SUB DUP2 DUP7 GAS STATICCALL ISZERO DUP1 ISZERO PUSH2 0x669 JUMPI RETURNDATASIZE PUSH0 DUP1 RETURNDATACOPY RETURNDATASIZE PUSH0 REVERT JUMPDEST POP POP POP POP PUSH1 0x40 MLOAD RETURNDATASIZE PUSH1 0x1F NOT PUSH1 0x1F DUP3 ADD AND DUP3 ADD DUP1 PUSH1 0x40 MSTORE POP DUP2 ADD SWAP1 PUSH2 0x68D SWAP2 SWAP1 PUSH2 0x1735 JUMP JUMPDEST SWAP1 POP DUP2 DUP2 LT ISZERO PUSH2 0x6E6 JUMPI CALLER PUSH20 0xFFFFFFFFFFFFFFFFFFFFFFFFFFFFFFFFFFFFFFFF AND PUSH32 0x870C88666DDFD96DC1BCC353170570AD18A5DDEC6AB988C1ABB5F71823984EC4 DUP3 PUSH1 0x40 MLOAD PUSH2 0x6DD SWAP2 SWAP1 PUSH2 0x1537 JUMP JUMPDEST PUSH1 0x40 MLOAD DUP1 SWAP2 SUB SWAP1 LOG2 JUMPDEST CALLER PUSH20 0xFFFFFFFFFFFFFFFFFFFFFFFFFFFFFFFFFFFFFFFF AND PUSH32 0xF5BB82176FEB1B5E747E28471AA92156A04D9F3AB9F45F28E2D704232B93F75 DUP6 PUSH1 0x40 MLOAD PUSH2 0x72C SWAP2 SWAP1 PUSH2 0x1537 JUMP JUMPDEST PUSH1 0x40 MLOAD DUP1 SWAP2 SUB SWAP1 LOG2 POP POP POP PUSH2 0x73F PUSH2 0x11B1 JUMP JUMPDEST POP JUMP JUMPDEST PUSH2 0x74A PUSH2 0x10EC JUMP JUMPDEST PUSH0 PUSH1 0x2 PUSH0 CALLER PUSH20 0xFFFFFFFFFFFFFFFFFFFFFFFFFFFFFFFFFFFFFFFF AND PUSH20 0xFFFFFFFFFFFFFFFFFFFFFFFFFFFFFFFFFFFFFFFF AND DUP2 MSTORE PUSH1 0x20 ADD SWAP1 DUP2 MSTORE PUSH1 0x20 ADD PUSH0 KECCAK256 SWAP1 POP PUSH0 DUP2 PUSH0 ADD SLOAD SWAP1 POP PUSH0 DUP2 SUB PUSH2 0x7CA JUMPI PUSH1 0x40 MLOAD PUSH32 0x59BE8F0200000000000000000000000000000000000000000000000000000000 DUP2 MSTORE PUSH1 0x4 ADD PUSH1 0x40 MLOAD DUP1 SWAP2 SUB SWAP1 REVERT JUMPDEST PUSH0 DUP3 PUSH0 ADD DUP2 SWAP1 SSTORE POP PUSH0 DUP3 PUSH1 0x1 ADD DUP2 SWAP1 SSTORE POP DUP1 PUSH1 0x3 PUSH0 DUP3 DUP3 SLOAD PUSH2 0x7EC SWAP2 SWAP1 PUSH2 0x17F5 JUMP JUMPDEST SWAP3 POP POP DUP2 SWAP1 SSTORE POP PUSH2 0x83E CALLER DUP3 PUSH32 0x0 PUSH20 0xFFFFFFFFFFFFFFFFFFFFFFFFFFFFFFFFFFFFFFFF AND PUSH2 0x1132 SWAP1 SWAP3 SWAP2 SWAP1 PUSH4 0xFFFFFFFF AND JUMP JUMPDEST CALLER PUSH20 0xFFFFFFFFFFFFFFFFFFFFFFFFFFFFFFFFFFFFFFFF AND PUSH32 0x870C88666DDFD96DC1BCC353170570AD18A5DDEC6AB988C1ABB5F71823984EC4 PUSH0 PUSH1 0x40 MLOAD PUSH2 0x884 SWAP2 SWAP1 PUSH2 0x1861 JUMP JUMPDEST PUSH1 0x40 MLOAD DUP1 SWAP2 SUB SWAP1 LOG2 CALLER PUSH20 0xFFFFFFFFFFFFFFFFFFFFFFFFFFFFFFFFFFFFFFFF AND PUSH32 0xF5BB82176FEB1B5E747E28471AA92156A04D9F3AB9F45F28E2D704232B93F75 DUP3 PUSH1 0x40 MLOAD PUSH2 0x8D2 SWAP2 SWAP1 PUSH2 0x1537 JUMP JUMPDEST PUSH1 0x40 MLOAD DUP1 SWAP2 SUB SWAP1 LOG2 POP POP PUSH2 0x8E4 PUSH2 0x11B1 JUMP JUMPDEST JUMP JUMPDEST PUSH9 0x3635C9ADC5DEA00000 DUP2 JUMP JUMPDEST PUSH0 DUP1 PUSH1 0x2 PUSH0 DUP5 PUSH20 0xFFFFFFFFFFFFFFFFFFFFFFFFFFFFFFFFFFFFFFFF AND PUSH20 0xFFFFFFFFFFFFFFFFFFFFFFFFFFFFFFFFFFFFFFFF AND DUP2 MSTORE PUSH1 0x20 ADD SWAP1 DUP2 MSTORE PUSH1 0x20 ADD PUSH0 KECCAK256 PUSH0 ADD SLOAD SWAP1 POP PUSH9 0x3635C9ADC5DEA00000 DUP2 LT ISZERO PUSH2 0x965 JUMPI DUP1 PUSH9 0x3635C9ADC5DEA00000 PUSH2 0x95D SWAP2 SWAP1 PUSH2 0x17F5 JUMP JUMPDEST SWAP2 POP POP PUSH2 0x9CA JUMP JUMPDEST PUSH10 0x21E19E0C9BAB2400000 DUP2 LT ISZERO PUSH2 0x995 JUMPI DUP1 PUSH10 0x21E19E0C9BAB2400000 PUSH2 0x98D SWAP2 SWAP1 PUSH2 0x17F5 JUMP JUMPDEST SWAP2 POP POP PUSH2 0x9CA JUMP JUMPDEST PUSH10 0x152D02C7E14AF6800000 DUP2 LT ISZERO PUSH2 0x9C5 JUMPI DUP1 PUSH10 0x152D02C7E14AF6800000 PUSH2 0x9BD SWAP2 SWAP1 PUSH2 0x17F5 JUMP JUMPDEST SWAP2 POP POP PUSH2 0x9CA JUMP JUMPDEST PUSH0 SWAP2 POP POP JUMPDEST SWAP2 SWAP1 POP JUMP JUMPDEST PUSH0 PUSH32 0x0 PUSH20 0xFFFFFFFFFFFFFFFFFFFFFFFFFFFFFFFFFFFFFFFF AND PUSH4 0x70A08231 ADDRESS PUSH1 0x40 MLOAD DUP3 PUSH4 0xFFFFFFFF AND PUSH1 0xE0 SHL DUP2 MSTORE PUSH1 0x4 ADD PUSH2 0xA29 SWAP2 SWAP1 PUSH2 0x15EA JUMP JUMPDEST PUSH1 0x20 PUSH1 0x40 MLOAD DUP1 DUP4 SUB DUP2 DUP7 GAS STATICCALL ISZERO DUP1 ISZERO PUSH2 0xA44 JUMPI RETURNDATASIZE PUSH0 DUP1 RETURNDATACOPY RETURNDATASIZE PUSH0 REVERT JUMPDEST POP POP POP POP PUSH1 0x40 MLOAD RETURNDATASIZE PUSH1 0x1F NOT PUSH1 0x1F DUP3 ADD AND DUP3 ADD DUP1 PUSH1 0x40 MSTORE POP DUP2 ADD SWAP1 PUSH2 0xA68 SWAP2 SWAP1 PUSH2 0x1735 JUMP JUMPDEST SWAP1 POP SWAP1 JUMP JUMPDEST PUSH2 0xA75 PUSH2 0x11BA JUMP JUMPDEST PUSH2 0xA7E PUSH0 PUSH2 0x1241 JUMP JUMPDEST JUMP JUMPDEST PUSH0 PUSH1 0x2 PUSH0 DUP4 PUSH20 0xFFFFFFFFFFFFFFFFFFFFFFFFFFFFFFFFFFFFFFFF AND PUSH20 0xFFFFFFFFFFFFFFFFFFFFFFFFFFFFFFFFFFFFFFFF AND DUP2 MSTORE PUSH1 0x20 ADD SWAP1 DUP2 MSTORE PUSH1 0x20 ADD PUSH0 KECCAK256 PUSH0 ADD SLOAD SWAP1 POP SWAP2 SWAP1 POP JUMP JUMPDEST PUSH1 0x3 SLOAD DUP2 JUMP JUMPDEST PUSH10 0x152D02C7E14AF6800000 DUP2 JUMP JUMPDEST PUSH0 DUP1 PUSH0 SWAP1 SLOAD SWAP1 PUSH2 0x100 EXP SWAP1 DIV PUSH20 0xFFFFFFFFFFFFFFFFFFFFFFFFFFFFFFFFFFFFFFFF AND SWAP1 POP SWAP1 JUMP JUMPDEST PUSH1 0x60 PUSH1 0x3 DUP3 SUB PUSH2 0xB4A JUMPI PUSH1 0x40 MLOAD DUP1 PUSH1 0x40 ADD PUSH1 0x40 MSTORE DUP1 PUSH1 0x5 DUP2 MSTORE PUSH1 0x20 ADD PUSH32 0x466C656574000000000000000000000000000000000000000000000000000000 DUP2 MSTORE POP SWAP1 POP PUSH2 0xC0D JUMP JUMPDEST PUSH1 0x2 DUP3 SUB PUSH2 0xB8F JUMPI PUSH1 0x40 MLOAD DUP1 PUSH1 0x40 ADD PUSH1 0x40 MSTORE DUP1 PUSH1 0x9 DUP2 MSTORE PUSH1 0x20 ADD PUSH32 0x4E6176696761746F720000000000000000000000000000000000000000000000 DUP2 MSTORE POP SWAP1 POP PUSH2 0xC0D JUMP JUMPDEST PUSH1 0x1 DUP3 SUB PUSH2 0xBD4 JUMPI PUSH1 0x40 MLOAD DUP1 PUSH1 0x40 ADD PUSH1 0x40 MSTORE DUP1 PUSH1 0x4 DUP2 MSTORE PUSH1 0x20 ADD PUSH32 0x48454C4D00000000000000000000000000000000000000000000000000000000 DUP2 MSTORE POP SWAP1 POP PUSH2 0xC0D JUMP JUMPDEST PUSH1 0x40 MLOAD DUP1 PUSH1 0x40 ADD PUSH1 0x40 MSTORE DUP1 PUSH1 0x4 DUP2 MSTORE PUSH1 0x20 ADD PUSH32 0x4672656500000000000000000000000000000000000000000000000000000000 DUP2 MSTORE POP SWAP1 POP JUMPDEST SWAP2 SWAP1 POP JUMP JUMPDEST PUSH32 0x0 DUP2 JUMP JUMPDEST PUSH2 0xC3E PUSH2 0x10EC JUMP JUMPDEST PUSH0 DUP2 GT PUSH2 0xC80 JUMPI PUSH1 0x40 MLOAD PUSH32 0x8C379A000000000000000000000000000000000000000000000000000000000 DUP2 MSTORE PUSH1 0x4 ADD PUSH2 0xC77 SWAP1 PUSH2 0x18C4 JUMP JUMPDEST PUSH1 0x40 MLOAD DUP1 SWAP2 SUB SWAP1 REVERT JUMPDEST PUSH0 ADDRESS PUSH20 0xFFFFFFFFFFFFFFFFFFFFFFFFFFFFFFFFFFFFFFFF AND PUSH4 0xB45AAE52 CALLER PUSH1 0x40 MLOAD DUP3 PUSH4 0xFFFFFFFF AND PUSH1 0xE0 SHL DUP2 MSTORE PUSH1 0x4 ADD PUSH2 0xCBA SWAP2 SWAP1 PUSH2 0x15EA JUMP JUMPDEST PUSH1 0x20 PUSH1 0x40 MLOAD DUP1 DUP4 SUB DUP2 DUP7 GAS STATICCALL ISZERO DUP1 ISZERO PUSH2 0xCD5 JUMPI RETURNDATASIZE PUSH0 DUP1 RETURNDATACOPY RETURNDATASIZE PUSH0 REVERT JUMPDEST POP POP POP POP PUSH1 0x40 MLOAD RETURNDATASIZE PUSH1 0x1F NOT PUSH1 0x1F DUP3 ADD AND DUP3 ADD DUP1 PUSH1 0x40 MSTORE POP DUP2 ADD SWAP1 PUSH2 0xCF9 SWAP2 SWAP1 PUSH2 0x1735 JUMP JUMPDEST SWAP1 POP PUSH2 0xD48 CALLER ADDRESS DUP5 PUSH32 0x0 PUSH20 0xFFFFFFFFFFFFFFFFFFFFFFFFFFFFFFFFFFFFFFFF AND PUSH2 0x1302 SWAP1 SWAP4 SWAP3 SWAP2 SWAP1 PUSH4 0xFFFFFFFF AND JUMP JUMPDEST PUSH0 PUSH1 0x2 PUSH0 CALLER PUSH20 0xFFFFFFFFFFFFFFFFFFFFFFFFFFFFFFFFFFFFFFFF AND PUSH20 0xFFFFFFFFFFFFFFFFFFFFFFFFFFFFFFFFFFFFFFFF AND DUP2 MSTORE PUSH1 0x20 ADD SWAP1 DUP2 MSTORE PUSH1 0x20 ADD PUSH0 KECCAK256 SWAP1 POP DUP3 DUP2 PUSH0 ADD PUSH0 DUP3 DUP3 SLOAD PUSH2 0xD9A SWAP2 SWAP1 PUSH2 0x18E2 JUMP JUMPDEST SWAP3 POP POP DUP2 SWAP1 SSTORE POP PUSH0 DUP2 PUSH1 0x1 ADD SLOAD SUB PUSH2 0xDB6 JUMPI TIMESTAMP DUP2 PUSH1 0x1 ADD DUP2 SWAP1 SSTORE POP JUMPDEST DUP3 PUSH1 0x3 PUSH0 DUP3 DUP3 SLOAD PUSH2 0xDC7 SWAP2 SWAP1 PUSH2 0x18E2 JUMP JUMPDEST SWAP3 POP POP DUP2 SWAP1 SSTORE POP PUSH0 ADDRESS PUSH20 0xFFFFFFFFFFFFFFFFFFFFFFFFFFFFFFFFFFFFFFFF AND PUSH4 0xB45AAE52 CALLER PUSH1 0x40 MLOAD DUP3 PUSH4 0xFFFFFFFF AND PUSH1 0xE0 SHL DUP2 MSTORE PUSH1 0x4 ADD PUSH2 0xE08 SWAP2 SWAP1 PUSH2 0x15EA JUMP JUMPDEST PUSH1 0x20 PUSH1 0x40 MLOAD DUP1 DUP4 SUB DUP2 DUP7 GAS STATICCALL ISZERO DUP1 ISZERO PUSH2 0xE23 JUMPI RETURNDATASIZE PUSH0 DUP1 RETURNDATACOPY RETURNDATASIZE PUSH0 REVERT JUMPDEST POP POP POP POP PUSH1 0x40 MLOAD RETURNDATASIZE PUSH1 0x1F NOT PUSH1 0x1F DUP3 ADD AND DUP3 ADD DUP1 PUSH1 0x40 MSTORE POP DUP2 ADD SWAP1 PUSH2 0xE47 SWAP2 SWAP1 PUSH2 0x1735 JUMP JUMPDEST SWAP1 POP DUP3 DUP2 GT ISZERO PUSH2 0xEA0 JUMPI CALLER PUSH20 0xFFFFFFFFFFFFFFFFFFFFFFFFFFFFFFFFFFFFFFFF AND PUSH32 0xA3F9159B0F8E37AD233C38F01317295984B2365AAC02D2F555E91E395E64B626 DUP3 PUSH1 0x40 MLOAD PUSH2 0xE97 SWAP2 SWAP1 PUSH2 0x1537 JUMP JUMPDEST PUSH1 0x40 MLOAD DUP1 SWAP2 SUB SWAP1 LOG2 JUMPDEST CALLER PUSH20 0xFFFFFFFFFFFFFFFFFFFFFFFFFFFFFFFFFFFFFFFF AND PUSH32 0x1449C6DD7851ABC30ABF37F57715F492010519147CC2652FBC38202C18A6EE90 DUP6 DUP4 PUSH1 0x40 MLOAD PUSH2 0xEE8 SWAP3 SWAP2 SWAP1 PUSH2 0x1915 JUMP JUMPDEST PUSH1 0x40 MLOAD DUP1 SWAP2 SUB SWAP1 LOG2 POP POP POP PUSH2 0xEFB PUSH2 0x11B1 JUMP JUMPDEST POP JUMP JUMPDEST PUSH2 0xF06 PUSH2 0x11BA JUMP JUMPDEST PUSH32 0x0 PUSH20 0xFFFFFFFFFFFFFFFFFFFFFFFFFFFFFFFFFFFFFFFF AND DUP3 PUSH20 0xFFFFFFFFFFFFFFFFFFFFFFFFFFFFFFFFFFFFFFFF AND SUB PUSH2 0xF94 JUMPI PUSH1 0x40 MLOAD PUSH32 0x8C379A000000000000000000000000000000000000000000000000000000000 DUP2 MSTORE PUSH1 0x4 ADD PUSH2 0xF8B SWAP1 PUSH2 0x1986 JUMP JUMPDEST PUSH1 0x40 MLOAD DUP1 SWAP2 SUB SWAP1 REVERT JUMPDEST PUSH2 0xFC6 PUSH2 0xF9F PUSH2 0xADC JUMP JUMPDEST DUP3 DUP5 PUSH20 0xFFFFFFFFFFFFFFFFFFFFFFFFFFFFFFFFFFFFFFFF AND PUSH2 0x1132 SWAP1 SWAP3 SWAP2 SWAP1 PUSH4 0xFFFFFFFF AND JUMP JUMPDEST POP POP JUMP JUMPDEST PUSH0 DUP1 PUSH1 0x2 PUSH0 DUP5 PUSH20 0xFFFFFFFFFFFFFFFFFFFFFFFFFFFFFFFFFFFFFFFF AND PUSH20 0xFFFFFFFFFFFFFFFFFFFFFFFFFFFFFFFFFFFFFFFF AND DUP2 MSTORE PUSH1 0x20 ADD SWAP1 DUP2 MSTORE PUSH1 0x20 ADD PUSH0 KECCAK256 PUSH0 ADD SLOAD SWAP1 POP PUSH10 0x152D02C7E14AF6800000 DUP2 LT PUSH2 0x1029 JUMPI PUSH1 0x3 SWAP2 POP POP PUSH2 0x1063 JUMP JUMPDEST PUSH10 0x21E19E0C9BAB2400000 DUP2 LT PUSH2 0x1044 JUMPI PUSH1 0x2 SWAP2 POP POP PUSH2 0x1063 JUMP JUMPDEST PUSH9 0x3635C9ADC5DEA00000 DUP2 LT PUSH2 0x105E JUMPI PUSH1 0x1 SWAP2 POP POP PUSH2 0x1063 JUMP JUMPDEST PUSH0 SWAP2 POP POP JUMPDEST SWAP2 SWAP1 POP JUMP JUMPDEST PUSH2 0x1070 PUSH2 0x11BA JUMP JUMPDEST PUSH0 PUSH20 0xFFFFFFFFFFFFFFFFFFFFFFFFFFFFFFFFFFFFFFFF AND DUP2 PUSH20 0xFFFFFFFFFFFFFFFFFFFFFFFFFFFFFFFFFFFFFFFF AND SUB PUSH2 0x10E0 JUMPI PUSH0 PUSH1 0x40 MLOAD PUSH32 0x1E4FBDF700000000000000000000000000000000000000000000000000000000 DUP2 MSTORE PUSH1 0x4 ADD PUSH2 0x10D7 SWAP2 SWAP1 PUSH2 0x15EA JUMP JUMPDEST PUSH1 0x40 MLOAD DUP1 SWAP2 SUB SWAP1 REVERT JUMPDEST PUSH2 0x10E9 DUP2 PUSH2 0x1241 JUMP JUMPDEST POP JUMP JUMPDEST PUSH1 0x2 PUSH1 0x1 SLOAD SUB PUSH2 0x1128 JUMPI PUSH1 0x40 MLOAD PUSH32 0x3EE5AEB500000000000000000000000000000000000000000000000000000000 DUP2 MSTORE PUSH1 0x4 ADD PUSH1 0x40 MLOAD DUP1 SWAP2 SUB SWAP1 REVERT JUMPDEST PUSH1 0x2 PUSH1 0x1 DUP2 SWAP1 SSTORE POP JUMP JUMPDEST PUSH2 0x11AC DUP4 DUP5 PUSH20 0xFFFFFFFFFFFFFFFFFFFFFFFFFFFFFFFFFFFFFFFF AND PUSH4 0xA9059CBB DUP6 DUP6 PUSH1 0x40 MLOAD PUSH1 0x24 ADD PUSH2 0x1165 SWAP3 SWAP2 SWAP1 PUSH2 0x19A4 JUMP JUMPDEST PUSH1 0x40 MLOAD PUSH1 0x20 DUP2 DUP4 SUB SUB DUP2 MSTORE SWAP1 PUSH1 0x40 MSTORE SWAP2 POP PUSH1 0xE0 SHL PUSH1 0x20 DUP3 ADD DUP1 MLOAD PUSH28 0xFFFFFFFFFFFFFFFFFFFFFFFFFFFFFFFFFFFFFFFFFFFFFFFFFFFFFFFF DUP4 DUP2 DUP4 AND OR DUP4 MSTORE POP POP POP POP PUSH2 0x1384 JUMP JUMPDEST POP POP POP JUMP JUMPDEST PUSH1 0x1 DUP1 DUP2 SWAP1 SSTORE POP JUMP JUMPDEST PUSH2 0x11C2 PUSH2 0x141F JUMP JUMPDEST PUSH20 0xFFFFFFFFFFFFFFFFFFFFFFFFFFFFFFFFFFFFFFFF AND PUSH2 0x11E0 PUSH2 0xADC JUMP JUMPDEST PUSH20 0xFFFFFFFFFFFFFFFFFFFFFFFFFFFFFFFFFFFFFFFF AND EQ PUSH2 0x123F JUMPI PUSH2 0x1203 PUSH2 0x141F JUMP JUMPDEST PUSH1 0x40 MLOAD PUSH32 0x118CDAA700000000000000000000000000000000000000000000000000000000 DUP2 MSTORE PUSH1 0x4 ADD PUSH2 0x1236 SWAP2 SWAP1 PUSH2 0x15EA JUMP JUMPDEST PUSH1 0x40 MLOAD DUP1 SWAP2 SUB SWAP1 REVERT JUMPDEST JUMP JUMPDEST PUSH0 DUP1 PUSH0 SWAP1 SLOAD SWAP1 PUSH2 0x100 EXP SWAP1 DIV PUSH20 0xFFFFFFFFFFFFFFFFFFFFFFFFFFFFFFFFFFFFFFFF AND SWAP1 POP DUP2 PUSH0 DUP1 PUSH2 0x100 EXP DUP2 SLOAD DUP2 PUSH20 0xFFFFFFFFFFFFFFFFFFFFFFFFFFFFFFFFFFFFFFFF MUL NOT AND SWAP1 DUP4 PUSH20 0xFFFFFFFFFFFFFFFFFFFFFFFFFFFFFFFFFFFFFFFF AND MUL OR SWAP1 SSTORE POP DUP2 PUSH20 0xFFFFFFFFFFFFFFFFFFFFFFFFFFFFFFFFFFFFFFFF AND DUP2 PUSH20 0xFFFFFFFFFFFFFFFFFFFFFFFFFFFFFFFFFFFFFFFF AND PUSH32 0x8BE0079C531659141344CD1FD0A4F28419497F9722A3DAAFE3B4186F6B6457E0 PUSH1 0x40 MLOAD PUSH1 0x40 MLOAD DUP1 SWAP2 SUB SWAP1 LOG3 POP POP JUMP JUMPDEST PUSH2 0x137E DUP5 DUP6 PUSH20 0xFFFFFFFFFFFFFFFFFFFFFFFFFFFFFFFFFFFFFFFF AND PUSH4 0x23B872DD DUP7 DUP7 DUP7 PUSH1 0x40 MLOAD PUSH1 0x24 ADD PUSH2 0x1337 SWAP4 SWAP3 SWAP2 SWAP1 PUSH2 0x19CB JUMP JUMPDEST PUSH1 0x40 MLOAD PUSH1 0x20 DUP2 DUP4 SUB SUB DUP2 MSTORE SWAP1 PUSH1 0x40 MSTORE SWAP2 POP PUSH1 0xE0 SHL PUSH1 0x20 DUP3 ADD DUP1 MLOAD PUSH28 0xFFFFFFFFFFFFFFFFFFFFFFFFFFFFFFFFFFFFFFFFFFFFFFFFFFFFFFFF DUP4 DUP2 DUP4 AND OR DUP4 MSTORE POP POP POP POP PUSH2 0x1384 JUMP JUMPDEST POP POP POP POP JUMP JUMPDEST PUSH0 DUP1 PUSH1 0x20 PUSH0 DUP5 MLOAD PUSH1 0x20 DUP7 ADD PUSH0 DUP9 GAS CALL DUP1 PUSH2 0x13A3 JUMPI PUSH1 0x40 MLOAD RETURNDATASIZE PUSH0 DUP3 RETURNDATACOPY RETURNDATASIZE DUP2 REVERT JUMPDEST RETURNDATASIZE SWAP3 POP PUSH0 MLOAD SWAP2 POP POP PUSH0 DUP3 EQ PUSH2 0x13BC JUMPI PUSH1 0x1 DUP2 EQ ISZERO PUSH2 0x13D7 JUMP JUMPDEST PUSH0 DUP5 PUSH20 0xFFFFFFFFFFFFFFFFFFFFFFFFFFFFFFFFFFFFFFFF AND EXTCODESIZE EQ JUMPDEST ISZERO PUSH2 0x1419 JUMPI DUP4 PUSH1 0x40 MLOAD PUSH32 0x5274AFE700000000000000000000000000000000000000000000000000000000 DUP2 MSTORE PUSH1 0x4 ADD PUSH2 0x1410 SWAP2 SWAP1 PUSH2 0x15EA JUMP JUMPDEST PUSH1 0x40 MLOAD DUP1 SWAP2 SUB SWAP1 REVERT JUMPDEST POP POP POP POP JUMP JUMPDEST PUSH0 CALLER SWAP1 POP SWAP1 JUMP JUMPDEST PUSH0 DUP1 REVERT JUMPDEST PUSH0 PUSH20 0xFFFFFFFFFFFFFFFFFFFFFFFFFFFFFFFFFFFFFFFF DUP3 AND SWAP1 POP SWAP2 SWAP1 POP JUMP JUMPDEST PUSH0 PUSH2 0x1453 DUP3 PUSH2 0x142A JUMP JUMPDEST SWAP1 POP SWAP2 SWAP1 POP JUMP JUMPDEST PUSH2 0x1463 DUP2 PUSH2 0x1449 JUMP JUMPDEST DUP2 EQ PUSH2 0x146D JUMPI PUSH0 DUP1 REVERT JUMPDEST POP JUMP JUMPDEST PUSH0 DUP2 CALLDATALOAD SWAP1 POP PUSH2 0x147E DUP2 PUSH2 0x145A JUMP JUMPDEST SWAP3 SWAP2 POP POP JUMP JUMPDEST PUSH0 DUP2 SWAP1 POP SWAP2 SWAP1 POP JUMP JUMPDEST PUSH2 0x1496 DUP2 PUSH2 0x1484 JUMP JUMPDEST DUP2 EQ PUSH2 0x14A0 JUMPI PUSH0 DUP1 REVERT JUMPDEST POP JUMP JUMPDEST PUSH0 DUP2 CALLDATALOAD SWAP1 POP PUSH2 0x14B1 DUP2 PUSH2 0x148D JUMP JUMPDEST SWAP3 SWAP2 POP POP JUMP JUMPDEST PUSH0 DUP1 PUSH1 0x40 DUP4 DUP6 SUB SLT ISZERO PUSH2 0x14CD JUMPI PUSH2 0x14CC PUSH2 0x1426 JUMP JUMPDEST JUMPDEST PUSH0 PUSH2 0x14DA DUP6 DUP3 DUP7 ADD PUSH2 0x1470 JUMP JUMPDEST SWAP3 POP POP PUSH1 0x20 PUSH2 0x14EB DUP6 DUP3 DUP7 ADD PUSH2 0x14A3 JUMP JUMPDEST SWAP2 POP POP SWAP3 POP SWAP3 SWAP1 POP JUMP JUMPDEST PUSH0 DUP2 ISZERO ISZERO SWAP1 POP SWAP2 SWAP1 POP JUMP JUMPDEST PUSH2 0x1509 DUP2 PUSH2 0x14F5 JUMP JUMPDEST DUP3 MSTORE POP POP JUMP JUMPDEST PUSH0 PUSH1 0x20 DUP3 ADD SWAP1 POP PUSH2 0x1522 PUSH0 DUP4 ADD DUP5 PUSH2 0x1500 JUMP JUMPDEST SWAP3 SWAP2 POP POP JUMP JUMPDEST PUSH2 0x1531 DUP2 PUSH2 0x1484 JUMP JUMPDEST DUP3 MSTORE POP POP JUMP JUMPDEST PUSH0 PUSH1 0x20 DUP3 ADD SWAP1 POP PUSH2 0x154A PUSH0 DUP4 ADD DUP5 PUSH2 0x1528 JUMP JUMPDEST SWAP3 SWAP2 POP POP JUMP JUMPDEST PUSH0 PUSH1 0x20 DUP3 DUP5 SUB SLT ISZERO PUSH2 0x1565 JUMPI PUSH2 0x1564 PUSH2 0x1426 JUMP JUMPDEST JUMPDEST PUSH0 PUSH2 0x1572 DUP5 DUP3 DUP6 ADD PUSH2 0x1470 JUMP JUMPDEST SWAP2 POP POP SWAP3 SWAP2 POP POP JUMP JUMPDEST PUSH0 PUSH1 0x60 DUP3 ADD SWAP1 POP PUSH2 0x158E PUSH0 DUP4 ADD DUP7 PUSH2 0x1528 JUMP JUMPDEST PUSH2 0x159B PUSH1 0x20 DUP4 ADD DUP6 PUSH2 0x1528 JUMP JUMPDEST PUSH2 0x15A8 PUSH1 0x40 DUP4 ADD DUP5 PUSH2 0x1528 JUMP JUMPDEST SWAP5 SWAP4 POP POP POP POP JUMP JUMPDEST PUSH0 PUSH1 0x20 DUP3 DUP5 SUB SLT ISZERO PUSH2 0x15C5 JUMPI PUSH2 0x15C4 PUSH2 0x1426 JUMP JUMPDEST JUMPDEST PUSH0 PUSH2 0x15D2 DUP5 DUP3 DUP6 ADD PUSH2 0x14A3 JUMP JUMPDEST SWAP2 POP POP SWAP3 SWAP2 POP POP JUMP JUMPDEST PUSH2 0x15E4 DUP2 PUSH2 0x1449 JUMP JUMPDEST DUP3 MSTORE POP POP JUMP JUMPDEST PUSH0 PUSH1 0x20 DUP3 ADD SWAP1 POP PUSH2 0x15FD PUSH0 DUP4 ADD DUP5 PUSH2 0x15DB JUMP JUMPDEST SWAP3 SWAP2 POP POP JUMP JUMPDEST PUSH0 DUP2 MLOAD SWAP1 POP SWAP2 SWAP1 POP JUMP JUMPDEST PUSH0 DUP3 DUP3 MSTORE PUSH1 0x20 DUP3 ADD SWAP1 POP SWAP3 SWAP2 POP POP JUMP JUMPDEST PUSH0 JUMPDEST DUP4 DUP2 LT ISZERO PUSH2 0x163A JUMPI DUP1 DUP3 ADD MLOAD DUP2 DUP5 ADD MSTORE PUSH1 0x20 DUP2 ADD SWAP1 POP PUSH2 0x161F JUMP JUMPDEST PUSH0 DUP5 DUP5 ADD MSTORE POP POP POP POP JUMP JUMPDEST PUSH0 PUSH1 0x1F NOT PUSH1 0x1F DUP4 ADD AND SWAP1 POP SWAP2 SWAP1 POP JUMP JUMPDEST PUSH0 PUSH2 0x165F DUP3 PUSH2 0x1603 JUMP JUMPDEST PUSH2 0x1669 DUP2 DUP6 PUSH2 0x160D JUMP JUMPDEST SWAP4 POP PUSH2 0x1679 DUP2 DUP6 PUSH1 0x20 DUP7 ADD PUSH2 0x161D JUMP JUMPDEST PUSH2 0x1682 DUP2 PUSH2 0x1645 JUMP JUMPDEST DUP5 ADD SWAP2 POP POP SWAP3 SWAP2 POP POP JUMP JUMPDEST PUSH0 PUSH1 0x20 DUP3 ADD SWAP1 POP DUP2 DUP2 SUB PUSH0 DUP4 ADD MSTORE PUSH2 0x16A5 DUP2 DUP5 PUSH2 0x1655 JUMP JUMPDEST SWAP1 POP SWAP3 SWAP2 POP POP JUMP JUMPDEST PUSH0 DUP2 SWAP1 POP SWAP2 SWAP1 POP JUMP JUMPDEST PUSH0 PUSH2 0x16D0 PUSH2 0x16CB PUSH2 0x16C6 DUP5 PUSH2 0x142A JUMP JUMPDEST PUSH2 0x16AD JUMP JUMPDEST PUSH2 0x142A JUMP JUMPDEST SWAP1 POP SWAP2 SWAP1 POP JUMP JUMPDEST PUSH0 PUSH2 0x16E1 DUP3 PUSH2 0x16B6 JUMP JUMPDEST SWAP1 POP SWAP2 SWAP1 POP JUMP JUMPDEST PUSH0 PUSH2 0x16F2 DUP3 PUSH2 0x16D7 JUMP JUMPDEST SWAP1 POP SWAP2 SWAP1 POP JUMP JUMPDEST PUSH2 0x1702 DUP2 PUSH2 0x16E8 JUMP JUMPDEST DUP3 MSTORE POP POP JUMP JUMPDEST PUSH0 PUSH1 0x20 DUP3 ADD SWAP1 POP PUSH2 0x171B PUSH0 DUP4 ADD DUP5 PUSH2 0x16F9 JUMP JUMPDEST SWAP3 SWAP2 POP POP JUMP JUMPDEST PUSH0 DUP2 MLOAD SWAP1 POP PUSH2 0x172F DUP2 PUSH2 0x148D JUMP JUMPDEST SWAP3 SWAP2 POP POP JUMP JUMPDEST PUSH0 PUSH1 0x20 DUP3 DUP5 SUB SLT ISZERO PUSH2 0x174A JUMPI PUSH2 0x1749 PUSH2 0x1426 JUMP JUMPDEST JUMPDEST PUSH0 PUSH2 0x1757 DUP5 DUP3 DUP6 ADD PUSH2 0x1721 JUMP JUMPDEST SWAP2 POP POP SWAP3 SWAP2 POP POP JUMP JUMPDEST PUSH32 0x496E73756666696369656E74207374616B656420616D6F756E74000000000000 PUSH0 DUP3 ADD MSTORE POP JUMP JUMPDEST PUSH0 PUSH2 0x1794 PUSH1 0x1A DUP4 PUSH2 0x160D JUMP JUMPDEST SWAP2 POP PUSH2 0x179F DUP3 PUSH2 0x1760 JUMP JUMPDEST PUSH1 0x20 DUP3 ADD SWAP1 POP SWAP2 SWAP1 POP JUMP JUMPDEST PUSH0 PUSH1 0x20 DUP3 ADD SWAP1 POP DUP2 DUP2 SUB PUSH0 DUP4 ADD MSTORE PUSH2 0x17C1 DUP2 PUSH2 0x1788 JUMP JUMPDEST SWAP1 POP SWAP2 SWAP1 POP JUMP JUMPDEST PUSH32 0x4E487B7100000000000000000000000000000000000000000000000000000000 PUSH0 MSTORE PUSH1 0x11 PUSH1 0x4 MSTORE PUSH1 0x24 PUSH0 REVERT JUMPDEST PUSH0 PUSH2 0x17FF DUP3 PUSH2 0x1484 JUMP JUMPDEST SWAP2 POP PUSH2 0x180A DUP4 PUSH2 0x1484 JUMP JUMPDEST SWAP3 POP DUP3 DUP3 SUB SWAP1 POP DUP2 DUP2 GT ISZERO PUSH2 0x1822 JUMPI PUSH2 0x1821 PUSH2 0x17C8 JUMP JUMPDEST JUMPDEST SWAP3 SWAP2 POP POP JUMP JUMPDEST PUSH0 DUP2 SWAP1 POP SWAP2 SWAP1 POP JUMP JUMPDEST PUSH0 PUSH2 0x184B PUSH2 0x1846 PUSH2 0x1841 DUP5 PUSH2 0x1828 JUMP JUMPDEST PUSH2 0x16AD JUMP JUMPDEST PUSH2 0x1484 JUMP JUMPDEST SWAP1 POP SWAP2 SWAP1 POP JUMP JUMPDEST PUSH2 0x185B DUP2 PUSH2 0x1831 JUMP JUMPDEST DUP3 MSTORE POP POP JUMP JUMPDEST PUSH0 PUSH1 0x20 DUP3 ADD SWAP1 POP PUSH2 0x1874 PUSH0 DUP4 ADD DUP5 PUSH2 0x1852 JUMP JUMPDEST SWAP3 SWAP2 POP POP JUMP JUMPDEST PUSH32 0x43616E6E6F74207374616B652030000000000000000000000000000000000000 PUSH0 DUP3 ADD MSTORE POP JUMP JUMPDEST PUSH0 PUSH2 0x18AE PUSH1 0xE DUP4 PUSH2 0x160D JUMP JUMPDEST SWAP2 POP PUSH2 0x18B9 DUP3 PUSH2 0x187A JUMP JUMPDEST PUSH1 0x20 DUP3 ADD SWAP1 POP SWAP2 SWAP1 POP JUMP JUMPDEST PUSH0 PUSH1 0x20 DUP3 ADD SWAP1 POP DUP2 DUP2 SUB PUSH0 DUP4 ADD MSTORE PUSH2 0x18DB DUP2 PUSH2 0x18A2 JUMP JUMPDEST SWAP1 POP SWAP2 SWAP1 POP JUMP JUMPDEST PUSH0 PUSH2 0x18EC DUP3 PUSH2 0x1484 JUMP JUMPDEST SWAP2 POP PUSH2 0x18F7 DUP4 PUSH2 0x1484 JUMP JUMPDEST SWAP3 POP DUP3 DUP3 ADD SWAP1 POP DUP1 DUP3 GT ISZERO PUSH2 0x190F JUMPI PUSH2 0x190E PUSH2 0x17C8 JUMP JUMPDEST JUMPDEST SWAP3 SWAP2 POP POP JUMP JUMPDEST PUSH0 PUSH1 0x40 DUP3 ADD SWAP1 POP PUSH2 0x1928 PUSH0 DUP4 ADD DUP6 PUSH2 0x1528 JUMP JUMPDEST PUSH2 0x1935 PUSH1 0x20 DUP4 ADD DUP5 PUSH2 0x1528 JUMP JUMPDEST SWAP4 SWAP3 POP POP POP JUMP JUMPDEST PUSH32 0x43616E6E6F74207265636F7665722048454C4D20746F6B656E73000000000000 PUSH0 DUP3 ADD MSTORE POP JUMP JUMPDEST PUSH0 PUSH2 0x1970 PUSH1 0x1A DUP4 PUSH2 0x160D JUMP JUMPDEST SWAP2 POP PUSH2 0x197B DUP3 PUSH2 0x193C JUMP JUMPDEST PUSH1 0x20 DUP3 ADD SWAP1 POP SWAP2 SWAP1 POP JUMP JUMPDEST PUSH0 PUSH1 0x20 DUP3 ADD SWAP1 POP DUP2 DUP2 SUB PUSH0 DUP4 ADD MSTORE PUSH2 0x199D DUP2 PUSH2 0x1964 JUMP JUMPDEST SWAP1 POP SWAP2 SWAP1 POP JUMP JUMPDEST PUSH0 PUSH1 0x40 DUP3 ADD SWAP1 POP PUSH2 0x19B7 PUSH0 DUP4 ADD DUP6 PUSH2 0x15DB JUMP JUMPDEST PUSH2 0x19C4 PUSH1 0x20 DUP4 ADD DUP5 PUSH2 0x1528 JUMP JUMPDEST SWAP4 SWAP3 POP POP POP JUMP JUMPDEST PUSH0 PUSH1 0x60 DUP3 ADD SWAP1 POP PUSH2 0x19DE PUSH0 DUP4 ADD DUP7 PUSH2 0x15DB JUMP JUMPDEST PUSH2 0x19EB PUSH1 0x20 DUP4 ADD DUP6 PUSH2 0x15DB JUMP JUMPDEST PUSH2 0x19F8 PUSH1 0x40 DUP4 ADD DUP5 PUSH2 0x1528 JUMP JUMPDEST SWAP5 SWAP4 POP POP POP POP JUMP INVALID LOG2 PUSH5 0x6970667358 0x22 SLT KECCAK256 PUSH32 0x8D95D2DE5C53F43A62DC42352B393D52808F4C6A8600462FCAB98F6AE492C64 PUSH20 0x6F6C634300081400330000000000000000000000 "
    },
    "gasEstimates": {
      "creation": {
        "codeDepositCost": "1342000",
        "executionCost": "infinite",
        "totalCost": "infinite"
      },
      "external": {
        "FLEET_TIER()": "392",
        "HELM_TIER()": "370",
        "NAVIGATOR_TIER()": "371",
        "amountToNextTier(address)": "infinite",
        "getContractBalance()": "infinite",
        "getStake(address)": "2857",
        "getTier(address)": "3015",
        "getTierName(uint256)": "infinite",
        "hasTier(address,uint256)": "infinite",
        "helmToken()": "infinite",
        "owner()": "2604",
        "recoverToken(address,uint256)": "infinite",
        "renounceOwnership()": "infinite",
        "stake(uint256)": "infinite",
        "stakes(address)": "infinite",
        "totalStaked()": "2470",
        "transferOwnership(address)": "infinite",
        "unstake(uint256)": "infinite",
        "unstakeAll()": "infinite"
      }
    },
    "methodIdentifiers": {
      "FLEET_TIER()": "8b3fddc4",
      "HELM_TIER()": "5e4c23dc",
      "NAVIGATOR_TIER()": "11a2b05a",
      "amountToNextTier(address)": "69fea994",
      "getContractBalance()": "6f9fb98a",
      "getStake(address)": "7a766460",
      "getTier(address)": "b45aae52",
      "getTierName(uint256)": "980eedf0",
      "hasTier(address,uint256)": "01a03533",
      "helmToken()": "9b5f7d81",
      "owner()": "8da5cb5b",
      "recoverToken(address,uint256)": "b29a8140",
      "renounceOwnership()": "715018a6",
      "stake(uint256)": "a694fc3a",
      "stakes(address)": "16934fc4",
      "totalStaked()": "817b1cd2",
      "transferOwnership(address)": "f2fde38b",
      "unstake(uint256)": "2e17de78",
      "unstakeAll()": "35322f37"
    }
  },
  "storageLayout": {
    "storage": [
      {
        "astId": 546,
        "contract": "HELMStaking.sol:HELMStaking",
        "label": "_owner",
        "offset": 0,
        "slot": "0",
        "type": "t_address"
      },
      {
        "astId": 1238,
        "contract": "HELMStaking.sol:HELMStaking",
        "label": "_status",
        "offset": 0,
        "slot": "1",
        "type": "t_uint256"
      },
      {
        "astId": 49,
        "contract": "HELMStaking.sol:HELMStaking",
        "label": "stakes",
        "offset": 0,
        "slot": "2",
        "type": "t_mapping(t_address,t_struct(StakeInfo)44_storage)"
      },
      {
        "astId": 51,
        "contract": "HELMStaking.sol:HELMStaking",
        "label": "totalStaked",
        "offset": 0,
        "slot": "3",
        "type": "t_uint256"
      }
    ],
    "types": {
      "t_address": {
        "encoding": "inplace",
        "label": "address",
        "numberOfBytes": "20"
      },
      "t_mapping(t_address,t_struct(StakeInfo)44_storage)": {
        "encoding": "mapping",
        "key": "t_address",
        "label": "mapping(address => struct HELMStaking.StakeInfo)",
        "numberOfBytes": "32",
        "value": "t_struct(StakeInfo)44_storage"
      },
      "t_struct(StakeInfo)44_storage": {
        "encoding": "inplace",
        "label": "struct HELMStaking.StakeInfo",
        "members": [
          {
            "astId": 39,
            "contract": "HELMStaking.sol:HELMStaking",
            "label": "amount",
            "offset": 0,
            "slot": "0",
            "type": "t_uint256"
          },
          {
            "astId": 41,
            "contract": "HELMStaking.sol:HELMStaking",
            "label": "since",
            "offset": 0,
            "slot": "1",
            "type": "t_uint256"
          },
          {
            "astId": 43,
            "contract": "HELMStaking.sol:HELMStaking",
            "label": "lastClaim",
            "offset": 0,
            "slot": "2",
            "type": "t_uint256"
          }
        ],
        "numberOfBytes": "96"
      },
      "t_uint256": {
        "encoding": "inplace",
        "label": "uint256",
        "numberOfBytes": "32"
      }
    }
  },
  "userdoc": {
    "kind": "user",
    "methods": {
      "amountToNextTier(address)": {
        "notice": "Get amount needed to reach next tier"
      },
      "getContractBalance()": {
        "notice": "Get contract HELM balance (should equal totalStaked)"
      },
      "getStake(address)": {
        "notice": "Get user's current stake amount"
      },
      "getTier(address)": {
        "notice": "Get user's tier level (0-3)"
      },
      "getTierName(uint256)": {
        "notice": "Get tier name as string"
      },
      "hasTier(address,uint256)": {
        "notice": "Check if user has at least a specific tier"
      },
      "recoverToken(address,uint256)": {
        "notice": "Emergency recover tokens (only owner, for stuck tokens)"
      },
      "stake(uint256)": {
        "notice": "Stake HELM tokens"
      },
      "unstake(uint256)": {
        "notice": "Unstake HELM tokens"
      },
      "unstakeAll()": {
        "notice": "Unstake all tokens"
      }
    },
    "version": 1
  }
}